:020000021000EC
:1090000000600020F99201004D9301004F93010090
:10901000519301005393010055930100000000009B
:109020000000000000000000000000005793010055
:1090300059930100000000005B9301005D93010063
:10904000D5AF01005F930100ADB201005F93010055
:109050005F9301000000000061B101005F93010017
:109060005F9301005F9301005F9301005F93010034
:109070005F9301005F9301005F9301005F93010024
:1090800025B0010091A201005F9301005F930100F0
:109090005F9301005F93010061DB01005F930100BA
:1090A0005F9301005F9301000000000000000000DA
:1090B0005F9301005F9301000000000000000000CA
:1090C00000000000000000000000000000000000A0
:1090D0000000000000000000000000000000000090
:1090E0000000000000000000000000000000000080
:1090F0000000000000000000000000000000000070
:10910000000000000000000000000000000000005F
:10911000000000000000000000000000000000004F
:10912000000000000000000000000000000000003F
:10913000000000000000000000000000000000002F
:10914000000000000000000000000000000000001F
:10915000000000000000000000000000000000000F
:1091600000000000000000000000000000000000FF
:1091700000000000000000000000000000000000EF
:1091800000000000000000000000000000000000DF
:1091900000000000000000000000000000000000CF
:1091A00000000000000000000000000000000000BF
:1091B00000000000000000000000000000000000AF
:1091C000000000000000000000000000000000009F
:1091D000000000000000000000000000000000008F
:1091E000000000000000000000000000000000007F
:1091F000000000000000000000000000000000006F
:109200000348044B834202D0034B03B11847704715
:109210005823002058230020000000000548064B7A
:109220001B1AD90F01EBA301491002D0034B03B164
:1092300018477047582300205823002000000000E2
:1092400010B5064C237843B9FFF7DAFF044B13B18E
:109250000448AFF300800123237010BD5823002081
:10926000000000004CF4010008B5044B1BB1044998
:109270000448AFF30080BDE80840CFE700000000DD
:109280005C2300204CF40100A3F5803A704700BF36
:10929000154B002B08BF114B9D46FFF7F5FF002132
:1092A0008B460F461148124A121A04F0D5FE0C4B99
:1092B000002B00D098470B4B002B00D09847002084
:1092C000002104000D000B4804F0C4FF04F018FE58
:1092D0002000290002F0BAF904F0AAFF00000800FB
:1092E0000000000000000000006000205823002063
:1092F000BC300020BDE201000E4800680E4909683C
:109300000A280AD1002908D10C4802686FF07003BE
:109310001A404FF040031A4302600949094A0A4BB8
:109320009B1A03DD043BC858D050FBDC01F01CFC49
:10933000FFF7AEFF3001001034010010E40E0040D2
:10934000C4F50100C822002058230020FEE7FEE7F4
:10935000FEE7FEE7FEE7FEE7FEE7FEE7FEE7FEE7E5
:109360007047000007B5044B0093044A402300F007
:1093700030F803B05DF804FB8193010074230020F2
:109380002DE9F84388461446B2B10F4B0F4E032522
:10939000002743F00109224608EB0701002002F0F4
:1093A00097FF0744241A48B933782BB14FF47A4019
:1093B000C847013D02D13570BDE8F8830123337001
:1093C000002CE8D1F8E700BF60E70100B4230020DB
:1093D0007047F0B595B01D46164608460C4601F09C
:1093E00000FB1A9B0D93CDE9086500252B4608224A
:1093F00005A920460A958DF82C500C9501F00DFB1F
:10940000079B0293069B03939DF814308DF811502F
:1094100003F00302012A1DD1BDF81420059DC3F3FA
:10942000C203C2F383168DF81030B20008230EA9D0
:10943000204601F0F2FAC5F3952508AB00933246B9
:1094400002AB0EA9284600F0C1FA204601F0CDFA81
:1094500015B0F0BD022AF8D1BDF81650C3F3C2030F
:10946000C5F389158DF810300827082D2E4628BF22
:1094700008263B4632460EA9204601F0CEFAAD1B27
:1094800008AB02AA31460EA8374400F003FB002DBA
:10949000EBD1DAE7037813F0040215D003F00303ED
:1094A000012B03D0022B09D0012070470B680288E2
:1094B0000233C2F3831213440B60F5E70B68428852
:1094C000023303EB9213F7E7104670472DE9F04F94
:1094D000434C87B0884600230546871C0DF10700E2
:1094E00016468DF8073000F057FD6268C8F8002076
:1094F000A36803F580739B1A04F21C4804F5836A81
:1095000004F21449BB4218D30021002E64D005F0A8
:109510000F05AD0145F0050565F30F0163689DF882
:109520000700DAB203323B4444F82210636000F0D3
:1095300057FD012007B0BDE8F08F0121404600F043
:1095400084FF504600F099FF484600F096FFA0685F
:109550000290C0B2033004EB800002A9FFF79AFF2B
:1095600020BB029BDAB204EB8202D16803919A1C01
:109570000133DBB204EB83030292D3F80CB001F0A9
:109580000303012B20D0022B13D08346484600F062
:1095900077FF08B1029BA3605946404600F055FF93
:1095A000A368626803F580739B1AABE79DF8080017
:1095B000D0E7BDF80E30C3F3891303334FEA1B4BDA
:1095C00002EB93030293E1E7BDF80C30C3F383137E
:1095D0004FEA1B4B1344F5E7AD0545F006019DE747
:1095E000B823002030B50A4C71B10A4A0A49121B4F
:1095F000D20800239A4201D1002030BD31F8235017
:10960000854202D00133F5E7034654F83300F4E70E
:1096100024F50100ACF5010058230020094B013965
:1096200003EBC000032909D8DFE801F0020A0406B1
:1096300002207047007970474079704700207047DA
:109640000420704724F5010070470000034BD3E964
:109650000130C31A58425841704700BFB823002058
:109660002DE9F04387B0FFF7F1FF002874D1744C67
:10967000C4F81804BFF34F8FA0680290C0B2033043
:1096800004EB800002A9FFF705FF029B18B1D4F894
:109690001824002A5CD0DAB29F1C013304EB82024A
:1096A000DBB204EB8303D268DB68049302F00303AC
:1096B000022B0392029758D1BDF80E306148C3F3D4
:1096C00089184646502E28BF502666F38F1306F1A0
:1096D0000801ADF80E3001F058F90546002800F0F9
:1096E000998001F07EF9002303A90822284601F0A1
:1096F0008AF9FB43DBB20133F9B20331B6EB830FD6
:109700004FEA830904EB81012CD908234A46A6EBD2
:109710000906284601F077F9F6B24B4909F108032A
:10972000324608F10308284607EB980701F06BF969
:109730000297D4F81834D4F81064002B55D028467A
:1097400001F053F9FFF782FF80F00100C0B204E09E
:1097500062689A4204D8A260002007B0BDE8F08396
:10976000D8B28CE708233246DBE7012B52D1BDF893
:109770000C303448C3F38311062928BF062161F356
:109780008913023101F00F018900ADF80C3001F0AE
:10979000FCF8054600283DD001F023F900230822FB
:1097A00003A9284601F02FF90026BDF80C20C2F3CA
:1097B0008312B300B24203F10803BAD902994A1CDA
:1097C000C9B20331029204EB81010422284601F060
:1097D0001AF90136E9E7F3685B7923B13368294662
:1097E0001B6830469847F3681E68002EF3D1284660
:1097F00001F0FBF80DF107008DF8076000F0CCFBDD
:10980000D4F818340BB9029BA3609DF8070000F050
:10981000E7FB97E7D4F8104454B90C4B0C480D49BA
:10982000C01AC008000440F0020000F05DF889E7AB
:10983000236820469B689847E3681C68ECE700BFF4
:10984000B823002010F50100C423002024F50100F6
:1098500054F5010084E701002DE9F34704460E4664
:10986000924601A9012218469946FFF72FFE1C4F88
:1098700010B3019D4FF00008AA1CC84508EB020177
:1098800025D11848002100F0B1FD80F3100000043C
:1098900040EA1440E4006B1C04F03804DBB2EDB283
:1098A00044F0010407EB8303033544EA881444EAD7
:1098B0008624D86047F825403B781BB1FFF7D0FEDF
:1098C0000028FBD1FFF7C0FE02B0BDE8F087C9B2A7
:1098D00007EB81015AF82830CB6008F10108CCE78A
:1098E000B8230020D427002000231A46FFF7B4BF76
:1098F00007B50123019201AAFFF7AEFF03B05DF89F
:1099000004FB07B5CDE9002302236A46FFF7A4FF55
:1099100003B05DF804FB000010B5037A052B0C467C
:109920000FD0437A23B1084A0849204600F0F6FDDB
:109930000749204600F0F2FD2046BDE8104000F047
:10994000E2BD002AF8D0F3E799E701009EE70100A5
:10995000BEE7010073B5C38804460D4633B1144A0F
:1099600000921449144A284600F0D8FD217A0529AE
:109970001CD0637A4BB1A088FFF750FE0F4B104903
:1099800053F82020284600F0C9FD227A0D4BA0880C
:1099900053F822600021FFF725FE0B4903463246AB
:1099A000284602B0BDE8704000F0B8BD02B070BDFE
:1099B00099E70100A9E70100A1E70100E8F0010033
:1099C0009EE701000CF10100C1E701002DE9F04321
:1099D00085B01F460C9D002395F80C902B7306460E
:1099E0000C46904629463846FFF7B4FFB8F1060FFB
:1099F00009D8DFE808F00412181F28334000314668
:109A0000284600F08BFD002229463846FFF784FFE8
:109A100085F80C9005B0BDE8F083226831462846F1
:109A200000F07CFDEFE7D4E900233146284600F042
:109A300075FDE8E7A3680093D4E900233146284682
:109A400000F06CFDDFE7E3680193A3680093D4E9BD
:109A500000233146284600F061FDD4E723690293D4
:109A6000E3680193A3680093D4E9002331462846B4
:109A700000F054FDC7E76369039323690293E36829
:109A80000193A3680093D4E900233146284600F0EF
:109A900045FDB8E708292DE9F84F80460E461746E0
:109AA0001C463BD8002593F80C901D7319461046B0
:109AB000FFF750FFDFF880A0DFF880B0AE422FD96B
:109AC00018F805205946204600F028FD0135082DDC
:109AD000F4D11B491B4DDFF870B0204600F01EFD8D
:109AE0004FF0000A564522D918F80A207E2A1CD8C1
:109AF0001BF8021011F0970F08BF2E2213492046C1
:109B000000F00CFD0AF1010ABAF1080FEAD10122B6
:109B100021463846FFF700FF84F80C90BDE8F88F27
:109B20005146204600F0FAFCD0E72E22E6E729460F
:109B3000204600F0F3FCE5E7D1E70100CBE70100A8
:109B4000D5E70100D3E7010049F30100D7E70100A1
:109B50001FB50021039001AA44F20100CDE90111D3
:109B600001F050FD05B05DF804FB10B5D0E90242EC
:109B7000D1E90203A04293412CBF0120002010BD77
:109B800008B50A4800F06DFB094AD2E90031C01857
:109B9000084BD3E9002341F10001904271EB03032C
:109BA00003D210F1807041F1000108BDD0220020E5
:109BB000202900201829002073B5294B1E7804465F
:109BC0001EB90026304602B070BD0028F9D0FFF75C
:109BD000D7FFD4E902239042994139D300230DF1F4
:109BE00007008DF8073000F0D7F923692BB94FF043
:109BF000FF324FF0FF33C4E902239DF8070000F065
:109C0000EFF9D4E90530984700250DF107008DF8EC
:109C1000075000F0C1F92369C3B1D4E90212B2F1CF
:109C2000FF3F08BFB1F1FF3F05D05B1842F10002D2
:109C3000C4E9023235469DF8070000F0D1F9002D45
:109C4000BFD00848214600F007FFBBE71D46F2E7FA
:109C5000B3F1FF3F08BFB2F1FF3FB2D0F1E700BF61
:109C60002829002020F1010037B505460C460A4896
:109C700001A900F02AFB68B10570446001A90648FB
:109C800000F04DFB10B9002003B030BD034800F0D8
:109C9000EDFAF8E70420F7E7AC280020D0220020F6
:109CA00013B5114B11491868019008231048582228
:109CB00000F0F8FA044698B90E4A0F4801A900F0DE
:109CC000B1F9044660B90C48012100F0ABFA012358
:109CD0000A4A0948194600F007FA094B01221A708E
:109CE000204602B010BD00BF2CF10100BC280020AE
:109CF000AC280020E19D0100D0220020FFFF7F0062
:109D00002829002030B56AB103684FF0FF344FF0C6
:109D1000FF355A614A1E5142C3E90245514119615A
:109D2000002030BD0720FCE7F7B5044600250DF103
:109D3000070017460E468DF8075000F02DF9D4E9BC
:109D40000223B3F1FF3F08BFB2F1FF3F07D1FFF796
:109D500017FF301841F10001C4E9020101259DF807
:109D6000070000F03DF955B12369A76103B12661F1
:109D70002146002003B0BDE8F040FFF775BF28463C
:109D800003B0F0BD37B5054600240DF107008DF88E
:109D9000074000F001F9D5E90223B3F1FF3F08BF06
:109DA000B2F1FF3F06D04FF0FF324FF0FF33C5E96D
:109DB000022301249DF8070000F012F934B129466E
:109DC000012003B0BDE83040FFF74EBF204603B08E
:109DD00030BD0000014800F044BA00BFD02200208E
:109DE0002DE9F743064600F026FA40B1624AD2E96F
:109DF000003113F1807341F10001C2E9003100210B
:109E0000304600F028FA38B15C4C236823B1206852
:109E1000FFF7D2FE002323600121304600F01BFA39
:109E200020B1FFF7ADFE564BC3E900015548534F33
:109E300001A900F084FA4FF0FF344FF0FF35A0B9CC
:109E4000DFF844814D4D404600F01CFE002800F034
:109E50008980D0E90223B3F1FF3F08BFB2F1FF3F91
:109E600036D1404600F008FEEDE70378012B21D003
:109E7000022B09D1DFF81081404600F0FDFD20BB28
:109E8000424B01221A700CE05BB94168D1E9022310
:109E9000B3F1FF3F08BFB2F1FF3F02D03A4800F0F4
:109EA000DBFD01A9374800F075FA01A9354800F03B
:109EB00046FAC4E741683B68994202D100233B60FF
:109EC000EFE7314800F0E1FDEBE7C0E90245D3E7F9
:109ED000296891B12968D1E9020182428B412FD2D0
:109EE0002B68D3E90223B3F1FF3F08BFB2F1FF3F74
:109EF00003D02968404600F0AFFD404600F0BCFDAD
:109F0000D0E902490746FFF73BFE201A69EB010939
:109F1000012879F1000918DBB0F5350F13D3FFF7ED
:109F200059FF1B4A02441B484FF49603002100F0DE
:109F3000FFF890B92B6813B9304600F0CDF82F60C8
:109F400003B0BDE8F0832246EDE71248002100F09F
:109F500077F93846FFF730FE01E00D28F9D00023ED
:109F60002B6070E7054B1B68002BE9D1304603B02E
:109F7000BDE8F04300F0B4B8202900202C290020CF
:109F800018290020AC28002020F1010028290020F9
:109F9000FFFFB400D022002070B5EFF3108672B638
:109FA0000C4A9468012384B993600B4B0B4DD3F892
:109FB000801029401160C3F88050D3F8841051609C
:109FC0004FF0FF32C3F884202346037006B962B60F
:109FD00070BD00BF3029002000E100E0FC06FFBD9D
:109FE00010B5084B9A685AB150B9EFF3108172B6A8
:109FF000054A1C6814605C685460986001B962B6D8
:10A0000010BD00BF3029002000E100E003464058A9
:10A0100082B028B100225A505B580193019B012065
:10A0200002B0704770B5244B4579244E43F8252083
:10A030000446234B234806EBC505C01AC308180481
:10A040002B7933B140F002001F49FFF74DFC082087
:10A0500070BD23680A88C3F8082594F904308A780B
:10A06000002B4FEA4212ADBF03F1604303F00F0330
:10A07000164903F56143B9BFD2B2CA54D2B283F8CC
:10A08000002394F90430002B08DB0122590903F066
:10A090001F0302FA03F30E4A42F82130637906EBFC
:10A0A000C3020121117140F003000A4946F8334010
:10A0B000FFF71AFC0020CBE7442900203C290020B0
:10A0C00024F5010064F5010040E8010014ED00E012
:10A0D00000E100E062E80100036801221A607047B5
:10A0E000036801225A607047F7B504684FF4803561
:10A0F0008D40C4F808530468C4F8485301F1500473
:10A10000A4000668A4B20027375134590194019C79
:10A11000046801F5A87122F07F4244F8212002680A
:10A12000C2F8445313B10368C3F8045303B0F0BD3D
:10A130002DE9F34799464FF48038036808FA01F88F
:10A14000C3F848830368C3F8088322F07F45026898
:10A150000E46D2F8041502EB860206F15007D2F83B
:10A160004035C2F84015BF000268BFB24FF0000A88
:10A1700042F807A05B1AD259009223F07F43012BCB
:10A18000009A04460BD1264B4FF4806043F0010344
:10A190009847236843F807A0DB590193019B236884
:10A1A000D3F80475C3F84483EB1B23F07F43012BE2
:10A1B00006F5A876236819D1013543F82650184BC7
:10A1C0004FF4806043F0010398472368D3F80435C7
:10A1D0009F4209D12368C3F8448323680020C3F851
:10A1E000048302B0BDE8F0870D20FAE743F826505B
:10A1F0002068D0F804156A1A013AC9F1FF1322F059
:10A200007F4203F57F439342EED3002AE2D101352A
:10A2100040F826502368D3F804359942D9E700BFA7
:10A2200030F1010002680223C2F8443311B1026820
:10A23000C2F80433704700684FF48271FFF7E6BE3E
:10A240004FF4803303FA01F10368C3F8481303683D
:10A25000C3F80813704750318900006889B2FFF7CE
:10A26000D5BE0368D3F804057047000090F90430A8
:10A27000002B09DB5A09012103F01F03994002F169
:10A280004003024A42F82310704700BF00E100E09B
:10A29000024B034A1B681068184700BF442900207E
:10A2A0003C29002010B561B1B2FBF3F403FB142488
:10A2B000A4B244B9C0E9001484608281C3812046FD
:10A2C00010BD0E20FCE70920FAE737B550E8013F42
:10A2D0009DB2C48925448489A54228BF2D1B0489C9
:10A2E000A54202BFBFF32F8F002207E0C5EA030596
:10A2F00040E80154002CE9D14FF001028DF8032011
:10A300000193019A0A609DF8031001F0FF0321B147
:10A31000006810FA82F003B030BD1846FBE70A88E7
:10A320004B889A4209D150E8012FC2EA024240E824
:10A330000123002BF7D1012070470020704737B56B
:10A3400050E8023F1FFAA3F5C488A54202BFBFF33D
:10A350002F8F00220DE0C48925448489A54228BF9F
:10A360002D1BC3EA054540E80254002CE8D14FF00C
:10A3700001028DF803200193019A0A609DF80310F1
:10A3800001F0FF0321B1006800EB124003B030BDC3
:10A390001846FBE70A884B889A4209D150E8022FF9
:10A3A000C2EA224240E80223002BF7D10120704785
:10A3B0000020704701F01F024B090121914000EB82
:10A3C000830000F01EB801F01F0301229A404B09E0
:10A3D00000EB8300D14300F02CB84B0901F01F01C2
:10A3E00050F82300C84000F00100704710B5034644
:10A3F00053E8000F0A4643E8002494F0000FF7D119
:10A4000010BD10B5034653E8002F42EA010043E8AF
:10A41000000494F0000FF6D110BD10B5034653E8C8
:10A42000000F00EA010243E8002494F0000FF6D187
:10A4300010BD10B5034653E8002F02EA010043E8BF
:10A44000000494F0000FF6D110BD10B5034653E898
:10A45000002F02EB010043E8000494F0000FF6D156
:10A4600010BD10B5034653E8002FA2EB010043E8EE
:10A47000000494F0000FF6D110BD0121FFF7C1BF19
:10A480000021FFF7CABF37B5044600250DF10700CC
:10A490008DF80750FFF780FD2268616813688B42D2
:10A4A00010D9591E116013F8013C228AE56802FB9D
:10A4B00003552268A36811685B1A1179DBB29942CF
:10A4C00038BF13719DF80700FFF78AFD284603B0D7
:10A4D00030BD37B5054600230DF107000C468DF859
:10A4E0000730FFF759FD2A681368591C1160EA68A4
:10A4F000A41A2A8AB4FBF2F41C709DF80700FFF737
:10A500006FFD03B030BD10B5826804462AB14369BF
:10A510000168006998470023A36010BD0EB403B51D
:10A52000039921B104AB01AA019300F077F802B0BE
:10A530005DF804EB03B070470A2938B504460D46B0
:10A5400002D10D21FFF7F8FFA3682268591CA16012
:10A55000D554D4E901329A4204D32046BDE83840AC
:10A56000FFF7D1BF38BD00002DE9F84F9946DDE96E
:10A570000A431546824688460A460127AA420FD258
:10A580004F4538BF4F4613F0010B01D164B9002489
:10A590000126B9F1010F1CD909F1FF396E43F8E723
:10A5A0000137B2FBF5F2E9E79B0710D5B9F1000FCF
:10A5B0000CBF30262026BC42EAD9013C3146504629
:10A5C000FFF7BAFF002CE2D0BC42F6D1E0E720262C
:10A5D000F1E7B8FBF6F39D42E0D9DFF83C90B8FB19
:10A5E000F6F3504619F8031006FB1388FFF7A4FF93
:10A5F0003346AB42B6FBF5F6F1D2BBF1000F00D00B
:10A6000034B9BDE8F88F20215046013CFFF794FF94
:10A61000BC42F8D8F5E700BF36F101002DE9F74F4D
:10A62000064690460F46002900F0528117F8011B9C
:10A6300049B9337B002B00F04B81304603B0BDE8B5
:10A64000F04FFFF760BF252940F0BC8000253A4657
:10A6500012F8013B2D2B25D0302B27D02B2B28D0C7
:10A6600000242A2B07F1010226D1D8F80030191D49
:10A67000C8F800101B6817461C443B782E2B27D1C6
:10A6800001374FF0000A0A20394611F8012BA2F1D8
:10A69000300CBCF1090F1DD800FB0A22A2F1300AD0
:10A6A0000F46F1E745F001051746D0E745F00205F2
:10A6B000FAE745F00405F7E712F8013CA3F1300191
:10A6C0000929DAD80A2101FB0434303C1746C8E7CF
:10A6D0004FF0000A3A4612F8011B01F0FB0068280F
:10A6E0001746F8D0782909D86F290BD8632963D089
:10A6F00020D8252966D0582900F094803B78002B7B
:10A7000094D196E770390829F8D801A252F821F0BF
:10A71000A7A80100FDA60100FDA6010039A80100BF
:10A72000FDA601000FA80100FDA60100FDA6010085
:10A7300025A80100642901D06929DFD1D8F80020BB
:10A74000111DC8F80010D2F800B08BEAEB72A2EB32
:10A75000EB724FF001090A21092A37DCD14538BFD5
:10A76000D1462CB1BBF1000F01DB6A0700D5013CDB
:10A77000AB0702D5BAF1000F03D0E80701D454BBF0
:10A780000024BBF1000F32DACBF1000B2D21304653
:10A79000FFF7D2FE05F00302022A04D1BAF1000F3E
:10A7A00001D144BB0024CDE9004553460A22594655
:10A7B0003046FFF7D9FEA1E7D8F800301A1DC8F8D7
:10A7C000002019783046FFF7B7FE97E709F1010935
:10A7D000B2FBF1F2C0E7A145D3D2013C20213046C3
:10A7E000FFF7AAFE002CCBD0A145F6D1C9E7690737
:10A7F000D0D52B21CBE7A145D5D2013C3021304625
:10A80000FFF79AFE002CCDD0A145F6D1CBE7D8F8C2
:10A8100000100A1DC8F80020CDE9004553460A2261
:10A820000968C5E7D8F800100A1DC8F8002053468B
:10A83000CDE900451022F3E7D8F800301A1DC8F81A
:10A84000002015F00105D3F8009024D1B9F1000FD4
:10A8500003D0484603F094FB0546AC421DD809F1ED
:10A86000FF3919F8011F00293FF448AF3046FFF7C0
:10A8700063FEF6E730460135FFF75EFE19F8051076
:10A880000029F7D1A542BFF439AF20213046013C61
:10A89000FFF752FEF6E70025F0E720213046013CA5
:10A8A000FFF74AFED9E7D8F800301A1DC8F8002093
:10A8B000302130461C68FFF73FFE78213046FFF715
:10A8C0003BFE00220823CDE90032214610226FE72B
:10A8D00003B0BDE8F08F00BF2DE9F84FB0F806A037
:10A8E0004579D2F800B09DF828900AFB05F5043DA3
:10A8F00088460BEB0301A94203F1040488BFA5EBD2
:10A90000030BB4FBFAF607460AFB1644C2F800B084
:10A910004EB9AAEB04055D4528BF5D46BBF1000FAB
:10A9200004D1BDE8F88F3F68013EF1E7043408EB3D
:10A9300006003C442A46B9F1000F0DD02146ABEB8E
:10A94000050B03F0DBFBDA452E443F6855464FF01C
:10A95000000428BF5D46E1E701462046EFE7F8B571
:10A9600046790146721E0546002393422D6803D3A3
:10A970000024A64202D8F8BD0133F6E70F68284646
:10A98000FFF7A7FD01343946F3E72DE9F041CD1C6F
:10A99000078A0646FFF777FD043F3D440446B5FBB2
:10A9A000F7F5D0B14FF48073EDB2C7808380013DDD
:10A9B000066080460027AF4210D23046FFF763FDA5
:10A9C00040B16379013363710137C8F80000066054
:10A9D0008046F0E72046FFF7C2FF00242046BDE88E
:10A9E000F08101210430FFF730BD10B5012104468C
:10A9F0000430FFF736FDC0B220B92046BDE8104054
:10AA0000FFF7ADBF10BD1FB503920022009203AA4D
:10AA1000FFF762FF05B05DF804FB1FB5039201224A
:10AA2000009203AAFFF758FF05B05DF804FB016030
:10AA30000B6843604A68934208BF00234360704735
:10AA4000436843B1026891680B4443605268934283
:10AA500004BF00234360704770B5446806460D4646
:10AA6000206818B1B3682946984718B923682B6045
:10AA7000256070BD2468F3E74368186808B1026870
:10AA80001A6070474368186870474368186800B9CF
:10AA90007047884203D102681A600120704703465C
:10AAA0000068F4E710B50B4AA2F594739A4201D8F6
:10AAB00000200CE0D11A091103EBC10453F8311046
:10AAC000814205D802D204F10803EFE7606810BDA7
:10AAD0002246EBE770F2010008B5FFF7E3FF024BF7
:10AAE000002808BF184608BD70F20100BFF34F8F61
:10AAF0000549064BCA6802F4E0621343CB60BFF31A
:10AB00004F8F00BFFDE700BF00ED00E00400FA0535
:10AB10004FF0704393F8E02F062A08D1D3F8E80FDE
:10AB200000F0F000A0F13003584258417047002077
:10AB300070474FF08053D3F83001421C04BF4FF0F0
:10AB4000704393F8E00F062804D0A0F10A0358429E
:10AB50005841704701207047024AD2F80034002B58
:10AB6000FBD0704700E0014010B54FF08053D3F8A0
:10AB700030315C1C04BF4FF0704393F8E03F062B6C
:10AB800008D14FF080539C4AD3F82433C3F30423F5
:10AB9000C2F84035FFF7BCFF10B1984B984A5A678E
:10ABA000FFF7C7FF48B14FF080534FF08042D3F812
:10ABB0004432C3F34233C2F83C35FFF7A9FF30B14A
:10ABC000904AD2F8FC3023F08073C2F8FC30FFF7D3
:10ABD000B0FF40B14FF080430022C3F80C21C3F80E
:10ABE0001021C3F83825FFF793FF20B14FF08043C1
:10ABF0000322C3F8A025FFF78BFF60B1824B05222B
:10AC0000C3F810260122C3F888260022C3F81826AC
:10AC10003F22C3F814264FF08053D3F83021501C44
:10AC200009BF4FF07043D3F8343193F8E02FD3F8D5
:10AC3000E83F08BFC3F30313062A7DD1033B012B72
:10AC40007CD84FF08053D3F83031591C04BF4FF0FB
:10AC5000704393F8E03F062B09D14FF080534FF03B
:10AC60008042D3F8583203F04F03C2F8E43EFFF7B6
:10AC700060FF48B14FF08043D3F80024D20744BFAF
:10AC80006FF00102C3F800244FF08053D3F8302155
:10AC9000062A0BD1D3F83431033B022B81BF5B4A28
:10ACA000D2F83C3743F48063C2F83C374FF080530E
:10ACB000D3F830210A2A0AD1D3F834313BB14FF00E
:10ACC0008042D2F8E43E43F00F03C2F8E43E4FF076
:10ACD0008053D3F83021062A0CD1D3F83431033B0A
:10ACE000032B81BF4FF01023D3F808224FF080438D
:10ACF000C3F858254FF01021D1F80032002B03DBA8
:10AD0000D1F80432002B61DA414901234FF01020C1
:10AD1000C1F804351524FFF71FFFC0F80042FFF704
:10AD20001BFFC0F80442FFF717FF0023C1F80435EA
:10AD3000FFF712FFFFF7DAFE0A2A82D14FF08052A6
:10AD4000344BD2F80414C3F82015D2F80814C3F811
:10AD50002415D2F80C14C3F82815D2F81014C3F82F
:10AD60002C15D2F81414C3F83015D2F81814C3F8FF
:10AD70003415D2F81C14C3F84015D2F82014C3F8C7
:10AD80004415D2F82414C3F84815D2F82814C3F88F
:10AD90004C15D2F82C14C3F85015D2F83014C3F85F
:10ADA0005415D2F83414C3F86015D2F83814C3F827
:10ADB0006415D2F83C14C3F86815D2F84014C3F8EF
:10ADC0006C15D2F84424C3F870253AE7D1F80C3258
:10ADD000DB070DD50E480123C0F804350024FFF72A
:10ADE000BBFEC1F80C42FFF7B7FEC0F804459FE771
:10ADF000094B0A4A1A6010BD0030014000C00740EC
:10AE00000DF0ADBA00ED00E0005000400010004031
:10AE100000E0014000C00040D82200200090D00394
:10AE200038B5074C051EA4F1080308BF1C4623686B
:10AE30002BB11A6822605B6828469847F7E738BD4F
:10AE40005829002020B9054B01225A70FFF7E8BFAE
:10AE5000012802D1014A9070F8E770474829002084
:10AE600020B9034B01225A70FFF7DABF704700BFC9
:10AE70004829002038B50E4C2378B3B90D486360DB
:10AE8000A3602361E36000F075F8054602F04EFE12
:10AE900008B900F07BF801232370074BD3F8003486
:10AEA0000BB10123A370284638BD8525F5E700BF07
:10AEB0004829002045AE01000000014037B50D4C87
:10AEC00000230DF107008DF80730FFF765F8E36800
:10AED000013BE360E36833B9074BD3F8005415B97D
:10AEE00000F066F8A5709DF80700FFF779F803B049
:10AEF00030BD00BF4829002000000140012813B5E3
:10AF00000CD0032820D038B9134B0122C3F880207D
:10AF1000BFF34F8FBFF36F8F02B010BD0F4C0023F4
:10AF20000DF107008DF80730FFF736F823780BB9DD
:10AF3000FFF7A0FFE3689DF807000133E3600123FA
:10AF4000A370FFF74DF8E7E700F020F802B0BDE886
:10AF50001040FFF7B3BF00BF00E100E04829002028
:10AF600000F18040002382B0036003680193019BDD
:10AF700002B07047044B0246187918B91A600122D2
:10AF80009A807047852070475C290020074B1A681B
:10AF9000D20704D4C02283F8002301221A604FF0A4
:10AFA00080430122C3F81825704700BF00E100E08C
:10AFB0004FF0804208B50223C2F808334FF4827084
:10AFC000FFF7CEFF0123D360D2F81834DB03FBD4A4
:10AFD00008BD000010B54FF08041D1F8003163B1D9
:10AFE0004FF48070FFF7BCFF01220D4BC1F808231E
:10AFF000587910B95A711B6898474FF08042D2F8BF
:10B00000043163B14FF48270FFF7AAFF0223C2F844
:10B010000833034BBDE810401B680120184710BDE2
:10B020005C29002013B5084CD4F800314BB1074B14
:10B030001B6898470023C4F80031D4F8003101930D
:10B04000019B02B010BD00BF000001406429002038
:10B0500070B5114B1960114B1C780546D4B9104ED0
:10B0600001221A700378C6F80C3541684FF47A72E1
:10B070000023C803490C03F0EFF9C6F804052B7A46
:10B08000084A5B01DBB282F810334FF4803313605F
:10B09000204670BD0820FCE76429002069290020B3
:10B0A0000000014000E100E0044B0122C3F804234A
:10B0B0001A60034B02221A70704700BF0000014063
:10B0C0006929002037B5054600240DF107008DF8E9
:10B0D0000740FEF761FF0C4B1A78072A11D8511C64
:10B0E00019700A492A70D1F80805012393400343D7
:10B0F000C1F808359DF80700FEF772FF204603B03F
:10B1000030BD0424F6E700BF68290020000001409C
:10B11000034B044A00F5C07043F82020704700BF7D
:10B12000000001403546526E00F1804000F5C040FD
:10B13000002382B0036003680193019B02B0704753
:10B14000800000F1A040D0F8003723F44033C0F86D
:10B150000037D0F8003743EA0143C0F800377047A2
:10B160002DE9F34700244E4D01944FF480720121E4
:10B1700002F1804303F5C0431B68012B07D1D5F8CA
:10B1800004330B4203D090B2FFF7CEFF0C430432DE
:10B19000B2F5907F4FEA4101EAD1414BD3F87C31BF
:10B1A000012B0CD14FF4BE70FFF7BEFF4FF0A04350
:10B1B00044F00044D3F820250192C3F82025E3B2DF
:10B1C000D3B1384F00250126344210D0AB0003F133
:10B1D000804303F5C043D3F81005D3F8101557F892
:10B1E000253023B1C1F30141C0F304209847013554
:10B1F000082D4FEA4606E7D1002C48DA294C4FF0DB
:10B20000A047294D4FF00008012615F9013F5A1CAF
:10B2100031D0C3F3C20108316944DAB211F8041C19
:10B2200003F03F0903F0070306FA03F3194222D0A3
:10B2300009F5E073484657F82330C3F3014ABAF1E1
:10B24000020F14BF02210321FFF77AFF06FA09F368
:10B25000C7F8203504EB090393F9303054F8233054
:10B260004BB19109032904D0BAF1020F12D101297F
:10B2700001D14846984708F10108B8F1040FC4D13C
:10B28000D7F820350193C7F82035002BB9D102B08B
:10B29000BDE8F087BAF1030FEDD10229E8E700BF5E
:10B2A000006000406C290020BB290020014B1B6876
:10B2B000184700BFC8290020032811D8012A0AD145
:10B2C00001290FD100F10E02D2B20D4B00EB40006C
:10B2D0001A54002070470129F7D0022904D049B13F
:10B2E000072070470022F8E7054B00EB40000344BD
:10B2F0005A70EEE7024B00EB400003449A70E8E717
:10B30000D029002008B5012202210020FFF7D4FF38
:10B3100008B1072810D1072202210120FFF7CCFF36
:10B3200008B1072808D100210A220846FFF7C4FF08
:10B3300010B1072808BF002008BD000010B5038821
:10B34000102B02D0112B22D010BD194C2168D1B97D
:10B3500001220846FFF7B0FF08B107280FD10722E6
:10B3600002210120FFF7A8FF08B1072807D1042216
:10B3700002210020FFF7A0FF28B1072803D00D4BC2
:10B380001B6803B19847236801332360DCE7084A50
:10B390001368013B1360002BD6D1FFF7B3FF0028E1
:10B3A000D2D0044B1B68002BCED0BDE8104018470C
:10B3B000DC290020E029002041DF704776DF70475C
:10B3C0007ADF70477CDF70478FDF7047B1DF7047EF
:10B3D0007047000007B50388212B25D006D8102B15
:10B3E00011D0112B1BD003B05DF804FB522B23D0DE
:10B3F000562B01D03B2BF6D18088132103B05DF88A
:10B4000004EBFFF7DBBF114B818819801048114B0B
:10B4100000221A6003B05DF804EB02F051B90B4B47
:10B420004FF6FF721A80DEE7002301A98088ADF88D
:10B430000430FFF7C9FFD6E70448002300881A4606
:10B44000194603B05DF804EBFFF7C0BF28230020C6
:10B45000442B0020E82900202DE9FF41284B1B78D0
:10B46000002B40D0274B1B884FF6FF75AB423AD0DC
:10B4700001A800F043FD002835D0234B23491E8846
:10B48000721C1A8001A80C2202F0EAFE0C2204466B
:10B4900001A91E4802F032FE44B301A800F0A6FD47
:10B4A000DFF86C801B4B98F800401B78E7B2013442
:10B4B00004F00304A34216D0174D07EBC7000C227B
:10B4C00001A905EB400002F019FE122303FB07550A
:10B4D000AE8100F05DFEE88100F06CFE2874BFF3E1
:10B4E0005F8F88F8004004B0BDE8F0810B4A1388F4
:10B4F0009BB2AB421FBF138801339BB21380CFE7CF
:10B500004A2A002028230020FE290020F2290020BA
:10B51000012A0020002A0020022A0020F029002011
:10B52000094B1A884FF6FF739A42084A02D000234B
:10B530001360704713680133B3F5967F136022BF21
:10B54000034B01221A70704728230020E8290020AD
:10B55000E429002008B50378002B35D1818A012920
:10B5600032D903691A78202A2ED15A78103A062A3D
:10B570002AD8DFE802F004081F2929212A00144BE9
:10B5800001221A7020E002291ED09B78012B114B5A
:10B59000197814BF01220222914215D01A701A782C
:10B5A0000D49002001F0A6F8BDE808400B49002035
:10B5B00000F0DABE0A4BE3E7022905D09B785A1E59
:10B5C00053425341024A137008BD064BD8E700BFEF
:10B5D000262300202023002066EC010073EC0100EC
:10B5E000EE290020EC29002038B5054D044645F031
:10B5F00001054FF47A40A847013CFAD138BD00BF9D
:10B6000090F2010008B50B4644F20101884205BFE3
:10B6100013680B490B49926818BF0246002001F0DD
:10B6200069F80949002000F09FFE282211460320F6
:10B6300000F074FC4FF47A70FFF7D6FFF5E700BF17
:10B6400078EC010092EC010073EC01002DE9F04F61
:10B650004FF0A0440323B3B0C4F87037002000F0CB
:10B6600052FC0C23C4F864370023C4F824377D4C03
:10B6700094E8070004AB83E8070042F6E0627A49E9
:10B6800005921846FFF7E4FC08B1FEF761FA774827
:10B69000FFF718FD08B1FEF75BFAFFF705FD7449E7
:10B6A000744E754F002001F025F87449002000F019
:10B6B0005BFE50222821012000F030FC4FF42F7057
:10B6C000FFF792FF00F03EFA002500F069FB2A46E2
:10B6D000034630703946002001F00CF8674900201D
:10B6E00000F042FE3378002B00F0A78000F05AFCF7
:10B6F00050222821022000F011FC4FF42F70FFF798
:10B7000073FF02F0D5F908B1FEF722FA002307A96A
:10B710000120079302F05EFA08B1FEF719FA07A8B4
:10B7200002F024FB08B1FEF713FA554AE0685168AD
:10B7300007AB03C307A8FFF743FE08B1FEF708FAFB
:10B74000504802F01DFC4F4982B20020FFF73AFE3C
:10B7500008B1FEF7FDF94C48002101F0D9FE08B10F
:10B76000FEF7F6F900234948039303A901F096FF79
:10B7700008B1FEF7EDF9464B4648079307A902F0DA
:10B780009FF808B1FEF7E4F9AC22002107A802F007
:10B7900063FC414B07930123404AADF868308DF8B4
:10B7A00098303F481B92402307A9299301F03CFAA7
:10B7B00008B1FEF7CDF93A48012101F032FA1C2216
:10B7C00000210DEB020002F047FC4FF42033CDE9DD
:10B7D000083307A803238DF8283001F0CBFC08B10B
:10B7E000FEF7B6F92F49002000F084FF234900201E
:10B7F00000F0BAFD50222821032000F08FFB4FF407
:10B800002F70FFF7F1FE0321254801F07FFA26494A
:10B8100004460246002000F06DFF1849002000F0A9
:10B82000A3FD002C44D028221146032000F076FB13
:10B830004FF47A70FFF7D8FEF5E732200135FFF7B5
:10B84000D3FE052D7FF441AF3578002D7FF44EAF48
:10B850001649284600F04EFF0849284600F084FDAE
:10B8600044E700BFA0F20100D1B30100ED290020A0
:10B87000A6EC01004A2A0020BBEC010073EC010099
:10B88000ACF201001AED0100502B0020442B0020E7
:10B8900055B501002C2300200200000622230020C1
:10B8A0004C2A0020E1EC0100F6EC0100CFEC010095
:10B8B0008749204600F01EFF8649204600F054FDCF
:10B8C00050222821042000F029FB4FF42F70FFF7AD
:10B8D0008BFEFEF7E5F908B1FEF73AF97E4A7F489C
:10B8E0000121FEF70FFA08B1FEF732F97C48002279
:10B8F0009321FEF719FA08B1FEF72AF9794A7A4836
:10B900000121FEF7FFF908B1FEF722F9774800227E
:10B910004FF48041FEF708FA08B1FEF719F97449AF
:10B92000DFF8D0814FF496730922002000F0E2FE88
:10B930006849002000F018FD002635466E4B6F4F19
:10B940001878FFF7E5FB6E4B1B780BB101233B70BA
:10B95000DFF8B0B19BF800302BB36B4B1B884FF670
:10B96000FF7293421FD0DFF8A491694A079299F8B9
:10B9700000208DF8212006220024ADF80A2007A916
:10B980000DF10A0263488DF8204002F013F88BF89D
:10B990000040614999F80020204600F0ABFE4D4977
:10B9A000204600F0E1FC3B783BB14D48FEF7EAF958
:10B9B0004E48FEF7E7F900F0E3FA00F0D7FA002866
:10B9C00000F08380FF2D0BD00135EDB2032D07D1A0
:10B9D0003C221146022000F0A1FA504B00221A60CE
:10B9E000DFF83CB15EE0DFF8209198F80040B9F84C
:10B9F00000204FF6FF739A42E4B234D0494B1B78D3
:10BA00008BB3424B484F1B7804EBC401022B07EB6E
:10BA1000410150D14FF49173ADF81C3012235C43B7
:10BA200007F1080304EB030A08A8BAF80420ADF8EC
:10BA30001E2027440C2202F061FBBAF80630ADF854
:10BA40002C303B7C8DF82E301322B9F800304FF6A5
:10BA5000FF718B4207D0ADF80A202E480DF10A0283
:10BA600007A901F0A7FF98F8003001360133B6B2FC
:10BA700003F00303672E88F8003013D900F088FB29
:10BA8000044600F08FFB294A2949128892B20346E6
:10BA900000920020224600F02DFE0E49002000F00A
:10BAA00063FC002698F800209BF800309A429AD157
:10BAB000FFF782FC42E722230C220DF11E00ADF8B5
:10BAC0001C3002F01BFB0E22BFE7054688E700BFD3
:10BAD00007ED010073EC010059B401009CF2010074
:10BAE0000023002021B5010098F20100E02200208F
:10BAF00027ED0100002A0020ED290020E429002084
:10BB0000EC290020EE2900202823002020230020FB
:10BB1000220300012C23002042ED0100E82900202F
:10BB2000012A002026230020022A0020F0290020DC
:10BB300057ED0100024B802043F00103184700BF7E
:10BB4000C0F2010010B54FF0A04440F20D63C4F8FC
:10BB50001437C4F818372023C4F80835FFF7EAFF74
:10BB60004023C4F80835BDE81040FFF7E3BF70B5C7
:10BB70004FF0A0442023C4F808354026FFF7DAFF31
:10BB8000C4F80865FFF7D6FF0925C4F80C65FFF770
:10BB9000D1FFC4F80865FFF7CDFF013DF5D12025A1
:10BBA000C4F80C55FFF7C6FFC4F80855BDE870404F
:10BBB000FFF7C0BF70B54FF0A04420264025C4F861
:10BBC0000865FFF7B7FFC4F80855FFF7B3FFC4F8DF
:10BBD0000C65FFF7AFFFC4F80C55BDE87040FFF7E8
:10BBE000A9BF38B54FF0A0444025C4F80855FFF769
:10BBF000A1FF2023C4F80C35FFF79CFFC4F80C55B7
:10BC0000BDE83840FFF796BF38B54FF0A044202577
:10BC1000C4F80C55FFF78EFF4023C4F80835FFF732
:10BC200089FFC4F80855BDE83840FFF783BF2DE908
:10BC3000F041074607264FF0A0444FF0200840256A
:10BC400027FA06F3DB074CBFC4F80885C4F80C8557
:10BC5000FFF770FFC4F80855FFF76CFFC4F80C55E8
:10BC6000FFF768FF013EEBD22023C4F80835FFF749
:10BC700061FFC4F80855FFF75DFFD4F81065C4F8FC
:10BC80000C55FFF757FF6FEA561000F00100BDE8B2
:10BC9000F0812DE9F0414FF0A0452023C5F808358B
:10BCA0000746FFF747FF082600244FF04008C5F875
:10BCB0000885FFF73FFFD5F81035C5F80C856400FF
:10BCC000C3F34013E4B21C43FFF734FF013EEED14F
:10BCD0002023B7B1C5F80C354FF0A0454026FFF73B
:10BCE00029FFC5F80865FFF725FFC5F80C65FFF7C4
:10BCF00021FF2023C5F80835FFF71CFF2046BDE8CB
:10BD0000F081C5F80835E7E770B50D460646FFF740
:10BD100051FFD420FFF78BFF04463046FFF787FF23
:10BD20000028284608BF0024FFF781FF002808BF2D
:10BD30000024FFF769FF04F0010070BD2DE9F04118
:10BD400004460F461646FFF735FFD420FFF76FFF76
:10BD500028B9FFF759FF00242046BDE8F0812046AE
:10BD6000FFF765FF0028F4D0FFF73BFFD520FFF772
:10BD70005EFF04460028ECD006F1FF3800255FFA8C
:10BD800088F8E8B2804594BF00200120FFF781FFCA
:10BD900078550135AE42F4D1FFF736FFDCE70000FD
:10BDA0002DE9FF41504D00238DF80D30032445F05F
:10BDB0000105FFF7DCFE01220DF10D010F20FFF759
:10BDC000BDFF18B19DF80D306A2B6DD000238DF8A2
:10BDD0000D300A264FF47A40A847013EFAD1013CC3
:10BDE00014F0FF04E5D10026304604B0BDE8F08130
:10BDF0004FF4C850B8479DF80D0010F001085DD110
:10BE000044211220FFF780FF414600284FF00A002E
:10BE100008BF0024FFF778FF442100284FF01000EE
:10BE200008BF0024FFF770FF4C2100284FF01100DD
:10BE300008BF0024FFF768FF012200280DF10E0162
:10BE40004FF0100008BF00248DF80E808DF80F8091
:10BE5000FFF774FF012200280DF10F014FF01100D0
:10BE600008BF0024FFF76AFF9DF80E509DF80F7081
:10BE70001E4900283B462A46404608BF002400F0E1
:10BE800039FC1B49404600F06FFA1CB1442D01D12A
:10BE90004C2FA9D0174900972B462246002000F0CE
:10BEA00029FC134900201CE001211220FFF72CFF80
:10BEB0000D4F044640F2F51547F0010701220DF140
:10BEC0000D011220FFF73AFF064600288BD0013DF6
:10BED000ADB2002D8CD10849284600F00BFC044976
:10BEE000284600F041FA7EE7D0F2010089ED01001A
:10BEF00073EC0100A3ED010072ED010001460C227C
:10BF00002220FFF71BBF4FF0A0434FF0805210B12B
:10BF1000C3F80C257047C3F8082570472DE9F8438E
:10BF2000114E80460C461546002746F00106B845DE
:10BF300001D1BDE8F8830120FFF7E5FFA1462CB150
:10BF40004FF47A40B047B9F10109F9D10020FFF769
:10BF5000DAFFA9462DB14FF47A40B047B9F1010993
:10BF6000F9D10137E3E700BFE0F201004FF0A04351
:10BF7000D3F810056FEA506000F001007047000030
:10BF800008B50020FFF7BFFF4FF0A043044AC3F8F5
:10BF900064274FF080430122C3F80025FEE700BF6D
:10BFA0000C00030008B50C2200210A4802F054F8E6
:10BFB0000C220021084802F04FF80C22074800210B
:10BFC00002F04AF8064A00231370064A1370064A24
:10BFD000137008BD802B0020742B0020682B0020DC
:10BFE000662B0020652B0020642B0020F0B587B065
:10BFF0000446811D022201A802F080F804F1080124
:10C0000002220DF1060002F079F804F10A01022281
:10C0100002A802F073F8BDF804304FF49D7213FBD0
:10C0200002F31B120393BDF8063013FB02F31B123D
:10C030000493BDF8083013FB02F34E4A1B1205931C
:10C0400003AE144600201146236856F8045B013005
:10C05000ED1A03EB6513032844F8043BF4D1D1E94E
:10C060000043896883FB0330C4FB0430C1FB01300B
:10C0700018464FF080418B423DD3002300293CD12C
:10C08000A3F6D2110029BCBFC3F51D610231CC2932
:10C09000394B3BDC1978FF2901D0013119701B782D
:10C0A000072B364B8CBF01210021197034490B78C6
:10C0B0003FD90F2B2CD80133DBB2324C0B70002050
:10C0C000256852F8041B0130491B032891FBF3F14A
:10C0D000294444F8041BF3D12B4B1A68A2EBA2129B
:10C0E0001A605A68A2EBA2125A609A68A2EBA212D6
:10C0F0009A6007B0F0BD8908BDE75C1884424FEA3A
:10C1000053039CBF5B18001B8908B7E70021C5E7F4
:10C110001C4C002054F8041B52F8043B5B1A48BF27
:10C120000F33013001EB2311032844F8041CF1D133
:10C13000D2E70F2BDDD9134D134C144E002040F2E3
:10C14000752755F8043B52F8041BC91A2368794334
:10C1500003EB2143B342B8BF3346B3F57A6F00F126
:10C160000100A8BF4FF47A63032844F8043BE8D1E8
:10C17000BFE700BF742B0020652B0020642B00203C
:10C18000662B0020802B0020682B002060F0FFFF32
:10C19000034B18684FF47A7358430012704700BF7E
:10C1A000682B0020024B187880F00100704700BF18
:10C1B000642B0020054B1878054B1B780130C0B26A
:10C1C0000F2B88BF40F00400704700BF642B002095
:10C1D000662B00200369C26893429CBF81685B188C
:10C1E000013B981A70472DE9F041D0E902840546D9
:10C1F000A8EB04064068964220440F46144404D934
:10C2000001F07CFFEC60BDE8F0813246A4EB08044D
:10C2100001F074FF68682246B919F1E72DE9F84387
:10C22000C5680646894617464FF000083369B4686A
:10C2300070689D4228BF1B19641BBC4203F1FF3389
:10C2400028BF3C465B1B9C4228BF1C4649462844ED
:10C25000224601F053FFB3682544AB4208BF0025D6
:10C260003F1BA044A144F560E0D14046BDE8F883FF
:10C2700010B5114C114AA2610223C4E90433104BDA
:10C28000E361A2644FF400730E4A0F492362E26433
:10C2900000231022E01DA3626362E362A36563656D
:10C2A000E365226501F0CEFD0849204601F0CAFD94
:10C2B0002023A37110BD00BF9C2D0020CEED0100F6
:10C2C0009C2B00208C2B0020D7ED0100DBED010022
:10C2D000F8B5144B182700FB07751D4407FB003306
:10C2E0000E46DB6A012B14460AD0022B14D023B968
:10C2F0002846FFF76FFF844208D900242046F8BD86
:10C300002846FFF767FF844228BF0446224631468D
:10C310002846FFF768FFF1E72846BDE8F840FFF739
:10C320007DBF00BF9C2D002073B50E4B1B780446CB
:10C330000D4616460BB9FFF79BFF00230DF10700D2
:10C340008DF80730FDF728FE324629462046FFF7D4
:10C35000BFFF04469DF80700FDF742FE204602B0ED
:10C3600070BD00BF9C2D002038B5054608460C4620
:10C3700001F006FE214602462846BDE83840FFF798
:10C38000D3BF10B5826804464068531C834205D869
:10C3900020688154A360E3680133E360D4E901328B
:10C3A0009A420BD121682069FFF7BEFFA36898422B
:10C3B00015BF4FF0FF330023E360A36010BD000002
:10C3C0002DE9F84F9946DDE90A43164605468846A9
:10C3D0000A464FF0010AB24212D2CA4538BFCA46D5
:10C3E00013F0010B01D184B90024EB68002B3DDB75
:10C3F0000127B9F1010F1FD909F1FF397743F8E798
:10C400000AF1010AB2FBF6F2E5E79B0712D5B9F192
:10C41000000F0CBF30272027A245E6D23946284618
:10C42000FFF7AFFFEB68002B04F1FF34DDDB002CDE
:10C43000F2D1D9E72027EFE7B8FBF7F39E42DDD929
:10C44000DFF84890B8FBF7F3284619F8031007FB0C
:10C450001388FFF796FFEB68002B03DBB7FBF6F3BF
:10C46000B74205D2BBF1000F00D064B9BDE8F88F28
:10C470001F46E7E720212846FFF783FFEB68002BE4
:10C4800004F1FF34F2DB5445F4D8EFE7E6F20100A3
:10C490002DE9F04F00239BB00E464021CDE9061355
:10C4A000CDE908300DF1280A03901546CDF814A007
:10C4B00016F8011B39B9089D002D00F3108108986A
:10C4C0001BB0BDE8F08F252940F0BA804FF0000B7B
:10C4D000314611F8013B2D2B18D012D8232B1CD03C
:10C4E0002B2B17D00024314611F8013BA3F130006B
:10C4F000092815D80A2202FB0433A3F130040E46A2
:10C50000F1E7302BEED14BF0020B01E04BF0010BC9
:10C510000E46DDE74BF0040BFAE74BF0080BF7E7AC
:10C520002E2B11D10E464FF000090A27304610F885
:10C53000011BA1F1300CBCF1090F07D807FB091151
:10C54000A1F130090646F1E74FF00009304610F836
:10C55000011B01F0FB07682F0646F8D0782909D89F
:10C560006F290BD8632967D020D8252968D058298E
:10C5700000F09580089B002B9ADA9CE77039082917
:10C58000F8D801A050F821F0CFC6010075C5010010
:10C5900075C50100AFC6010075C501008DC601005B
:10C5A00075C5010075C501009FC601006429E1D170
:10C5B0002968081D28600F6887EAE771A1EBE77119
:10C5C0004FF001080A2009293EDCC84538BFC8469B
:10C5D0002CB1002F02DB1BF0040F00D0013C1BF03C
:10C5E000020F02D0B9F1000F04D01BF0010F01D1EE
:10C5F0007CBB002408990029BCDB002F35DA7F4280
:10C600002D2105A8FFF7BDFE08990029B2DB0BF02C
:10C610000301022904D1B9F1000F01D154BB002458
:10C6200008990029A6DBCDE9004B4B460A22394682
:10C6300005A8FFF7C5FE9DE72B681A1D2A6019782B
:10C6400005A8FFF79EFE95E708F10108B1FBF0F1A0
:10C65000B9E7A045CED2202105A8FFF792FE0899A0
:10C66000002904F1FF34C3DAC4E71BF0040FCED075
:10C670002B21C6E7A045D3D2302105A8FFF781FEC4
:10C680000899002904F1FF34C8DAC9E72968081DB0
:10C690002860CDE9004B4B460A220968C8E72968A3
:10C6A000081D2860CDE9004B4B461022F5E72B68AA
:10C6B0001A1D2A601C6814F8011B00293FF45AAFA8
:10C6C00005A8FFF75EFE089B002BF4DA52E7296805
:10C6D0000B1D2B6000220823CDE90032E5E7079C03
:10C6E00024B1039822465146FFF71EFE2C440894BD
:10C6F000E5E600BF0EB403B503AB01AA53F8041B73
:10C700000193FFF7C5FE02B05DF804EB03B070477C
:10C710006DDF704779DF70477DDF704764DF7047FA
:10C720002DE9F04F85B000260E9CBDF83CB0B4F862
:10C7300000A00191074690461D46B1463A884A45F9
:10C7400005DC002E37D1002005B0BDE8F08F7A68F7
:10C7500052F82900039000220DF10B0103A8FFF706
:10C76000DDFF0028F0D19DF80B20424520D1228822
:10C7700086F0010002EB080101EB4001594524DC81
:10C780003EB9013292B2019B2280AB542288013221
:10C79000228022880DF10B012A4403A8FFF7BEFF77
:10C7A0000028D1D121889DF80B200A44228001263F
:10C7B00009F10109C2E72388013BA3EB0A039BB2FD
:10C7C000FF2B02D805F80A30BDE70C20BCE72DE9A5
:10C7D000F341089FBDF824801546CDE90078022278
:10C7E00004461E46FFF79CFF50B9334610222946E7
:10C7F0002046CDE9087802B0BDE8F041FFF790BFD0
:10C8000002B0BDE8F0812DE9F04F0023B2F80080BE
:10C81000138090F82D3085B007460D46144663B35B
:10C82000B8F1080F40F2AB8102A8FFF771FF06468E
:10C83000002840F0DD8023880822EA542388013351
:10C840009BB21B222380EA542088013080B22080D2
:10C8500006220DF10901284401F050FC23889DF8BF
:10C86000082006339BB2012A88BF0122238094BF8F
:10C87000EE54EA54238801332380BB780BB323881A
:10C880000433434500F27B8102A8FFF743FF0646CD
:10C89000002840F0AD8023880322EA542388013326
:10C8A0009BB219222380EA542388BDF80820013363
:10C8B0009BB2E9182380EA54120A4A702388023393
:10C8C0002380FA78A2B12388D91C414500F2578110
:10C8D0000221E954238801339BB201212380E954CA
:10C8E00023880B449BB22380EA5423880B44238083
:10C8F0007B68B3B193F900202388D91C414500F22D
:10C900003E810221E954238801339BB20A2123800E
:10C91000E954238801339BB22380EA5423880133EE
:10C9200023803B89002B57D13B8A5BB1CDE900487E
:10C930002B460722032107F11000FFF748FF0646A8
:10C94000002855D13B8B5BB1CDE900482B46152221
:10C95000142107F11800FFF73AFF0646002847D1D7
:10C960003A6A002A48D17E6A66B3B3882188981C47
:10C970008A1C0244424500F20281FE2800F2FF8038
:10C9800003336B54238801339BB2FF222380EA5484
:10C99000238801339BB223803288EA54E918120AB3
:10C9A0004A702088023080B22080B28852B1B168CB
:10C9B000002900F0E680284401F0A0FB2388B2881B
:10C9C0001344238097F82C30002B58D13B78002B50
:10C9D00040F0918000260BE0CDE900482B4606226E
:10C9E000022107F10800FFF7F2FE064600289BD05F
:10C9F000304605B0BDE8F08F2688B31D434500F2F0
:10CA0000BE801188052940F2BC806FF4486C01EBB0
:10CA10000C039BB24FF27D3C634540F2B2805388D9
:10CA2000052B40F2AE806FF44860181880B2604564
:10CA300040F2A7804FF6FF70814202D0994200F287
:10CA4000A0800523AB55238801339BB2122123809C
:10CA5000E954238801339BB223801188E954E818F4
:10CA6000090A4170238802339BB223805288EA541A
:10CA7000E918120A4A7023880233238073E7BB6ADD
:10CA8000002B7ED04FF000094FF00C0A4FF0160B30
:10CA900097F82C305FFA89F2934297D9B96A0AFB6A
:10CAA00002F28E18B388981CFE2868D820880333B9
:10CAB0002B54238801339BB2238005F803B02388CD
:10CAC00001339BB223808A5AEA54E918120A4A7049
:10CAD0002088023080B22080B2884AB1B168002933
:10CAE0004FD0284401F00AFB2388B28813442380E6
:10CAF00009F10109CCE73A88012A42D02288901C2A
:10CB000040453CD8012B04D17B780233134498452F
:10CB100035D3A8F10208A8EB02081FFA88F802A989
:10CB20002844ADF80880FFF7F7FD064600287FF49B
:10CB30005FAF3A78BDF80830022A1CD07978994264
:10CB400001D3434519D9012A02D1884528BF884617
:10CB5000ADF808800821BDF80830FE2B0FD82288D8
:10CB60000133AB542288013292B22280A954228828
:10CB7000134423802EE74345EAD80921EBE70C262E
:10CB800036E7072634E770B5C8B1F2B10024651C5A
:10CB90008D4206DA1688A64212D8061976789E4289
:10CBA0000ED1A14211D9005D48B1013880B230B137
:10CBB0000234A3B210FA84F4A14206DB138070BDE4
:10CBC000045D14FA85F5ACB2E1E70020F7E713B590
:10CBD00013460022ADF806200DF106020446FFF7C9
:10CBE000D2FF10B1BDF80600204402B010BD72DFC4
:10CBF000704773DF704738B5012204460D46B0F820
:10CC0000D810D0F8D400FFF7E2FF00B1057004F1AE
:10CC10003C0204F1D40104F15400BDE83840FFF7B0
:10CC2000E6BF80F830107047F8B504460F4600297B
:10CC300068D0002866D091F87A301BB191F898300E
:10CC4000002B61D1D7F8A030042B5DD0D7F89C30F1
:10CC5000042B59D04FF0000C84F802C007F178067D
:10CC60000FCE251D0FC50FCE0FC596E8070085E82E
:10CC7000070084F830C0D7F8A4306363D7F8A83031
:10CC8000A3634FF6FF7504F1D403C4F8E430A4F8AD
:10CC9000E8500722614604F1EA0001F0DDF923784B
:10CCA0000BB984F85450224604F155011F25C4F8ED
:10CCB000D410384622F8D85FFFF7A5FD08BB2246FE
:10CCC00004F19301C4F8DC1007F13C0022F8E05FA6
:10CCD000FFF799FDA8B9A369A4F848304FF4807311
:10CCE0000125A4F8503063692064014684F83C5063
:10CCF000636404F13C0204F15400FFF778FF00B9CB
:10CD00002570F8BD0E20FCE70720FAE7F8B5077894
:10CD100004460D46002F00F0F58000F1EA06817010
:10CD200007220021304601F097F9E38813B1A37878
:10CD3000012B04D0E3794BB1A378022B06D1636BAE
:10CD4000A3B1012284F8F12008209847334604F16A
:10CD5000F00113F8012F12B98B42FAD117466B1E5E
:10CD6000032B4FD8DFE803F0050B0F1284F8F130E6
:10CD7000ECE7A3791BB194F8243003B94FB9E379F8
:10CD80000BB1002F40D1237A002B3FD1657AAD0043
:10CD9000EDB2636BA570002B3AD0033D012D37D85F
:10CDA0006279AAB394F8F22092BB84F8F4200122AD
:10CDB00084F8F3200720984704F13C05182200214D
:10CDC000284601F049F9E36A591E0122022928BFC9
:10CDD000134684F8513094F8243084F83C2033B161
:10CDE000A36A591E022928BF134684F85230A2783C
:10CDF000002384F85030042A1BD8DFE802F06B0DC2
:10CE0000223250000025C4E70225C2E70325C0E70F
:10CE1000002384F8F330CFE7C4E91063C4F8E430AA
:10CE20000223012284F83C30802384F83120A4F8C6
:10CE30004830A378002B50D1636B002B5ED10020CB
:10CE40005BE0022384F83130032384F83C3023690B
:10CE5000A4F848300023C4F8E430E368266463642F
:10CE6000E7E763696364A369A4F8483063797BB139
:10CE700094F8F23063B994F8F4304BB1022384F89B
:10CE8000503004212046FFF7B6FE0028D1D10522FC
:10CE900004F1D40384F83120C4F8E430C9E7E3692D
:10CEA0006364236AA4F848306379002BF0D094F8C7
:10CEB000F230002BECD194F8F430002BE8D00223B0
:10CEC00084F8503004212046FFF795FE0028B0D1A9
:10CED0000622DDE784F83130ABE7D4F8E4102A46C7
:10CEE00004F15400FFF783FE38B994F8301094F839
:10CEF0005400FFF77EFE00289ED0F8BD94F8310064
:10CF000098479CE70820F8E710B50388112B0C46DA
:10CF10000AD0262B1FD0102B05D1C27B8388012A73
:10CF200001D1A1F8E83010BD002381F8F2308288E9
:10CF3000B1F8E8309A42F6D10B79002BF3D10121F8
:10CF40002046FFF7E3FE0028EDD0A36B002BEAD0CC
:10CF5000BDE810401847037A013B012BE3D88978DC
:10CF600005230131B1FBF3F303EB8303C91AC9B203
:10CF7000E6E775DF704776DF70477ADF70477BDF63
:10CF800070470000034B1A8882420CBF18460020ED
:10CF9000704700BF382E0020024B9B6903B1184731
:10CFA000704700BF1C2E002073B585B22846FFF7DE
:10CFB000E9FF044668B1174E027A337B9A4211D2D8
:10CFC00000F10A012846FFF7D4FF20B9237A013384
:10CFD000237202B070BD1128FBD002B0BDE87040D2
:10CFE000FFF7DABF00230372337C43B13B212846AD
:10CFF000FFF7C1FF30F0080301D0FFF7CDFF7369E1
:10D00000002BE6D000228DF80420ADF8065001A8D0
:10D010009847DEE71C2E002013B50B46497A0246DE
:10D020000E4871B9D0E90141187A002808BF21469D
:10D030005868FCF779FE78B102B0BDE81040FFF700
:10D04000ABBF00211972436933B101218DF804107F
:10D05000ADF8062001A8984702B010BD1C2E002094
:10D060004B8802889A4212D842889A420FD380880D
:10D070008B8840F2F311884294BF021A421A9A42F6
:10D0800005D80844984234BF002001207047002092
:10D090007047000070B50388122B014659D004D8A0
:10D0A000102B1ED0112B44D070BD502BFCD12F4B18
:10D0B000C288DB899A42F7D1038A022BF4D1868891
:10D0C0003046FFF75FFF05460028EDD001F1120062
:10D0D00000F071F938BB6868FCF754FE0028E3D013
:10D0E0000AE0C37B8688012BDED14FF6FF70FFF785
:10D0F00049FF054620B90420BDE87040FFF74CBF4A
:10D100001B4A0680002303721368C0F80A30536874
:10D11000C0F80E3010310A30FFF7A2FF134B6872CF
:10D12000DB89002BC0D129463046BDE87040FFF7AF
:10D1300073BF8088FFF726FF04460028B4D04068FC
:10D14000FCF720FE08B1FFF727FF4FF6FF7323809F
:10D15000AAE786883046FFF715FF05460028A3D0CA
:10D1600008310A30FFF77CFF6872DCE71C2E0020D4
:10D17000142E0020F8B5064648B305460FCD154FCE
:10D180003C460FC495E8070084E807003068124C5D
:10D190003C60B0B1FFF7F1FE90B9326813682360CC
:10D1A000536863600D480E4A4FF6FF7303800D4BC2
:10D1B00040F8043F0021FCF7A5FD002818BF03201C
:10D1C000F8BD2046FFF7DBFE0028EBD0F8E70E2085
:10D1D000F6E700BF1C2E0020142E0020382E002061
:10D1E000A9CF0100502E00200AB1FDF7E3B8FDF7EA
:10D1F000EAB873B50191019C06466CB100252C4636
:10D20000294601A8FDF7E9F818B106EB44030134FB
:10D210009D800135142DF3D13046346002B070BDCD
:10D220002DE9F04303888488103B8DB00A2B1ED86B
:10D23000DFE803F006361D1D1D1D1D1D1D5B3D0095
:10D240002E4FBB68DB43009379686846FDF7F1F821
:10D25000009901A8FFF7CDFF0DF106080026019BFC
:10D260009E4207D3132C12D90420FCF771FC0DB099
:10D27000BDE8F08338F8029F00250135494607EBE9
:10D280008500FDF7A0F81E2DF7D10136E7E721460E
:10D290001B48FDF78FF81B482146FDF78BF8E6E7A2
:10D2A000174821460DB0BDE8F043FDF78CB8027A6F
:10D2B00015483F2A4FEA1215214694BF0022012249
:10D2C000FFF792FF022D94BF002201220F48214652
:10D2D000FFF78AFF012D0E4894BF0022012221464C
:10D2E0000DB0BDE8F043FFF77FBF037A002BBED13E
:10D2F000427A0548C2F3C0022146F1E7702E0020B1
:10D30000782E0020742E0020882E0020842E0020ED
:10D31000802E00201328014602D80248FDF75DB890
:10D3200000207047742E002010B50446FFF7F2FF6E
:10D33000002814BF2046142010BD70B505461646BF
:10D3400008460AB90E2070BD00231360002DF9D0E5
:10D350002B68002BF6D0EB8813F003040ED1FFF7F7
:10D36000E3FFC0B214280BD02B7983420AD9EA8894
:10D370002B6800FB023333602046E4E70720E2E736
:10D380000520E0E70420DEE7AADF7047002301382C
:10D390000B70042806D8DFE800F00306080A0C002A
:10D3A00011230B7070472123FBE73123F9E7122388
:10D3B000F7E72223F5E7008800F001007047F0B599
:10D3C0008B7891B0012B0C4638BF01238DF80E30BD
:10D3D00005460B88ADF80C3000211646684603223E
:10D3E00000F03AFE607C6946FFF7D0FFA07C0DF1AB
:10D3F0000101FFF7CBFF227D237B013202F0030204
:10D4000043EA4203E27B43EAC203227C43EA02137B
:10D410009DF8022003F01F0322F01F021343002196
:10D420001C2209A88DF8023000F016FE637B13F071
:10D43000300F15D002AF03220021384600F00CFE59
:10D44000E07C0DF10901FFF7A1FF11238DF80830F1
:10D450009DF80A300E97012262F342038DF80A30DC
:10D46000637B8DF824301422A37B8DF825300021B6
:10D4700004A800F0F1FD03AB0493A388ADF81C30C1
:10D48000A368CDF814D01BB1E288ADF8182008933A
:10D49000A36973B301AF03220021384600F0DCFD1D
:10D4A000A2691388ADF82C305388ADF82E3053683C
:10D4B0000D97107B0A933946FFF768FF0DF10501C0
:10D4C000507BFFF763FF937B117A013303F0030373
:10D4D00041EA4301937A41EAC301D37A41EA031155
:10D4E0009DF8063001F01F0123F01F0319438DF84A
:10D4F0000610E36903B10C93334604AA09A9284630
:10D50000FFF742FF11B0F0BDA5DF7047B5DF7047F0
:10D5100058B14FF0F7130360FB230371F723C38067
:10D520001723C1608360002070470E207047000001
:10D5300013B5034680880C4690B91A883A2A65D0FC
:10D5400010D8102A3AD0112A5BD0A37A43B1E188CF
:10D550000020FFF7D9FF002870D14FF4807363815A
:10D5600002B010BD552AF0D1DB88C988A072172BF4
:10D5700038BF17238B4228BF0B462381FFF7C6FF16
:10D5800060B1FDF7A9FA3649364B5B1ADB081B047C
:10D590000246354943F00100FCF7AAF9E37A002B73
:10D5A000D3D1E368002BD0D040F6772200922289B5
:10D5B000ADF80420694620469847C6E7DB7B012B7F
:10D5C00004BF0B88CB80C98823898B42BDD2002041
:10D5D000FFF79AFF10B90123E372B6E7112802D1D1
:10D5E0000123A372B1E7FDF777FA1D491D4B5B1AC2
:10D5F000DB081B0402461D4943F00100FCF778F9E3
:10D60000A3E7F723CB8017238B609EE75B89CA884B
:10D61000934228BF1346172BCA6838BF17230B81C4
:10D620004AB1C97A39B140F677210091ADF804309A
:10D630006946204690470023638186E711288FD0F2
:10D64000FDF74AFA0649074B5B1ADB081B0407493A
:10D65000024643F0010002B0BDE81040FCF748B9B3
:10D6600024F501007CF5010013EE0100E2ED01005C
:10D67000B0DF704766DF704710B500210446408870
:10D68000FFF7F8FF034608B9237210BD112801D136
:10D690000123F9E76368BDE81040184760B159B14C
:10D6A0000378DE2B0AD00B684360DE2303704FF64D
:10D6B000FF734380002070470E207047082070479A
:10D6C00028B10378DE2B04D14180002070470E2062
:10D6D000704708207047F0B5054685B00C46002914
:10D6E00042D0002840D00B78DE2B3DD182884B8879
:10D6F0009A4204D10B7A13B10846FFF7BDFF2B887D
:10D70000112B33D0512B0FD0012B2DD12B7AAA887E
:10D71000012B29D16188914226D12046237205B080
:10D72000BDE8F040FFF7A8BFAB8866889E421BD1DA
:10D73000AF79022F18D1AD7B2B1F022B14D80021FB
:10D740001022684600F088FC052D14BF4FF4C0730A
:10D750000023694630468DF80070ADF80430FFF7BD
:10D7600087FF08B16368984705B0F0BD6388AA8851
:10D770009A4204BF4FF6FF736380F5E7A8DF704756
:10D78000ADDF7047AEDF704762DF704770B50546AA
:10D790008AB00C46002962D0002860D00388502B44
:10D7A00037D0572B70D0102B59D181886069002653
:10D7B00001AA0196FFF7C1FD082231460DEB0200D8
:10D7C00000F04AFC02232189A888CDF80CD002AAD7
:10D7D0000293FFF7D5FF002841D1A369002B3ED06B
:10D7E0000398FFF7E8FD002839D0019B0BB1012217
:10D7F0001A701822002104A800F02EFC02238DF8D4
:10D800001030AB88ADF81830019B05940793A369DD
:10D8100023E08188606902AAFFF78FFD18220021AA
:10D8200004A800F019FCAB882189ADF81830EB880A
:10D83000029A05949942079216D12E8A022E13D18C
:10D840006AB105F11200FFF7B6FD029B48B1012253
:10D850001A70A3698DF810600BB104A898470AB03C
:10D8600070BD18700326F4E7A2899A42F7D1A36924
:10D87000002BF4D000228DF8102005F1120208923E
:10D880002A8AADF82420E8E78188606902AAFFF7B8
:10D8900054FD01460028E2D1029B1B78002BDED00C
:10D8A000A369002BDBD0182204A800F0D5FB0123CC
:10D8B0008DF81030AB88ADF818300594029BA5E7C1
:10D8C000F0B53A4B8FB002AD04460A4603F1100C96
:10D8D0002F46186859682E4603C6083363453546F7
:10D8E000F7D1002C5FD0002A5DD01368A3612146D8
:10D8F0003846FFF749FF002853D12246012512F888
:10D90000023B8DF8063001A92846ADF80450FFF718
:10D9100035FF002845D10146202206A800F09CFBD7
:10D9200022460223ADF8183012F80C3B8DF81A305D
:10D93000BDF824301E4E6088079623F44F6323F011
:10D940000F0343F440632B4306A9ADF824308DF850
:10D9500029508DF82A50FFF732FD10BB01462022D6
:10D9600006A800F079FB22460323ADF8183012F820
:10D97000043B8DF81A30BDF824306088079623F4F4
:10D98000875323F01F0343F480532B43ADF8243017
:10D9900006A940F201138DF82950ADF82A30FFF79F
:10D9A0000EFD0FB0F0BD0E20FBE700BFF6F2010048
:10D9B000F4000100F0B50F4687B016461C46054638
:10D9C00018B3406901AA1946FFF7B7FCD8B94FF65A
:10D9D000FF739C421BD0019BCBB11B78CBB133882A
:10D9E000F42B18D80146102202A800F035FBAB88B2
:10D9F000ADF8083002A901232046CDE904678DF86F
:10DA00000A30FFF7BFFE07B0F0BD0E20FBE7052090
:10DA1000F9E70820F7E70720F5E710DF7047000077
:10DA200013B5044609496846FDF701F8019808B99D
:10DA300002B010BDD0E900312046984718B16846C1
:10DA4000FCF7FEFFF2E71120F2E700BF20F3010030
:10DA500013B5044607496846FCF7E9FF019B0BB97B
:10DA600002B010BD2046D3E9002190476846FCF77C
:10DA7000E7FFF3E714F301000B4991F81623EC23B9
:10DA800052091341DB0706D5084B9A683AB94FF49F
:10DA900080030B60704742F20200FCF759B81A6825
:10DAA00042F480021A60704700E100E03029002053
:10DAB000F7B5194F3C7864BB184E012520463570E8
:10DAC000FFF7AEFF112821D02046FFF7C1FF144B0E
:10DAD0008DF80340186801900DF10300FCF75CFA23
:10DAE000104901A8FFF799FF0446B0FA80F04009F9
:10DAF00038709DF80300FCF773FA3CB90A4B347098
:10DB00001C70FFF7B9FF2846FFF7A2FF204603B0BD
:10DB1000F0BD0824FAE700BFEE2E0020EC2E002016
:10DB20002CF3010005B60100ED2E0020014B187802
:10DB3000704700BFEE2E002007B508496846FCF785
:10DB400076FF019B13B903B05DF804FBD3E9002015
:10DB500090476846FCF774FFF3E700BF08F3010045
:10DB6000FFF7EABF60DF704769DF704761DF70472A
:10DB700030B5134DADF5017D4FF4FA740DF102018E
:10DB800003A8ADF80240FFF7F1FF70B9294601A8DC
:10DB9000FCF74DFF029B002BF0D003A8D3E9002136
:10DBA000904701A8FCF74CFFF4E7052805D00DF5D8
:10DBB000017DBDE83040FBF7CBBF0DF5017D30BDE9
:10DBC00030F30100024B1B780BB1FFF7D1BF704758
:10DBD000EF2E002030B5054685B00C46002900F038
:10DBE000B180594B0B600C22002101A800F034FADF
:10DBF00001238DF8063022688DF80450062301A910
:10DC00002020ADF80830FFF7AFFF60B1FCF764FFEC
:10DC10004E494F4B5B1ADB081B0402464D4943F04B
:10DC20000100FBF765FE0C22002101A800F014FAA8
:10DC3000012322688DF8053001A94020FFF794FFE9
:10DC400060B1FCF749FF4149414B5B1ADB081B04FB
:10DC50000246414943F00100FBF74AFE0C22002135
:10DC600001A800F0F9F9F72322688DF8045001A902
:10DC70002320ADF80630FFF777FF60B1FCF72CFFEB
:10DC80003249334B5B1ADB081B040246334943F02D
:10DC90000100FBF72DFE0C22002101A800F0DCF9A9
:10DCA000012022688DF8040001A9FFF75DFF60B133
:10DCB000FCF712FF2549264B5B1ADB081B040246C2
:10DCC000274943F00100FBF713FE0C22002101A8B5
:10DCD00000F0C2F94FF4B0632268019301A9A120BA
:10DCE000FFF742FF60B1FCF7F7FE1849184B5B1ACB
:10DCF000DB081B0402461B4943F00100FBF7F8FD5B
:10DD00000C22002101A800F0A7F99DF80430226838
:10DD100023F0010301A9A0208DF80430FFF724FFB0
:10DD200010B9002005B030BDFCF7D6FE0749084BFE
:10DD30005B1ADB081B0402460B4943F00100FBF7AA
:10DD4000D7FDEEE70E20EDE7C822002024F5010004
:10DD50008CF501005FEE0100A5EE0100F1EE01007F
:10DD600038EF010084EF0100D5EF0100F8B5064659
:10DD70000768FFF7F7FE3368BB4205461DD9194B0C
:10DD8000194C1A49E41AE408240444F00204204619
:10DD9000FBF7AAFD336816493A462046FBF7B1FD6A
:10DDA0004FF080533268D3F80C3112499B0203F1D3
:10DDB00000539A1A2046FBF79BFD25B90E4B012212
:10DDC0001A702846F8BD2846FCF786FE0549064B22
:10DDD0005B1ADB081B040246084943F00100FBF70D
:10DDE00087FDEEE724F501008CF5010028F0010025
:10DDF00057F0010088F00100EF2E0020B2F0010082
:10DE00004BDF70471FB50E4C01A8FFF7F9FF70B943
:10DE1000214602A8FCF70BFE039B002BF4D00198CF
:10DE2000D3E90021904702A8FCF70AFEF4E7052891
:10DE300004D004B0BDE81040FBF78ABE04B010BDAA
:10DE40003CF3010080EA0102844612F0030F4FD137
:10DE500011F0030F32D14DF8044D11F0040F51F8B9
:10DE6000043B0BD0A3F101329A4312F0803F04BF70
:10DE70004CF8043B51F8043B16D100BF51F8044B59
:10DE8000A3F101329A4312F0803FA4F101320BD189
:10DE90004CF8043BA24312F0803F04BF51F8043B0E
:10DEA0004CF8044BEAD023460CF8013B13F0FF0F6B
:10DEB0004FEA3323F8D15DF8044B704711F0010F9E
:10DEC00006D011F8012B0CF8012B002A08BF70476F
:10DED00011F0020FBFD031F8022B12F0FF0F16BF66
:10DEE0002CF8022B8CF8002012F47F4FB3D170472E
:10DEF00011F8012B0CF8012B002AF9D1704700BF53
:10DF000070B50F4B0F4DAB42A3EB050607D0B61013
:10DF1000002455F8043B01349847A642F9D800F094
:10DF200013FC094D094B5E1BAB424FEAA60606D017
:10DF3000002455F8043B01349847A642F9D870BD37
:10DF40005023002050230020502300205423002081
:10DF500000000000000000000000000000000000C1
:10DF600000000000000000000000000000000000B1
:10DF700000000000000000000000000000000000A1
:10DF800030B490F800F020F007016FF0000C10F0B2
:10DF9000070491F820F040F048804FF000046FF043
:10DFA0000700D1E9002391F840F000F1080082FA5F
:10DFB0004CF2A4FA8CF283FA4CF3A2FA8CF34BBB2A
:10DFC000D1E9022382FA4CF200F10800A4FA8CF2A3
:10DFD00083FA4CF3A2FA8CF3E3B9D1E9042382FA71
:10DFE0004CF200F10800A4FA8CF283FA4CF3A2FA86
:10DFF0008CF37BB9D1E9062301F1200182FA4CF2BE
:10E0000000F10800A4FA8CF283FA4CF3A2FA8CF324
:10E01000002BC6D0002A04BF04301A4612BAB2FA46
:10E0200082F200EBD20030BC7047D1E9002304F04B
:10E030000305C4F100004FEAC50514F0040F91F880
:10E0400040F00CFA05F562EA05021CBF63EA05031D
:10E0500062464FF00004AAE7830730B547D0541E4C
:10E06000002A3ED0CAB2034601E0013C39D303F88E
:10E07000012B9D07F9D1032C2CD9CDB205EB052539
:10E080000F2C05EB054535D9A4F1100222F00F0C39
:10E0900003F1100EE6444FEA121C1A46C2E900557D
:10E0A000C2E9025510327245F8D10CF1010214F0A8
:10E0B0000C0F03EB021204F00F0C13D0ACF10403AD
:10E0C00023F003030433134442F8045B9342FBD16F
:10E0D0000CF003042CB1C9B21C4403F8011BA34289
:10E0E000FBD130BD64461346002CF4D1F9E703465A
:10E0F0001446C0E71A46A446E0E700BF844641EA5A
:10E10000000313F003036DD1403A41D351F8043BAF
:10E1100040F8043B51F8043B40F8043B51F8043B01
:10E1200040F8043B51F8043B40F8043B51F8043BF1
:10E1300040F8043B51F8043B40F8043B51F8043BE1
:10E1400040F8043B51F8043B40F8043B51F8043BD1
:10E1500040F8043B51F8043B40F8043B51F8043BC1
:10E1600040F8043B51F8043B40F8043B51F8043BB1
:10E1700040F8043B51F8043B40F8043B51F8043BA1
:10E1800040F8043B51F8043B40F8043B403ABDD210
:10E19000303211D351F8043B40F8043B51F8043BB2
:10E1A00040F8043B51F8043B40F8043B51F8043B71
:10E1B00040F8043B103AEDD20C3205D351F8043B41
:10E1C00040F8043B043AF9D2043208D0D2071CBF0D
:10E1D00011F8013B00F8013B01D30B880380604636
:10E1E000704700BF082A13D38B078DD010F00303AC
:10E1F0008AD0C3F10403D21ADB071CBF11F8013B1C
:10E2000000F8013B80D331F8023B20F8023B7BE76A
:10E21000043AD9D3013A11F8013B00F8013BF9D295
:10E220000B7803704B7843708B788370604670472F
:10E2300008B5064B044613B1002100F0A9F8044BC1
:10E240001B6803B19847204600F004F991E30100F0
:10E2500028300020002301461A46184600F042B834
:10E26000032A30B415D941EA0004A40784460B46BA
:10E2700004D0541E0FE0043A032A08D91946604618
:10E2800053F8044B5CF8045BA542F4D0F1E7604618
:10E290001946541E7AB1431E0139021901E09A420F
:10E2A00009D013F8010F11F801CF6045F7D0A0EBAA
:10E2B0000C0030BC7047002030BC704738B5074DAB
:10E2C000074C2C1BA41005D0013C55F8043D984781
:10E2D000002CF9D1BDE8384000F03CBA58230020AA
:10E2E00054230020F0B5264C256883B006460F461F
:10E2F00005B36C681F2C3FDCA6B1D5F8880048B385
:10E30000D0F8001140F824204FF0010C0CFA04FC66
:10E3100000EB84024CEA0101022EC0F80011C2F8A1
:10E32000803010D0A31C01346C6045F823700020AD
:10E3300003B0F0BD13481449216010B10068C1F862
:10E340008800114DD5E7D0F8043143EA0C03C0F83A
:10E350000431E7E70D49CDE9002369B14FF484703A
:10E36000AFF3008040B10021C0E94011DDE9002396
:10E370006C68C5F88800C5E74FF0FF30D8E700BFEC
:10E38000B8300020000000002C3000200000000009
:10E390002DE9F04FDFF8B890D9F8006083B0002E77
:10E3A00034D0884601907568D6F888706C1E2DD4DC
:10E3B000013506EB850507F1800BB8F1000F28D178
:10E3C00073682A68013BA34216BF002374602B6068
:10E3D000BAB1D6F804A06FB3D7F800110123A34057
:10E3E0000B4227D0D7F8040157F8241003422BD151
:10E3F000019890477368D9F80020534520D1B24264
:10E400001ED1013C631CA5F10405D6D103B0BDE8C3
:10E41000F08F57B15BF824304345D1D0013C621CEA
:10E42000A5F10405F2D0002FF4D1013CEED3013C5C
:10E43000FBD2EBE790477368D9F800205345DED054
:10E44000002AE3D01646AEE708469047D2E700BF61
:10E45000B8300020FEE700BF53B94AB9002908BF11
:10E4600000281CBF4FF0FF314FF0FF3000F06AB9B9
:10E47000ADF1080C6DE904CE00F006F8DDF804E01B
:10E48000DDE9022304B070472DE9F047089D0E46F0
:10E4900004460F46002B4AD194468C45B2FA82F2CC
:10E4A00060D942B1C2F12003974020FA03F30CFA7D
:10E4B00002FC1F4394404FEA1C4E1FFA8CF6B7FB38
:10E4C000FEF1230C0EFB117743EA074301FB06F034
:10E4D00098420AD91CEB030301F1FF3780F0158144
:10E4E000984240F21281023963441B1AA4B2B3FB72
:10E4F000FEF00EFB103344EA034400FB06F6A6428E
:10E500000AD91CEB040400F1FF3380F00081A6421D
:10E5100040F2FD806444023840EA0140A41B00211F
:10E520001DB1D4400023C5E90043BDE8F0878B420C
:10E5300005D90DB1C5E9000100210846F5E7B3FA98
:10E5400083F1002946D1B34202D3824200F2F58022
:10E55000841A66EB030201201746002DE5D0C5E9B9
:10E560000047E2E7002A40F09380A1EB0C034FEA5A
:10E570001C471FFA8CFE0121B3FBF7F607FB163090
:10E58000230C43EA00430EFB06F0984208D91CEB2B
:10E59000030306F1FF3802D2984200F2D0804646CB
:10E5A0001B1AA4B2B3FBF7F007FB103344EA034491
:10E5B0000EFB00FEA64508D91CEB040400F1FF3356
:10E5C00002D2A64500F2B6801846A4EB0E0440EA3B
:10E5D0000640A5E7C1F120078B4022FA07FC4CEA70
:10E5E000030C06FA01FE20FA07F426FA07F344EAC0
:10E5F0000E0400FA01F84FEA1C404FEA1449B3FB3D
:10E60000F0FE1FFA8CF600FB1E3349EA03430EFBB3
:10E6100006F9994502FA01F20BD91CEB03030EF13E
:10E62000FF3A80F08580994540F28280AEF1020E7B
:10E630006344A3EB0909A4B2B9FBF0F300FB1399FF
:10E6400044EA094403FB06F6A64208D91CEB04047D
:10E6500003F1FF3068D2A64266D9023B644443EA24
:10E660000E40A41BA0FB02E6B4427346B14652D34F
:10E670004FD05DB1B8EB030264EB090404FA07F76D
:10E6800022FA01F31F43CC40C5E9007400214CE796
:10E69000C2F1200120FA01F30CFA02FC26FA01F182
:10E6A000964033434FEA1C471FFA8CFEB1FBF7F04C
:10E6B00007FB1016190C41EA064100FB0EF68E42CC
:10E6C00004FA02F408D91CEB010100F1FF382DD245
:10E6D0008E422BD902386144891B9BB2B1FBF7F6FD
:10E6E00007FB161143EA014306FB0EF1994208D9D4
:10E6F0001CEB030306F1FF3814D2994212D9023EF3
:10E7000063445B1A46EA004136E73946EDE61846AF
:10E7100002E7F045ADD2BEEB020366EB0C06013812
:10E72000B146A6E74646ECE7034698E74046D3E7FE
:10E73000D6467EE76444023847E708460DE7023EC6
:10E7400063442DE7704700BFF8B500BFF8BC08BCB4
:10E750009E467047F8B500BFF8BC08BC9E4670479F
:10E760000338FDD87047000065930100D193010084
:10E77000619301007274745F6C6F675F6261636BB9
:10E78000656E64004261636B656E647320666C75D0
:10E790007368656400617070001B5B306D002573E9
:10E7A000001B5B313B33316D0025734C6F67732069
:10E7B00064726F70706564202825642925730D0AC2
:10E7C000003C25733E2025733A2000202530327806
:10E7D00000202020007C002563001B5B313B333090
:10E7E0006D001B5B313B33326D001B5B313B3333C0
:10E7F0006D001B5B313B33346D001B5B313B3335AC
:10E800006D001B5B313B33366D001B5B313B333797
:10E810006D006572726F72007761726E696E67006B
:10E82000696E666F006465627567006170705F6233
:10E830007574746F6E006170705F74696D657200DD
:10E8400052544320696E7374616E636520616C720B
:10E850006561647920696E697469616C697A65645F
:10E860002E005254433A20696E697469616C697A6A
:10E8700065642E007077725F6D676D7400736F72E0
:10E88000746C697374004E52465F5355434345534D
:10E8900053004E52465F4552524F525F5356435FAC
:10E8A00048414E444C45525F4D495353494E4700F1
:10E8B0004E52465F4552524F525F534F4654444565
:10E8C000564943455F4E4F545F454E41424C454487
:10E8D000004E52465F4552524F525F494E54455288
:10E8E0004E414C004E52465F4552524F525F4E4F82
:10E8F0005F4D454D004E52465F4552524F525F4E5E
:10E900004F545F464F554E44004E52465F4552525B
:10E910004F525F4E4F545F535550504F52544544E1
:10E92000004E52465F4552524F525F494E56414C3F
:10E9300049445F504152414D004E52465F4552524C
:10E940004F525F494E56414C49445F5354415445E0
:10E95000004E52465F4552524F525F494E56414C0F
:10E9600049445F4C454E475448004E52465F45521D
:10E97000524F525F494E56414C49445F464C4147C5
:10E9800053004E52465F4552524F525F494E5641D8
:10E990004C49445F44415441004E52465F455252F7
:10E9A0004F525F444154415F53495A45004E5246CD
:10E9B0005F4552524F525F54494D454F5554004E9A
:10E9C00052465F4552524F525F4E554C4C004E528C
:10E9D000465F4552524F525F464F5242494444456A
:10E9E0004E004E52465F4552524F525F494E56417D
:10E9F0004C49445F41444452004E52465F45525296
:10EA00004F525F42555359004E52465F4552524F46
:10EA1000525F434F4E4E5F434F554E54004E524649
:10EA20005F4552524F525F5245534F5552434553E3
:10EA3000004E52465F4552524F525F4D4F44554C27
:10EA4000455F4E4F545F494E495449414C495A45E0
:10EA500044004E52465F4552524F525F4D55544509
:10EA6000585F494E49545F4641494C4544004E5217
:10EA7000465F4552524F525F4D555445585F4C4F7B
:10EA8000434B5F4641494C4544004E52465F455218
:10EA9000524F525F4D555445585F554E4C4F434B66
:10EAA0005F4641494C4544004E52465F4552524FE5
:10EAB000525F4D555445585F434F4E445F494E4950
:10EAC000545F4641494C4544004E52465F455252C0
:10EAD0004F525F4D4F44554C455F414C5245414468
