:020000021000EC
:1090000000600020F99201004D9301004F93010090
:10901000519301005393010055930100000000009B
:109020000000000000000000000000005793010055
:1090300059930100000000005B9301005D93010063
:10904000D5AF01005F93010015C0010065B50100B7
:109050005F93010000000000C9BE010041B10100A2
:109060005F9301005F9301005F9301005F93010034
:109070005F9301005F9301005F9301005F93010024
:1090800025B0010091A201005F9301005F930100F0
:109090005F9301005F93010079EB01005F93010092
:1090A0005F9301005F9301000000000000000000DA
:1090B0005F9301005F9301000000000000000000CA
:1090C00000000000000000000000000000000000A0
:1090D0000000000000000000000000000000000090
:1090E0000000000000000000000000000000000080
:1090F0000000000000000000000000000000000070
:10910000000000000000000000000000000000005F
:10911000000000000000000000000000000000004F
:10912000000000000000000000000000000000003F
:10913000000000000000000000000000000000002F
:10914000000000000000000000000000000000001F
:10915000000000000000000000000000000000000F
:1091600000000000000000000000000000000000FF
:1091700000000000000000000000000000000000EF
:1091800000000000000000000000000000000000DF
:1091900000000000000000000000000000000000CF
:1091A00000000000000000000000000000000000BF
:1091B00000000000000000000000000000000000AF
:1091C000000000000000000000000000000000009F
:1091D000000000000000000000000000000000008F
:1091E000000000000000000000000000000000007F
:1091F000000000000000000000000000000000006F
:109200000348044B834202D0034B03B11847704715
:109210005823002058230020000000000548064B7A
:109220001B1AD90F01EBA301491002D0034B03B164
:1092300018477047582300205823002000000000E2
:1092400010B5064C237843B9FFF7DAFF044B13B18E
:109250000448AFF300800123237010BD5823002081
:1092600000000000E802020008B5044B1BB10449ED
:109270000448AFF30080BDE80840CFE700000000DD
:109280005C230020E8020200A3F5803A704700BF8B
:10929000154B002B08BF114B9D46FFF7F5FF002132
:1092A0008B460F461148124A121A05F075FE0C4BF8
:1092B000002B00D098470B4B002B00D09847002084
:1092C000002104000D000B4805F064FF05F0CAFD05
:1092D0002000290003F078F905F04AFF000008009B
:1092E0000000000000000000006000205823002063
:1092F00064300020FDF101000E4800680E49096845
:109300000A280AD1002908D10C4802686FF07003BE
:109310001A404FF040031A4302600949094A0A4BB8
:109320009B1A03DD043BC858D050FBDC01F01CFC49
:10933000FFF7AEFF3001001034010010E40E0040D2
:1093400070040200C822002058230020FEE7FEE738
:10935000FEE7FEE7FEE7FEE7FEE7FEE7FEE7FEE7E5
:109360007047000007B5044B0093044A402300F007
:1093700030F803B05DF804FB8193010074230020F2
:109380002DE9F84388461446B2B10F4B0F4E032522
:10939000002743F00109224608EB0701002004F0F2
:1093A00097F90744241A48B933782BB14FF47A401F
:1093B000C847013D02D13570BDE8F8830123337001
:1093C000002CE8D1F8E700BF40F70100B4230020EB
:1093D0007047F0B595B01D46164608460C4601F09C
:1093E00000FB1A9B0D93CDE9086500252B4608224A
:1093F00005A920460A958DF82C500C9501F00DFB1F
:10940000079B0293069B03939DF814308DF811502F
:1094100003F00302012A1DD1BDF81420059DC3F3FA
:10942000C203C2F383168DF81030B20008230EA9D0
:10943000204601F0F2FAC5F3952508AB00933246B9
:1094400002AB0EA9284600F0C1FA204601F0CDFA81
:1094500015B0F0BD022AF8D1BDF81650C3F3C2030F
:10946000C5F389158DF810300827082D2E4628BF22
:1094700008263B4632460EA9204601F0CEFAAD1B27
:1094800008AB02AA31460EA8374400F003FB002DBA
:10949000EBD1DAE7037813F0040215D003F00303ED
:1094A000012B03D0022B09D0012070470B680288E2
:1094B0000233C2F3831213440B60F5E70B68428852
:1094C000023303EB9213F7E7104670472DE9F04F94
:1094D000434C87B0884600230546871C0DF10700E2
:1094E00016468DF8073000F057FD6268C8F8002076
:1094F000A36803F580739B1A04F21C4804F5836A81
:1095000004F21449BB4218D30021002E64D005F0A8
:109510000F05AD0145F0050565F30F0163689DF882
:109520000700DAB203323B4444F82210636000F0D3
:1095300057FD012007B0BDE8F08F0121404600F043
:1095400084FF504600F099FF484600F096FFA0685F
:109550000290C0B2033004EB800002A9FFF79AFF2B
:1095600020BB029BDAB204EB8202D16803919A1C01
:109570000133DBB204EB83030292D3F80CB001F0A9
:109580000303012B20D0022B13D08346484600F062
:1095900077FF08B1029BA3605946404600F055FF93
:1095A000A368626803F580739B1AABE79DF8080017
:1095B000D0E7BDF80E30C3F3891303334FEA1B4BDA
:1095C00002EB93030293E1E7BDF80C30C3F383137E
:1095D0004FEA1B4B1344F5E7AD0545F006019DE747
:1095E000B823002030B50A4C71B10A4A0A49121B4F
:1095F000D20800239A4201D1002030BD31F8235017
:10960000854202D00133F5E7034654F83300F4E70E
:10961000C00302005804020058230020094B0139FE
:1096200003EBC000032909D8DFE801F0020A0406B1
:1096300002207047007970474079704700207047DA
:1096400004207047C003020070470000034BD3E9B9
:109650000130C31A58425841704700BFB823002058
:109660002DE9F04387B0FFF7F1FF002874D1744C67
:10967000C4F81804BFF34F8FA0680290C0B2033043
:1096800004EB800002A9FFF705FF029B18B1D4F894
:109690001824002A5CD0DAB29F1C013304EB82024A
:1096A000DBB204EB8303D268DB68049302F00303AC
:1096B000022B0392029758D1BDF80E306148C3F3D4
:1096C00089184646502E28BF502666F38F1306F1A0
:1096D0000801ADF80E3001F058F90546002800F0F9
:1096E000998001F07EF9002303A90822284601F0A1
:1096F0008AF9FB43DBB20133F9B20331B6EB830FD6
:109700004FEA830904EB81012CD908234A46A6EBD2
:109710000906284601F077F9F6B24B4909F108032A
:10972000324608F10308284607EB980701F06BF969
:109730000297D4F81834D4F81064002B55D028467A
:1097400001F053F9FFF782FF80F00100C0B204E09E
:1097500062689A4204D8A260002007B0BDE8F08396
:10976000D8B28CE708233246DBE7012B52D1BDF893
:109770000C303448C3F38311062928BF062161F356
:109780008913023101F00F018900ADF80C3001F0AE
:10979000FCF8054600283DD001F023F900230822FB
:1097A00003A9284601F02FF90026BDF80C20C2F3CA
:1097B0008312B300B24203F10803BAD902994A1CDA
:1097C000C9B20331029204EB81010422284601F060
:1097D0001AF90136E9E7F3685B7923B13368294662
:1097E0001B6830469847F3681E68002EF3D1284660
:1097F00001F0FBF80DF107008DF8076000F0CCFBDD
:10980000D4F818340BB9029BA3609DF8070000F050
:10981000E7FB97E7D4F8104454B90C4B0C480D49BA
:10982000C01AC008000440F0020000F05DF889E7AB
:10983000236820469B689847E3681C68ECE700BFF4
:10984000B8230020AC030200C4230020C0030200A0
:109850000004020064F701002DE9F34704460E46B8
:10986000924601A9012218469946FFF72FFE1C4F88
:1098700010B3019D4FF00008AA1CC84508EB020177
:1098800025D11848002100F0B1FD80F3100000043C
:1098900040EA1440E4006B1C04F03804DBB2EDB283
:1098A00044F0010407EB8303033544EA881444EAD7
:1098B0008624D86047F825403B781BB1FFF7D0FEDF
:1098C0000028FBD1FFF7C0FE02B0BDE8F087C9B2A7
:1098D00007EB81015AF82830CB6008F10108CCE78A
:1098E000B8230020D427002000231A46FFF7B4BF76
:1098F00007B50123019201AAFFF7AEFF03B05DF89F
:1099000004FB07B5CDE9002302236A46FFF7A4FF55
:1099100003B05DF804FB000010B5037A052B0C467C
:109920000FD0437A23B1084A0849204600F0F6FDDB
:109930000749204600F0F2FD2046BDE8104000F047
:10994000E2BD002AF8D0F3E779F701007EF70100C5
:109950009EF7010073B5C38804460D4633B1144A1F
:1099600000921449144A284600F0D8FD217A0529AE
:109970001CD0637A4BB1A088FFF750FE0F4B104903
:1099800053F82020284600F0C9FD227A0D4BA0880C
:1099900053F822600021FFF725FE0B4903463246AB
:1099A000284602B0BDE8704000F0B8BD02B070BDFE
:1099B00079F7010089F7010081F7010064FF0100D8
:1099C0007EF7010088FF0100A1F701002DE9F043B7
:1099D00085B01F460C9D002395F80C902B7306460E
:1099E0000C46904629463846FFF7B4FFB8F1060FFB
:1099F00009D8DFE808F00412181F28334000314668
:109A0000284600F08BFD002229463846FFF784FFE8
:109A100085F80C9005B0BDE8F083226831462846F1
:109A200000F07CFDEFE7D4E900233146284600F042
:109A300075FDE8E7A3680093D4E900233146284682
:109A400000F06CFDDFE7E3680193A3680093D4E9BD
:109A500000233146284600F061FDD4E723690293D4
:109A6000E3680193A3680093D4E9002331462846B4
:109A700000F054FDC7E76369039323690293E36829
:109A80000193A3680093D4E900233146284600F0EF
:109A900045FDB8E708292DE9F84F80460E461746E0
:109AA0001C463BD8002593F80C901D7319461046B0
:109AB000FFF750FFDFF880A0DFF880B0AE422FD96B
:109AC00018F805205946204600F028FD0135082DDC
:109AD000F4D11B491B4DDFF870B0204600F01EFD8D
:109AE0004FF0000A564522D918F80A207E2A1CD8C1
:109AF0001BF8021011F0970F08BF2E2213492046C1
:109B000000F00CFD0AF1010ABAF1080FEAD10122B6
:109B100021463846FFF700FF84F80C90BDE8F88F27
:109B20005146204600F0FAFCD0E72E22E6E729460F
:109B3000204600F0F3FCE5E7B1F70100ABF70100C8
:109B4000B5F70100B3F70100E5010200B7F7010026
:109B50001FB50021039001AA44F20100CDE90111D3
:109B600002F026FD05B05DF804FB10B5D0E9024215
:109B7000D1E90203A04293412CBF0120002010BD77
:109B800008B50A4800F06DFB094AD2E90031C01857
:109B9000084BD3E9002341F10001904271EB03032C
:109BA00003D210F1807041F1000108BDD0220020E5
:109BB000202900201829002073B5294B1E7804465F
:109BC0001EB90026304602B070BD0028F9D0FFF75C
:109BD000D7FFD4E902239042994139D300230DF1F4
:109BE00007008DF8073000F0D7F923692BB94FF043
:109BF000FF324FF0FF33C4E902239DF8070000F065
:109C0000EFF9D4E90530984700250DF107008DF8EC
:109C1000075000F0C1F92369C3B1D4E90212B2F1CF
:109C2000FF3F08BFB1F1FF3F05D05B1842F10002D2
:109C3000C4E9023235469DF8070000F0D1F9002D45
:109C4000BFD00848214600F007FFBBE71D46F2E7FA
:109C5000B3F1FF3F08BFB2F1FF3FB2D0F1E700BF61
:109C6000282900209CFF010037B505460C460A480C
:109C700001A900F02AFB68B10570446001A90648FB
:109C800000F04DFB10B9002003B030BD034800F0D8
:109C9000EDFAF8E70420F7E7AC280020D0220020F6
:109CA00013B5114B11491868019008231048582228
:109CB00000F0F8FA044698B90E4A0F4801A900F0DE
:109CC000B1F9044660B90C48012100F0ABFA012358
:109CD0000A4A0948194600F007FA094B01221A708E
:109CE000204602B010BD00BFA8FF0100BC28002024
:109CF000AC280020E19D0100D0220020FFFF7F0062
:109D00002829002030B56AB103684FF0FF344FF0C6
:109D1000FF355A614A1E5142C3E90245514119615A
:109D2000002030BD0720FCE7F7B5044600250DF103
:109D3000070017460E468DF8075000F02DF9D4E9BC
:109D40000223B3F1FF3F08BFB2F1FF3F07D1FFF796
:109D500017FF301841F10001C4E9020101259DF807
:109D6000070000F03DF955B12369A76103B12661F1
:109D70002146002003B0BDE8F040FFF775BF28463C
:109D800003B0F0BD37B5054600240DF107008DF88E
:109D9000074000F001F9D5E90223B3F1FF3F08BF06
:109DA000B2F1FF3F06D04FF0FF324FF0FF33C5E96D
:109DB000022301249DF8070000F012F934B129466E
:109DC000012003B0BDE83040FFF74EBF204603B08E
:109DD00030BD0000014800F044BA00BFD02200208E
:109DE0002DE9F743064600F026FA40B1624AD2E96F
:109DF000003113F1807341F10001C2E9003100210B
:109E0000304600F028FA38B15C4C236823B1206852
:109E1000FFF7D2FE002323600121304600F01BFA39
:109E200020B1FFF7ADFE564BC3E900015548534F33
:109E300001A900F084FA4FF0FF344FF0FF35A0B9CC
:109E4000DFF844814D4D404600F01CFE002800F034
:109E50008980D0E90223B3F1FF3F08BFB2F1FF3F91
:109E600036D1404600F008FEEDE70378012B21D003
:109E7000022B09D1DFF81081404600F0FDFD20BB28
:109E8000424B01221A700CE05BB94168D1E9022310
:109E9000B3F1FF3F08BFB2F1FF3F02D03A4800F0F4
:109EA000DBFD01A9374800F075FA01A9354800F03B
:109EB00046FAC4E741683B68994202D100233B60FF
:109EC000EFE7314800F0E1FDEBE7C0E90245D3E7F9
:109ED000296891B12968D1E9020182428B412FD2D0
:109EE0002B68D3E90223B3F1FF3F08BFB2F1FF3F74
:109EF00003D02968404600F0AFFD404600F0BCFDAD
:109F0000D0E902490746FFF73BFE201A69EB010939
:109F1000012879F1000918DBB0F5350F13D3FFF7ED
:109F200059FF1B4A02441B484FF49603002100F0DE
:109F3000FFF890B92B6813B9304600F0CDF82F60C8
:109F400003B0BDE8F0832246EDE71248002100F09F
:109F500077F93846FFF730FE01E00D28F9D00023ED
:109F60002B6070E7054B1B68002BE9D1304603B02E
:109F7000BDE8F04300F0B4B8202900202C290020CF
:109F800018290020AC2800209CFF0100282900206F
:109F9000FFFFB400D022002070B5EFF3108672B638
:109FA0000C4A9468012384B993600B4B0B4DD3F892
:109FB000801029401160C3F88050D3F8841051609C
:109FC0004FF0FF32C3F884202346037006B962B60F
:109FD00070BD00BF3029002000E100E0FC06FFBD9D
:109FE00010B5084B9A685AB150B9EFF3108172B6A8
:109FF000054A1C6814605C685460986001B962B6D8
:10A0000010BD00BF3029002000E100E003464058A9
:10A0100082B028B100225A505B580193019B012065
:10A0200002B0704770B5244B4579244E43F8252083
:10A030000446234B234806EBC505C01AC308180481
:10A040002B7933B140F002001F49FFF74DFC082087
:10A0500070BD23680A88C3F8082594F904308A780B
:10A06000002B4FEA4212ADBF03F1604303F00F0330
:10A07000164903F56143B9BFD2B2CA54D2B283F8CC
:10A08000002394F90430002B08DB0122590903F066
:10A090001F0302FA03F30E4A42F82130637906EBFC
:10A0A000C3020121117140F003000A4946F8334010
:10A0B000FFF71AFC0020CBE7442900203C290020B0
:10A0C000C00302001004020020F8010014ED00E0BB
:10A0D00000E100E042F80100036801221A607047C5
:10A0E000036801225A607047F7B504684FF4803561
:10A0F0008D40C4F808530468C4F8485301F1500473
:10A10000A4000668A4B20027375134590194019C79
:10A11000046801F5A87122F07F4244F8212002680A
:10A12000C2F8445313B10368C3F8045303B0F0BD3D
:10A130002DE9F34799464FF48038036808FA01F88F
:10A14000C3F848830368C3F8088322F07F45026898
:10A150000E46D2F8041502EB860206F15007D2F83B
:10A160004035C2F84015BF000268BFB24FF0000A88
:10A1700042F807A05B1AD259009223F07F43012BCB
:10A18000009A04460BD1264B4FF4806043F0010344
:10A190009847236843F807A0DB590193019B236884
:10A1A000D3F80475C3F84483EB1B23F07F43012BE2
:10A1B00006F5A876236819D1013543F82650184BC7
:10A1C0004FF4806043F0010398472368D3F80435C7
:10A1D0009F4209D12368C3F8448323680020C3F851
:10A1E000048302B0BDE8F0870D20FAE743F826505B
:10A1F0002068D0F804156A1A013AC9F1FF1322F059
:10A200007F4203F57F439342EED3002AE2D101352A
:10A2100040F826502368D3F804359942D9E700BFA7
:10A22000B0FF010002680223C2F8443311B1026892
:10A23000C2F80433704700684FF48271FFF7E6BE3E
:10A240004FF4803303FA01F10368C3F8481303683D
:10A25000C3F80813704750318900006889B2FFF7CE
:10A26000D5BE0368D3F804057047000090F90430A8
:10A27000002B09DB5A09012103F01F03994002F169
:10A280004003024A42F82310704700BF00E100E09B
:10A29000024B034A1B681068184700BF442900207E
:10A2A0003C29002010B561B1B2FBF3F403FB142488
:10A2B000A4B244B9C0E9001484608281C3812046FD
:10A2C00010BD0E20FCE70920FAE737B550E8013F42
:10A2D0009DB2C48925448489A54228BF2D1B0489C9
:10A2E000A54202BFBFF32F8F002207E0C5EA030596
:10A2F00040E80154002CE9D14FF001028DF8032011
:10A300000193019A0A609DF8031001F0FF0321B147
:10A31000006810FA82F003B030BD1846FBE70A88E7
:10A320004B889A4209D150E8012FC2EA024240E824
:10A330000123002BF7D1012070470020704737B56B
:10A3400050E8023F1FFAA3F5C488A54202BFBFF33D
:10A350002F8F00220DE0C48925448489A54228BF9F
:10A360002D1BC3EA054540E80254002CE8D14FF00C
:10A3700001028DF803200193019A0A609DF80310F1
:10A3800001F0FF0321B1006800EB124003B030BDC3
:10A390001846FBE70A884B889A4209D150E8022FF9
:10A3A000C2EA224240E80223002BF7D10120704785
:10A3B0000020704701F01F024B090121914000EB82
:10A3C000830000F01EB801F01F0301229A404B09E0
:10A3D00000EB8300D14300F02CB84B0901F01F01C2
:10A3E00050F82300C84000F00100704710B5034644
:10A3F00053E8000F0A4643E8002494F0000FF7D119
:10A4000010BD10B5034653E8002F42EA010043E8AF
:10A41000000494F0000FF6D110BD10B5034653E8C8
:10A42000000F00EA010243E8002494F0000FF6D187
:10A4300010BD10B5034653E8002F02EA010043E8BF
:10A44000000494F0000FF6D110BD10B5034653E898
:10A45000002F02EB010043E8000494F0000FF6D156
:10A4600010BD10B5034653E8002FA2EB010043E8EE
:10A47000000494F0000FF6D110BD0121FFF7C1BF19
:10A480000021FFF7CABF37B5044600250DF10700CC
:10A490008DF80750FFF780FD2268616813688B42D2
:10A4A00010D9591E116013F8013C228AE56802FB9D
:10A4B00003552268A36811685B1A1179DBB29942CF
:10A4C00038BF13719DF80700FFF78AFD284603B0D7
:10A4D00030BD37B5054600230DF107000C468DF859
:10A4E0000730FFF759FD2A681368591C1160EA68A4
:10A4F000A41A2A8AB4FBF2F41C709DF80700FFF737
:10A500006FFD03B030BD10B5826804462AB14369BF
:10A510000168006998470023A36010BD0EB403B51D
:10A52000039921B104AB01AA019300F077F802B0BE
:10A530005DF804EB03B070470A2938B504460D46B0
:10A5400002D10D21FFF7F8FFA3682268591CA16012
:10A55000D554D4E901329A4204D32046BDE83840AC
:10A56000FFF7D1BF38BD00002DE9F84F9946DDE96E
:10A570000A431546824688460A460127AA420FD258
:10A580004F4538BF4F4613F0010B01D164B9002489
:10A590000126B9F1010F1CD909F1FF396E43F8E723
:10A5A0000137B2FBF5F2E9E79B0710D5B9F1000FCF
:10A5B0000CBF30262026BC42EAD9013C3146504629
:10A5C000FFF7BAFF002CE2D0BC42F6D1E0E720262C
:10A5D000F1E7B8FBF6F39D42E0D9DFF83C90B8FB19
:10A5E000F6F3504619F8031006FB1388FFF7A4FF93
:10A5F0003346AB42B6FBF5F6F1D2BBF1000F00D00B
:10A6000034B9BDE8F88F20215046013CFFF794FF94
:10A61000BC42F8D8F5E700BFB6FF01002DE9F74FBF
:10A62000064690460F46002900F0528117F8011B9C
:10A6300049B9337B002B00F04B81304603B0BDE8B5
:10A64000F04FFFF760BF252940F0BC8000253A4657
:10A6500012F8013B2D2B25D0302B27D02B2B28D0C7
:10A6600000242A2B07F1010226D1D8F80030191D49
:10A67000C8F800101B6817461C443B782E2B27D1C6
:10A6800001374FF0000A0A20394611F8012BA2F1D8
:10A69000300CBCF1090F1DD800FB0A22A2F1300AD0
:10A6A0000F46F1E745F001051746D0E745F00205F2
:10A6B000FAE745F00405F7E712F8013CA3F1300191
:10A6C0000929DAD80A2101FB0434303C1746C8E7CF
:10A6D0004FF0000A3A4612F8011B01F0FB0068280F
:10A6E0001746F8D0782909D86F290BD8632963D089
:10A6F00020D8252966D0582900F094803B78002B7B
:10A7000094D196E770390829F8D801A252F821F0BF
:10A71000A7A80100FDA60100FDA6010039A80100BF
:10A72000FDA601000FA80100FDA60100FDA6010085
:10A7300025A80100642901D06929DFD1D8F80020BB
:10A74000111DC8F80010D2F800B08BEAEB72A2EB32
:10A75000EB724FF001090A21092A37DCD14538BFD5
:10A76000D1462CB1BBF1000F01DB6A0700D5013CDB
:10A77000AB0702D5BAF1000F03D0E80701D454BBF0
:10A780000024BBF1000F32DACBF1000B2D21304653
:10A79000FFF7D2FE05F00302022A04D1BAF1000F3E
:10A7A00001D144BB0024CDE9004553460A22594655
:10A7B0003046FFF7D9FEA1E7D8F800301A1DC8F8D7
:10A7C000002019783046FFF7B7FE97E709F1010935
:10A7D000B2FBF1F2C0E7A145D3D2013C20213046C3
:10A7E000FFF7AAFE002CCBD0A145F6D1C9E7690737
:10A7F000D0D52B21CBE7A145D5D2013C3021304625
:10A80000FFF79AFE002CCDD0A145F6D1CBE7D8F8C2
:10A8100000100A1DC8F80020CDE9004553460A2261
:10A820000968C5E7D8F800100A1DC8F8002053468B
:10A83000CDE900451022F3E7D8F800301A1DC8F81A
:10A84000002015F00105D3F8009024D1B9F1000FD4
:10A8500003D0484604F034FB0546AC421DD809F14C
:10A86000FF3919F8011F00293FF448AF3046FFF7C0
:10A8700063FEF6E730460135FFF75EFE19F8051076
:10A880000029F7D1A542BFF439AF20213046013C61
:10A89000FFF752FEF6E70025F0E720213046013CA5
:10A8A000FFF74AFED9E7D8F800301A1DC8F8002093
:10A8B000302130461C68FFF73FFE78213046FFF715
:10A8C0003BFE00220823CDE90032214610226FE72B
:10A8D00003B0BDE8F08F00BF2DE9F84FB0F806A037
:10A8E0004579D2F800B09DF828900AFB05F5043DA3
:10A8F00088460BEB0301A94203F1040488BFA5EBD2
:10A90000030BB4FBFAF607460AFB1644C2F800B084
:10A910004EB9AAEB04055D4528BF5D46BBF1000FAB
:10A9200004D1BDE8F88F3F68013EF1E7043408EB3D
:10A9300006003C442A46B9F1000F0DD02146ABEB8E
:10A94000050B04F07BFBDA452E443F6855464FF07B
:10A95000000428BF5D46E1E701462046EFE7F8B571
:10A9600046790146721E0546002393422D6803D3A3
:10A970000024A64202D8F8BD0133F6E70F68284646
:10A98000FFF7A7FD01343946F3E72DE9F041CD1C6F
:10A99000078A0646FFF777FD043F3D440446B5FBB2
:10A9A000F7F5D0B14FF48073EDB2C7808380013DDD
:10A9B000066080460027AF4210D23046FFF763FDA5
:10A9C00040B16379013363710137C8F80000066054
:10A9D0008046F0E72046FFF7C2FF00242046BDE88E
:10A9E000F08101210430FFF730BD10B5012104468C
:10A9F0000430FFF736FDC0B220B92046BDE8104054
:10AA0000FFF7ADBF10BD1FB503920022009203AA4D
:10AA1000FFF762FF05B05DF804FB1FB5039201224A
:10AA2000009203AAFFF758FF05B05DF804FB016030
:10AA30000B6843604A68934208BF00234360704735
:10AA4000436843B1026891680B4443605268934283
:10AA500004BF00234360704770B5446806460D4646
:10AA6000206818B1B3682946984718B923682B6045
:10AA7000256070BD2468F3E74368186808B1026870
:10AA80001A6070474368186870474368186800B9CF
:10AA90007047884203D102681A600120704703465C
:10AAA0000068F4E710B50B4AA2F594739A4201D8F6
:10AAB00000200CE0D11A091103EBC10453F8311046
:10AAC000814205D802D204F10803EFE7606810BDA7
:10AAD0002246EBE7F000020008B5FFF7E3FF024B68
:10AAE000002808BF184608BDF0000200BFF34F8FD2
:10AAF0000549064BCA6802F4E0621343CB60BFF31A
:10AB00004F8F00BFFDE700BF00ED00E00400FA0535
:10AB10004FF0704393F8E02F062A08D1D3F8E80FDE
:10AB200000F0F000A0F13003584258417047002077
:10AB300070474FF08053D3F83001421C04BF4FF0F0
:10AB4000704393F8E00F062804D0A0F10A0358429E
:10AB50005841704701207047024AD2F80034002B58
:10AB6000FBD0704700E0014010B54FF08053D3F8A0
:10AB700030315C1C04BF4FF0704393F8E03F062B6C
:10AB800008D14FF080539C4AD3F82433C3F30423F5
:10AB9000C2F84035FFF7BCFF10B1984B984A5A678E
:10ABA000FFF7C7FF48B14FF080534FF08042D3F812
:10ABB0004432C3F34233C2F83C35FFF7A9FF30B14A
:10ABC000904AD2F8FC3023F08073C2F8FC30FFF7D3
:10ABD000B0FF40B14FF080430022C3F80C21C3F80E
:10ABE0001021C3F83825FFF793FF20B14FF08043C1
:10ABF0000322C3F8A025FFF78BFF60B1824B05222B
:10AC0000C3F810260122C3F888260022C3F81826AC
:10AC10003F22C3F814264FF08053D3F83021501C44
:10AC200009BF4FF07043D3F8343193F8E02FD3F8D5
:10AC3000E83F08BFC3F30313062A7DD1033B012B72
:10AC40007CD84FF08053D3F83031591C04BF4FF0FB
:10AC5000704393F8E03F062B09D14FF080534FF03B
:10AC60008042D3F8583203F04F03C2F8E43EFFF7B6
:10AC700060FF48B14FF08043D3F80024D20744BFAF
:10AC80006FF00102C3F800244FF08053D3F8302155
:10AC9000062A0BD1D3F83431033B022B81BF5B4A28
:10ACA000D2F83C3743F48063C2F83C374FF080530E
:10ACB000D3F830210A2A0AD1D3F834313BB14FF00E
:10ACC0008042D2F8E43E43F00F03C2F8E43E4FF076
:10ACD0008053D3F83021062A0CD1D3F83431033B0A
:10ACE000032B81BF4FF01023D3F808224FF080438D
:10ACF000C3F858254FF01021D1F80032002B03DBA8
:10AD0000D1F80432002B61DA414901234FF01020C1
:10AD1000C1F804351524FFF71FFFC0F80042FFF704
:10AD20001BFFC0F80442FFF717FF0023C1F80435EA
:10AD3000FFF712FFFFF7DAFE0A2A82D14FF08052A6
:10AD4000344BD2F80414C3F82015D2F80814C3F811
:10AD50002415D2F80C14C3F82815D2F81014C3F82F
:10AD60002C15D2F81414C3F83015D2F81814C3F8FF
:10AD70003415D2F81C14C3F84015D2F82014C3F8C7
:10AD80004415D2F82414C3F84815D2F82814C3F88F
:10AD90004C15D2F82C14C3F85015D2F83014C3F85F
:10ADA0005415D2F83414C3F86015D2F83814C3F827
:10ADB0006415D2F83C14C3F86815D2F84014C3F8EF
:10ADC0006C15D2F84424C3F870253AE7D1F80C3258
:10ADD000DB070DD50E480123C0F804350024FFF72A
:10ADE000BBFEC1F80C42FFF7B7FEC0F804459FE771
:10ADF000094B0A4A1A6010BD0030014000C00740EC
:10AE00000DF0ADBA00ED00E0005000400010004031
:10AE100000E0014000C00040D82200200090D00394
:10AE200038B5074C051EA4F1080308BF1C4623686B
:10AE30002BB11A6822605B6828469847F7E738BD4F
:10AE40005829002020B9054B01225A70FFF7E8BFAE
:10AE5000012802D1014A9070F8E770474829002084
:10AE600020B9034B01225A70FFF7DABF704700BFC9
:10AE70004829002038B50E4C2378B3B90D486360DB
:10AE8000A3602361E36000F075F8054603F05AFE05
:10AE900008B900F07BF801232370074BD3F8003486
:10AEA0000BB10123A370284638BD8525F5E700BF07
:10AEB0004829002045AE01000000014037B50D4C87
:10AEC00000230DF107008DF80730FFF765F8E36800
:10AED000013BE360E36833B9074BD3F8005415B97D
:10AEE00000F066F8A5709DF80700FFF779F803B049
:10AEF00030BD00BF4829002000000140012813B5E3
:10AF00000CD0032820D038B9134B0122C3F880207D
:10AF1000BFF34F8FBFF36F8F02B010BD0F4C0023F4
:10AF20000DF107008DF80730FFF736F823780BB9DD
:10AF3000FFF7A0FFE3689DF807000133E3600123FA
:10AF4000A370FFF74DF8E7E700F020F802B0BDE886
:10AF50001040FFF7B3BF00BF00E100E04829002028
:10AF600000F18040002382B0036003680193019BDD
:10AF700002B07047044B0246187918B91A600122D2
:10AF80009A807047852070475C290020074B1A681B
:10AF9000D20704D4C02283F8002301221A604FF0A4
:10AFA00080430122C3F81825704700BF00E100E08C
:10AFB0004FF0804208B50223C2F808334FF4827084
:10AFC000FFF7CEFF0123D360D2F81834DB03FBD4A4
:10AFD00008BD000010B54FF08041D1F8003163B1D9
:10AFE0004FF48070FFF7BCFF01220D4BC1F808231E
:10AFF000587910B95A711B6898474FF08042D2F8BF
:10B00000043163B14FF48270FFF7AAFF0223C2F844
:10B010000833034BBDE810401B680120184710BDE2
:10B020005C29002013B5084CD4F800314BB1074B14
:10B030001B6898470023C4F80031D4F8003101930D
:10B04000019B02B010BD00BF000001406429002038
:10B0500070B5114B1960114B1C780546D4B9104ED0
:10B0600001221A700378C6F80C3541684FF47A72E1
:10B070000023C803490C04F0DFF9C6F804052B7A55
:10B08000084A5B01DBB282F810334FF4803313605F
:10B09000204670BD0820FCE76429002069290020B3
:10B0A0000000014000E100E0044B0122C3F804234A
:10B0B0001A60034B02221A70704700BF0000014063
:10B0C0006929002037B5054600240DF107008DF8E9
:10B0D0000740FEF761FF0C4B1A78072A11D8511C64
:10B0E00019700A492A70D1F80805012393400343D7
:10B0F000C1F808359DF80700FEF772FF204603B03F
:10B1000030BD0424F6E700BF68290020000001409C
:10B11000034B044A00F5C07043F82020704700BF7D
:10B12000000001403546526E00F1804000F5E040DD
:10B13000002382B0036003680193019B02B0704753
:10B14000F0B5544B544CD3F8043194F82E2085B00C
:10B15000002B3BD04FF48270FFF7E6FF2AB394F840
:10B160002F3013BB4B4AD2F80031002B32D04FF4B2
:10B170008070FFF7D9FF638B94F82D00834250D97C
:10B1800021891B1A9BB289B26383CB1A616801EBD8
:10B190004301C2F82C16C2F830064FF48270FFF754
:10B1A000C3FF3C4B01225A6014E063680293238979
:10B1B000ADF80C30E36800218DF8041033BB237424
:10B1C000236801A89847002384F82F3094F82E3084
:10B1D000002BC7D12F4BD3F810315BB14FF48870DF
:10B1E000FFF7A2FF0023237402238DF8043001A887
:10B1F00023689847274BD3F814310BB34FF48A7068
:10B20000FFF792FF0023237405B0F0BD208B60830D
:10B2100063602081E160002AD2D11E4B01221A60B6
:10B22000CEE7BAD1E168012084F82F0031B10020C7
:10B230006083C2F82C16C2F83036AEE76183ACE703
:10B2400066694FF000470125002EDDD0B6FA86F280
:10B2500027FA02F34632920026EA030602F18043FF
:10B2600003F5E0431B68002BEED01046A2F58C726C
:10B27000FFF75AFFD30882F00402C2F380028DF870
:10B2800008308DF8045023688DF8092001A89847EC
:10B29000DAE700BF007000406C29002038B5204A72
:10B2A00092F82C300446002B37D111601D490078EC
:10B2B000C1F8F0056078C1F8F405E078137482F8FD
:10B2C0002D30536182F82F3001256FF0004382F852
:10B2D0002E0082F82C504FF48270C1F80833FFF72B
:10B2E00023FF4FF48070FFF71FFF4FF48A70FFF7C2
:10B2F0001BFFA3780C485B01DBB280F80733802387
:10B3000003600223C1F8043392F82E300BB1C1F868
:10B310000453C1F80055002038BD0820FCE700BFE9
:10B320006C2900200070004000E100E010B52C4BBB
:10B330001A7C02F0FF04002A4FD10A79012A9CBF2F
:10B34000284AC2F8004500F10C0403EB44021279CC
:10B3500022B993F82D20013283F82D2003EB44030A
:10B36000CA791A710A7A5A714B788A781B011202CB
:10B3700002F4E06203F0300313430A7802F00302A0
:10B380001343CA78120302F4805213430A79120459
:10B3900002F4E02213434A79120502F480121343A7
:10B3A0008A79120602F0807213430E4A02EB0014EF
:10B3B000000100F18040C4F8183500F5E040CB7979
:10B3C0000C7AC0F81445C0F810350B79012B9CBFDE
:10B3D0000123C2F80035002010BD1120FCE700BF9A
:10B3E0006C2900200070004070B5334A147C04F0D2
:10B3F000FF03002C5ED1314C012503261574C4F8DF
:10B400000863C4F82C16C4F8305692F82D10A942DF
:10B410000CD91C46190101F1804101F5E0410133CD
:10B42000082BC1F81445C1F81045F3D100F10C0305
:10B43000000102EB430300F1804000F5E040197980
:10B440005B79C0F81435C0F810151C4901230B6056
:10B450004B6042F21073D1F8040108B9013BFAD1F4
:10B460004FF48070FFF760FE4FF48270FFF75CFED0
:10B4700092F82D30012B11D90F4800210B0103F157
:10B48000804303F5E0430131047F457FC3F8145541
:10B490000829C3F8104500F10200EFD192F82E10F0
:10B4A000064B29B103210020C3F80413107470BDAA
:10B4B0000221F8E71120FAE76C2900200070004013
:10B4C00008B50A4B197C01F0FF0269B902214FF45B
:10B4D00088701974FFF728FE054B1021C3F8041378
:10B4E0000121D960104608BD1120FCE76C2900201D
:10B4F000007000400023435082B043580193019BE9
:10B5000002B070470A7B0346032A29D8DFE802F01D
:10B51000212519028A68500304D5D3F84C250869FF
:10B52000904207D18A6852031AD4D3F84C2549694E
:10B53000914215D000200622C3F80005C3F800256B
:10B540007047D3F84C2508699042F3D1D3F83C25D5
:10B55000EDE7D3F84C250969EAE7D3F83C25FAE78B
:10B5600001207047F0B5584D584CD5F8243187B0BC
:10B57000FBB14FF492712846FFF7BCFFD5F80431B8
:10B58000BBB9A368C5F808330223A360A368C5F854
:10B590000433D5F860311BB1D5F800329F0503D4D0
:10B5A000494B01221A625A61012384F82E3007B0F8
:10B5B000F0BDD5F80431002B56D043484FF48271CA
:10B5C000FFF798FF256A6E0609D494F82E3033B938
:10B5D0003E49FFF797FF80F0010084F82E006D07C9
:10B5E00020D43B4E0FCE01AD0FC5336836482B60DB
:10B5F0004FF4B071FFF77EFF4FF4AE71FFF77AFFA3
:10B6000094F8303013B194F82E305BB12E4B0022F9
:10B61000C3F80022A2602F4AC3F808232E4B082249
:10B62000C3F88021284AD2F8C434C2F8C434980739
:10B6300044D4590744D4DA0744D494F82E309B00FC
:10B64000DBB28DF8003094F830300BB984F82F302D
:10B65000236A5B0703D594F82E30002BA7D0D4E9DA
:10B66000003168469847A2E717484FF4A471FFF7E6
:10B6700041FF237B83B9164F0FCF01AE0FC63B6846
:10B68000336094F83030002BCCD1C5F80032A36081
:10B69000104BC5F80833C1E74FF40073C5F800320A
:10B6A00040F20223A36003F1CE73C5F80833A36808
:10B6B000C5F804330123AB602B6278E70123C0E7B0
:10B6C0000223BEE70323BCE7003000409C29002092
:10B6D000A829002002029C0100E100E02DE9F84FBA
:10B6E0000779364E4FF0340A0AFB07FA06EB0A08D0
:10B6F0009B4698F82D3005460C469146002B58D1B4
:10B700002F49006800F08CFC002854D146F80A90BC
:10B71000C8F80800C8F804B088F82F0088F830008E
:10B72000637B88F8323023684FF0A04203F5E07362
:10B7300040F20C6142F82310636803F5E07342F8AD
:10B740002310D4E900212B68C3F80825C3F80C1591
:10B75000A268C3F82425B9F1000F22D02B68227B00
:10B7600043F30733002BAEBF03F1604303F00F0335
:10B7700014494FEA4212A8BF03F56143D2B2B4BFE5
:10B78000CA5483F800232B6843F30733002B08DBEC
:10B790000122590903F01F0302FA03F30A4A42F88F
:10B7A0002130342303FB0766012386F82D30BDE8E2
:10B7B000F88F0820FBE71120F9E700BF9C29002043
:10B7C00065B5010014ED00E000E100E003680279D6
:10B7D0000621C3F80015044B342101FB0233022279
:10B7E00083F82D20704700BF9C29002001790B4B66
:10B7F0000268342000FB0133094900209860C2F838
:10B800000813D2F8001221F4BC51C2F80012C2F899
:10B810000005012283F82D20704700BF9C290020DD
:10B8200002029C0170B506791E4D34237343044611
:10B83000EB5893B1036843F30733002B0DDB5A0930
:10B84000012103F01F03994002F12003164A42F838
:10B850002310BFF34F8FBFF36F8F2046FFF7C6FF54
:10B86000206800F0FDFB342303FB065393F83230CD
:10B8700083B92368D3F808354FF0A04203F5E0738D
:10B88000022142F823102368D3F80C3503F5E07346
:10B8900042F82310342303FB0655002385F82D308E
:10B8A00070BD00BF9C29002000E100E02DE9F843B5
:10B8B000DFF8C08290F804900468342707FB0987FA
:10B8C000002387F82E30CB6803F06043B3F1005FAC
:10B8D0000D46164603D010273846BDE8F883A64B20
:10B8E000C4F8083397F82F3023B1BB68C4F8043389
:10B8F0001127F1E712F0140F0CBF0123002387F882
:10B900002F308E46BEE80F0007F10C0CACE80F009C
:10B91000DEF80030CCF80030C6F3001387F8303082
:10B920003E626B78C4F8883520464FF48271FFF789
:10B93000E1FD4FF49271FFF7DDFD4FF4B071FFF7B9
:10B94000D9FD4FF4A471FFF7D5FD16F0010318BF20
:10B950000123C4F8503516F0020318BF0123C4F8C0
:10B9600040352B78032B00F2B580DFE803F087A089
:10B9700069022B6903F06043B3F1005FABD14FF470
:10B980008073C4F800326B68EA68C4F844254FF449
:10B99000A871C4F84835FFF7ADFD01232362A36009
:10B9A000D4F85031002BFBD04FF4A8712046FFF79C
:10B9B000A1FDAB682A69C4F84425C4F8483534238E
:10B9C00003FB09834FF480229A6008230027320783
:10B9D00004D42A78032A1CBF0122E250342303FB3B
:10B9E00009F308EB030258F80330002B75D1012549
:10B9F000D4F84821D4F80431002B40F08680003A76
:10BA000018BF0122D4F82431002B00F085804FF4B8
:10BA100092712046FFF76EFDD4F86011D4F8003221
:10BA200009B1980504D4256265610029E0D000229F
:10BA3000D90571D54FF4A4712046FFF75BFDD7E718
:10BA40006B68EA68C4F84425C4F848352B6903F0EC
:10BA50006042B2F1005F7FF43EAFAA68C4F83435AB
:10BA60004FF48453C4F83825C4F80032342303FB60
:10BA7000098302229A6001232362A6E76B68EA68C1
:10BA8000C4F8442516F0200FC4F848354FF03403AD
:10BA900008D04FF48072C4F8002203FB09834FF4EE
:10BAA0008022E7E74FF40072C4F80022DFE76B68FA
:10BAB000EA68C4F83425C4F838354FF48053C4F824
:10BAC0000032342303FB098302229A60012323629C
:10BAD00000237BE70823072779E7730744BF002388
:10BAE0009360750606D4342303FB09839A6842F0F9
:10BAF00002029A60342303FB09839A6842F40072BD
:10BB00009A609B68C4F80433E6E64FF482712046DD
:10BB1000FFF7F0FC012275E7002A3FF469AF3421FA
:10BB2000D4F8C434C4F8C43401FB0982002082F87C
:10BB30002F0093B113F0010F14BF4FF402470327F6
:10BB400048F2012213F0020F18BF174613F0040F3A
:10BB500048F2022318BF1F46BEE673063FF5BCAE8F
:10BB600009FB01812046FFF7CDFC002808BF032711
:10BB7000B2E600BF9C29002002029C0110B586B0ED
:10BB80000024CDE904249DF820208DF805105201F1
:10BB900001A9CDE902348DF80440FFF787FE06B015
:10BBA00010BD10B586B0012402930023CDE9033205
:10BBB0008DF805101A4601A98DF804400593FFF78A
:10BBC00075FE06B010BD00F1804000F5C0400023B6
:10BBD00082B0036003680193019B02B0704780004C
:10BBE00000F1A040D0F8003723F44033C0F800370C
:10BBF000D0F8003743EA0143C0F80037704700002F
:10BC0000054B4FF0FF32072843F8202084BF1B1854
:10BC100083F84820704700BFD029002010B5194C88
:10BC200094F858305BBB4FF0FF3204F1300122FA38
:10BC300003F0C00748BFCA540133202BF7D10021BD
:10BC4000C8B20131FFF7DCFF0C29F9D10422002131
:10BC50000D4803F0A1F90D4BC02283F806234022C2
:10BC60001A604FF4BE70FFF7AEFF094B4FF0004271
:10BC7000C3F80423012384F85830002010BD0820A5
:10BC8000FCE700BFD0290020242A002000E100E0CA
:10BC900000600040F0B53B4E331893F93030002B74
:10BCA0006DDA8F78C7F34007002F0BBF08230023FE
:10BCB0004FF00C0C4FF0080C634501D10420F0BD8F
:10BCC00056F8235001354FEA830442D106EB000CAD
:10BCD0005DB246F823208CF8305017B9334483F80E
:10BCE00048008B785F0716D4DA0734D5830003F158
:10BCF000A043D3F8002722F00202C3F80027224F06
:10BD0000C20800F0070C012303FA0CF317F802C075
:10BD100043EA0C03BB548B780A789B0724D504F1C3
:10BD2000804303F5C0430002D3F8101521F44731D6
:10BD300021F44071C3F810151204D3F8101500F463
:10BD4000F85002F4403210430843C3F810050020B5
:10BD5000B5E70133B0E74A7800F5E0734FF0A0474C
:10BD6000920047F82320CAE7A5F1080346FA83F3B7
:10BD700093F8501041EA821283F85020E7E7082038
:10BD80009DE700BFD0290020242A002038B51E4C92
:10BD9000251895F93020072A16DD144494F8483008
:10BDA0009B09032B0BD14FF0A043D3F81015C140D2
:10BDB00001F001010231BDE83840FFF710BF012B4F
:10BDC0000CBF02210321F6E7D3B2072B1BD8930047
:10BDD00003F1804303F5C043D3F8100540F00100A0
:10BDE000C3F8100502F14000800080B2FFF7EBFEBF
:10BDF00049B195F9303054F8233023B101239340F1
:10BE0000024AC2F8043338BDD02900200060004047
:10BE10000E4B034493F93020072A02DD0021FFF77F
:10BE2000DEBED3B2072B0FD8930003F1804303F596
:10BE3000C043D3F8101521F00101C3F810150123F8
:10BE40009340034AC2F80833704700BFD02900204E
:10BE500000600040F8B50446FFF7DAFF17490A19F9
:10BE600092F9303092F83020072A9FBF144A03F528
:10BE7000A273002042F8230004F00702012393403C
:10BE80001048E208855C1D420AD004F5E0754FF0C9
:10BE9000A046022746F82570855C25EA03038354F3
:10BEA0000B1993F93000002802DBC0B2FFF7A8FE9F
:10BEB0002144FF2381F83030F8BD00BFD029002095
:10BEC00000600040242A00202DE9F34700244E4D55
:10BED00001944FF48072012102F1804303F5C043C5
:10BEE0001B68012B07D1D5F804330B4203D090B265
:10BEF000FFF769FE0C430432B2F5907F4FEA41012F
:10BF0000EAD1414BD3F87C31012B0CD14FF4BE70F8
:10BF1000FFF759FE4FF0A04344F00044D3F820252A
:10BF20000192C3F82025E3B2D3B1384F0025012692
:10BF3000344210D0AB0003F1804303F5C043D3F883
:10BF40001005D3F8101557F8253023B1C1F301417E
:10BF5000C0F3042098470135082D4FEA4606E7D183
:10BF6000002C48DA294C4FF0A047294D4FF000082B
:10BF7000012615F9013F5A1C31D0C3F3C201083123
:10BF80006944DAB211F8041C03F03F0903F0070317
:10BF900006FA03F3194222D009F5E073484657F830
:10BFA0002330C3F3014ABAF1020F14BF0221032167
:10BFB000FFF715FE06FA09F3C7F8203504EB09036D
:10BFC00093F9303054F823304BB19109032904D050
:10BFD000BAF1020F12D1012901D14846984708F160
:10BFE0000108B8F1040FC4D1D7F820350193C7F880
:10BFF0002035002BB9D102B0BDE8F087BAF1030FAC
:10C00000EDD10229E8E700BF00600040D029002000
:10C010001F2A0020014B1B68184700BF2C2A002054
:10C020000D4B984237B50C4611D100230DF1070096
:10C030008DF80730FDF7B0FF084B1D7915B90122C7
:10C040001C601A719DF80700FDF7CAFF15B90020A2
:10C0500003B030BD1120FBE7002000402C2A002057
:10C06000034B984201BF034B00221A601A717047BC
:10C07000002000402C2A0020032811D8012A0AD1D0
:10C0800001290FD100F10E02D2B20D4B00EB40009E
:10C090001A54002070470129F7D0022904D049B171
:10C0A000072070470022F8E7054B00EB40000344EF
:10C0B0005A70EEE7024B00EB400003449A70E8E749
:10C0C000342A002008B5012202210020FFF7D4FF06
:10C0D00008B1072810D1072202210120FFF7CCFF69
:10C0E00008B1072808D100210A220846FFF7C4FF3B
:10C0F00010B1072808BF002008BD000010B5038854
:10C10000102B02D0112B22D010BD194C2168D1B9AF
:10C1100001220846FFF7B0FF08B107280FD1072218
:10C1200002210120FFF7A8FF08B1072807D1042248
:10C1300002210020FFF7A0FF28B1072803D00D4BF4
:10C140001B6803B19847236801332360DCE7084A82
:10C150001368013B1360002BD6D1FFF7B3FF002813
:10C16000D2D0044B1B68002BCED0BDE8104018473E
:10C17000402A0020442A002041DF704776DF7047C4
:10C180007ADF70477CDF70478FDF7047B1DF704721
:10C190007047000010B5084A084913780978D8B2EA
:10C1A000013303F00303994205D005494C68054962
:10C1B00041F82040137010BD5E2A00205D2A002047
:10C1C000001000E0602A002007B503883B2B0DD04B
:10C1D00008D8112B1FD0212B22D0102B0DD003B04B
:10C1E0005DF804FB522B23D0562BF8D18088132105
:10C1F00003B05DF804EBFFF7C1BF124B8188124A10
:10C200001980002313601148114A137003B05DF8C0
:10C2100004EB02F061BA0B4B4FF6FF721A80DEE7B7
:10C22000002301A98088ADF80430FFF7ADFFD6E701
:10C230000448002300881A46194603B05DF804EB51
:10C24000FFF7A4BF282300204C2A0020AC2C00209C
:10C250007C2A00202DE9FF47644C074601A8666848
:10C260000D4600F099FE002800F083806368604C62
:10C270006049E28C9B1BC3F38F1392B29A4238BF82
:10C28000E3845D4BB3F8008008F101021A8001A835
:10C290000C2202F085FF0C220646B0FA80F901A9B3
:10C2A00054484FEA591902F0C9FE56B9534A138847
:10C2B0004FF6FF719BB28B421FBF138801339BB2B5
:10C2C000138063684B446360002E00F0898023680C
:10C2D0000133236085B940F27621444D01A86E6890
:10C2E00000F078FF6B68228D9B1BC3F38F1392B213
:10C2F0009A4238BF23852FE094F83230002B6CD05F
:10C30000DFF8FC90DFF8FCA099F80030002B45D056
:10C31000DAF80000381A8509C0F38F1000F0F2FE39
:10C32000394B9D4228D963690133636100F04CFFAA
:10C3300042F28D55354A00232804290C03F07CF87D
:10C3400081B20123CAF8007089F80030002EC4D1F0
:10C3500094F83230002BC0D12D4F2E4B3D781B78F6
:10C36000EEB2013505F00F05AB421AD1A3680133D7
:10C37000A36004B0BDE8F087A5F57A6248F6A04353
:10C380009A42D7D96369B5F57A6F03F1010349F68B
:10C390004045636138BF4FF47A65CBE740F27621C0
:10C3A000CFE71D4C06EBC6000C2201A904EB4000B0
:10C3B00002F044FE122303FB0644A4F80C8001F0B3
:10C3C000A7F8E08101F0AEF82074BFF35F8F074B50
:10C3D0003D705A68114B1A60CBE7002EBCD07AE74B
:10C3E000002D89D140F27621B2E700BF001000E0B5
:10C3F000D02C0020802A00208C2A00207E2A0020B9
:10C40000502A0020542A0020A086010040420F003C
:10C410008F2A00208E2A0020902A0020582A0020EF
:10C420000378FBB9818A01291CD903691A78202A6B
:10C4300018D15A78103A072A14D8DFE802F0040716
:10C440001413131C241A114B01220AE0022909D0EB
:10C450009B78012B0E4B197814BF012202229142C6
:10C4600000D01A7070470B4A13780133DBB2137097
:10C470007047094AF8E70229F4D09B785A1E5342C4
:10C480005341024AF3E7054BDEE700BF26230020B5
:10C4900020230020792A0020782A0020732A0020F7
:10C4A00008B501F08DF828B10C4A108001F0B8F8F9
:10C4B0000B4B18700B4B1A884FF6FF739A420A4ABF
:10C4C00002D00023136008BD13680133B3F5967FD3
:10C4D000136022BF054B01221A70F4E7762A002070
:10C4E000752A0020282300204C2A0020482A0020FA
:10C4F00008B500F0D7FD1D491D4A0B78834218D1BD
:10C50000002313701B4B1B78002B2DD01A4B1A885D
:10C510004FF6FF739A4227D0184B93F83230DBB9AD
:10C52000174A1378FF2B1FBF13780133DBB2137048
:10C530001AE013780133DBB2022B1370E2D9002327
:10C54000087013700028DDD00E4A1378FF2BD9D065
:10C5500013780133DBB2D4E70B4B0C4A5B681268EB
:10C560009B1A0B4A9342DBD808BD00BF712A0020FA
:10C57000702A0020B02B002028230020D02C00207F
:10C580005C2A0020722A0020001000E0582A0020B7
:10C59000004C1D0038B5054D044645F001054FF42B
:10C5A0007A40A847013CFAD138BD00BF1001020013
:10C5B00008B528221146032000F04CFD4FF47A7094
:10C5C000FFF7E8FFF5E700002DE9F04F4FF0A0443A
:10C5D0000323A04EC4F87037B3B0002000F02EFD46
:10C5E00096E807000C23C4F864370023C4F8243706
:10C5F00004AB83E8070042F6E062974905921846CB
:10C60000FEF726FD08B1FDF7A3FA9448FEF75AFDA0
:10C6100008B1FDF79DFAFEF747FD00F05FFD5022DF
:10C620002821012000F016FD4FF42F70FFF7B2FF14
:10C6300000F0E2FA8A4D052400F0FCFB2870002887
:10C6400000F0DD8000F088FD2B78ABB3FFF7E6FA51
:10C65000044688BBDFF80CA2DFF80C82BAF8003081
:10C66000DFF808920193DFF808B2019AADF81C20B8
:10C67000002389F800308BF800309AF802308DF8EA
:10C680001E307C4A18F8013B8DF81C3007A90920A0
:10C69000FFF700FB074678B909200121FFF776FB79
:10C6A000012000F05DFC002840F0B2800920FFF777
:10C6B000AFFB0920FFF7CEFB00F04EFF00F080FF3C
:10C6C00028B16D4A108000F0ABFF6C4B18705022FF
:10C6D0002821022000F0BEFC4FF42F70FFF75AFF14
:10C6E000FDF7DEFA08B1FDF733FA02F0EDF908B113
:10C6F000FDF72EFA002307A90120079302F076FA2E
:10C7000008B1FDF725FA07A802F03CFB08B1FDF7D8
:10C710001FFA5B4A3069516807AB03C307A8FFF7EC
:10C720002FFD08B1FDF714FA564802F0C9FB554930
:10C7300082B20020FFF726FD08B1FDF709FA524842
:10C74000002101F0F1FE08B1FDF702FA00234F4885
:10C75000039303A901F0AEFF08B1FDF7F9F94C4BC3
:10C760004C48079307A902F0B7F808B1FDF7F0F9B4
:10C77000AC22002107A802F00FFC474B07930123CE
:10C78000464AADF868308DF8983045481B924023F2
:10C7900007A9299301F054FA08B1FDF7D9F94048E7
:10C7A000012101F04AFA1C2200210DEB020002F0E7
:10C7B000F3FB4FF4A033CDE9083307A803238DF82A
:10C7C000283001F0E3FC08B1FDF7C2F9282150221E
:10C7D000032000F03FFC4FF42F70FFF7DBFE3048E2
:10C7E000032101F09FFA00285ED028221146032081
:10C7F00000F030FC4FF47A70FFF7CCFEF5E7322002
:10C80000013CFFF7C7FE14F0FF047FF415AF19E7F2
:10C810006420FFF7BFFE9BF8003099F800209B1AB8
:10C82000DBB2042B04F1010B03D91E4B83F832B0A9
:10C8300042E7384600F094FB0920FFF7E9FA0920A7
:10C84000FFF708FBBBF1020F4FF001047FF40BAFC1
:10C8500032E700BF2001020091C10100742A0020CC
:10C86000B02B00202C010200030102005D2A0020F1
:10C870005E2A002095C10100762A0020752A00203A
:10C880003001020051FC0100B82C0020AC2C00202B
:10C8900021C401002C2300200200000622230020D6
:10C8A000B42B0020D02C002050222821042000F09E
:10C8B000D1FB4FF42F70FFF76DFEAB4AAB4801215F
:10C8C000FDF720FA08B1FDF743F9A94800229321AA
:10C8D000FDF72AFA08B1FDF73BF9A64AA64801215F
:10C8E000FDF710FA08B1FDF733F9A44800224FF420
:10C8F0008041FDF719FA08B1FDF72AF9A04FA14CC4
:10C900003878A14EFEF704FCA04B1B780BB1012335
:10C9100033709F490B78D3B123884FF6FF7293424F
:10C9200015D00A789B48013AD2B20A709A4A079207
:10C9300001228DF82020994A12788DF821200622B4
:10C94000ADF80A2007A90DF10A0202F03FF8944A57
:10C950001378F3B121884FF6FF73994219D01378F9
:10C96000013BDBB213708F4B188880B208B900F01E
:10C9700027FE40F22243ADF81C300423ADF81E0020
:10C98000ADF80A30834823880DF10A0207A902F0A6
:10C990001DF833783BB17648FDF7F4F97748FDF799
:10C9A000F1F900F089FB002607A88DF81C60FDF75F
:10C9B000F3FA7D4A1378022B04D91378033BDBB2D8
:10C9C000137001269DF81C00FDF70AFB3EB13C22C6
:10C9D0001146022000F03EFB744B00221A60DFF883
:10C9E000D081744EDFF8D09112E03378DBB259F881
:10C9F00023003378013303F0030333702B783BB10A
:10CA000022884FF6FF739A4202D00121FFF722FCE1
:10CA100098F8002033789A42E7D1684A13787BB1BE
:10CA20001378013BDBB213702B784BB122884FF6A1
:10CA3000FF739A4204D0624B00215868FFF70AFC4A
:10CA4000DFF88081DFF880917AE0604898F8003064
:10CA500002785F49DFF87CC1DBB282B1122202FBAF
:10CA60000312BCF800609289B24208D0DFF868E196
:10CA7000921BDEF80C6016FA82F2CEF80C20574AB0
:10CA800012265E4306EB020A0E44BAF80420B6F8FA
:10CA90000CE00EF1010EACF800E04FF0010C80F854
:10CAA00000C0B4F800C04FF6FF70844541D04C4838
:10CAB000007800283DD03948007803EBC3030228F2
:10CAC00001EB430146D14FF49173ADF81E2008A845
:10CAD0000C22ADF81C3002F0B1FABAF80630ADF80D
:10CAE0002C30404B1A78337C43EAC2038DF82E3049
:10CAF000132223884FF6FF718B421AD0DFF8C0A0B3
:10CB0000ADF80A2007A90DF10A022248DAF80460FC
:10CB100001F05CFF304ADAF80430518D9B1BC3F3FF
:10CB20008F1389B2994238BF538510B1136901330D
:10CB3000136198F80030013303F00F0388F80030D8
:10CB400098F8002099F800309A427FF47EAFFFF702
:10CB500013FBD5E622230C220DF11E00ADF81C308C
:10CB600002F06CFA0E22C4E7F1C401001C010200BD
:10CB700000230020A1C4010018010200E0220020CF
:10CB8000742A002028230020482A0020732A00202D
:10CB9000792A00202C2300202203000320230020D8
:10CBA000782A0020762A0020722A00204C2A0020B1
:10CBB0005E2A00205D2A0020602A00205C2A0020D6
:10CBC000001000E08E2A00208F2A00207C2A0020FE
:10CBD000902A00207A2A0020D02C0020982A0020B9
:10CBE00026230020752A0020024B802043F00103F9
:10CBF000184700BF4001020010B54FF0A04440F2BA
:10CC00000D63C4F81437C4F818372023C4F8083566
:10CC1000FFF7EAFF4023C4F80835BDE81040FFF7EE
:10CC2000E3BF70B54FF0A0442023C4F80835402678
:10CC3000FFF7DAFFC4F80865FFF7D6FF0925C4F847
:10CC40000C65FFF7D1FFC4F80865FFF7CDFF013D84
:10CC5000F5D12025C4F80C55FFF7C6FFC4F80855D8
:10CC6000BDE87040FFF7C0BF70B54FF0A04420266C
:10CC70004025C4F80865FFF7B7FFC4F80855FFF76B
:10CC8000B3FFC4F80C65FFF7AFFFC4F80C55BDE85F
:10CC90007040FFF7A9BFFFF7E7BF38B54FF0A044DA
:10CCA0002025C4F80C55FFF79FFF4023C4F8083532
:10CCB000FFF79AFFC4F80855BDE83840FFF794BF66
:10CCC0002DE9F041074607264FF0A0444FF0200819
:10CCD000402527FA06F3DB074CBFC4F80885C4F8E3
:10CCE0000C85FFF781FFC4F80855FFF77DFFC4F8F6
:10CCF0000C55FFF779FF013EEBD22023C4F808352D
:10CD0000FFF772FFC4F80855FFF76EFFD4F81065FF
:10CD1000C4F80C55FFF768FF6FEA561000F00100E9
:10CD2000BDE8F0812DE9F0414FF0A0452023C5F882
:10CD300008350746FFF758FF082600244FF0400843
:10CD4000C5F80885FFF750FFD5F81035C5F80C85F4
:10CD50006400C3F34013E4B21C43FFF745FF013EF8
:10CD6000EED12023B7B1C5F80C354FF0A0454026D1
:10CD7000FFF73AFFC5F80865FFF736FFC5F80C6501
:10CD8000FFF732FF2023C5F80835FFF72DFF2046B7
:10CD9000BDE8F081C5F80835E7E738B505460C462B
:10CDA000FFF762FFD420FFF78BFF20B9FFF775FF75
:10CDB0000024204638BD2846FFF782FF0028F5D022
:10CDC0002046FFF77DFF04460028EFD0FFF765FF00
:10CDD000EFE72DE9F04104460F461646FFF744FF02
:10CDE000D420FFF76DFF28B9FFF757FF0024204636
:10CDF000BDE8F0812046FFF763FF0028F4D0FFF77D
:10CE00004AFFD520FFF75CFF04460028ECD006F16E
:10CE1000FF3800255FFA88F8E8B2804594BF00200B
:10CE20000120FFF77FFF78550135AE42F4D1FFF7BF
:10CE300034FFDCE7F7B5494D00238DF804300324B7
:10CE400045F00105FFF7EDFE012201A90F20FFF7D4
:10CE5000C0FF18B19DF804306A2B0FD000238DF865
:10CE600004300A264FF47A40A847013EFAD1013C2B
:10CE700014F0FF04E6D1002003B0F0BD0121122020
:10CE8000FFF78BFF354F044640F2F51647F00107D8
:10CE9000012201A91220FFF79CFF0028EBD0013EE0
:10CEA000B6B2002EE7D04FF4C850B8479DF80450F2
:10CEB00015F00105ECD10C211220FFF76EFF294679
:10CEC00000284FF00A0008BF0024FFF766FF442146
:10CED00000284FF0100008BF0024FFF75EFF4C2130
:10CEE00000284FF0110008BF0024FFF756FF012271
:10CEF00000280DF105014FF0100008BF00248DF847
:10CF000005508DF806508DF80750FFF762FF01229B
:10CF100000280DF106014FF0110008BF0024FFF7B3
:10CF200058FF012200280DF107014FF0120008BF41
:10CF30000024FFF74EFF00289DD0002C9BD09DF8C9
:10CF40000530442B97D19DF806304C2B93D19DF89A
:10CF50000700A0F10C03584258418DE75001020030
:10CF600013B5044601460D20FFF717FF10B9002046
:10CF700002B010BD002301220DF107010D208DF834
:10CF80000730FFF726FF0028F1D09DF807301B1B64
:10CF900058425841ECE70000F0B5244E377887B08E
:10CFA000054602ACB7B9224B0FCB84E80F00062030
:10CFB0000523CDE902034FF0C86304931D483B46A7
:10CFC0003A462146FEF78AFB10BB1A48FEF7FEFBE5
:10CFD0000123337022238DF8083000230093154875
:10CFE000012322466A21FEF7C9FD30B911480C23FE
:10CFF0002A466A21FEF7D5FDA0B10F4A0D48D36934
:10D00000591C1CBF0133D361FEF70CFC00233370A5
:10D01000FFF707FE0C222946222007B0BDE8F040AA
:10D02000FFF7D7BE012007B0F0BD00BFCC2C002019
:10D030006001020058010200D02C00204FF0A043F4
:10D040004FF0805210B1C3F80C257047C3F8082583
:10D05000704700002DE9F843114E80460C461546F6
:10D06000002746F00106B84501D1BDE8F88301204C
:10D07000FFF7E4FFA1462CB14FF47A40B047B9F175
:10D080000109F9D10020FFF7D9FFA9462DB14FF4CE
:10D090007A40B047B9F10109F9D10137E3E700BFA0
:10D0A000700102004FF0A043D3F810056FEA506002
:10D0B00000F001007047000008B50020FFF7BEFF38
:10D0C0004FF0A043044AC3F864274FF08043012285
:10D0D000C3F80025FEE700BF0C000300074AD2F8A2
:10D0E000FC3043F08073C2F8FC30054B00225A60DC
:10D0F0001A6842F001021A60704700BF00ED00E0BC
:10D10000001000E088B1094B1A8C0AB1824200D9A4
:10D1100018845A8C82429A8C38BF58840AB99884F1
:10D120007047801A02EB60129A847047D02C00205E
:10D1300002464FF08043934202D8002013B9704753
:10D140009B08F8E7C11891424FEA50009CBFC018F5
:10D15000521A9B08F2E7000010B50C22002111487A
:10D16000114C01F019FF0C220021104801F014FFAE
:10D170000C2200210E4801F00FFF0C220021204656
:10D1800001F00AFF0B4A4FF4805323600023136021
:10D19000094A1370094A1370094A1370094A138027
:10D1A00010BD00BF342D00200C2D0020282D0020A4
:10D1B0001C2D0020182D0020082D0020072D0020F8
:10D1C000062D0020042D0020014B00221A6070471C
:10D1D000182D00202DE9F04F8DB0044602220F4695
:10D1E000014602A801F02AFF0222A1180DF10A004F
:10D1F00001F024FF211D022203A801F01FFFA11D41
:10D20000022204A801F01AFFB74E04F1080102221D
:10D210000DF1120001F012FF04F10A01022205A82B
:10D2200001F00CFF3388BDF810804FF6FF72934277
:10D230001CBF01333380BDF812304FF49D7213FBD5
:10D2400002F31C12BDF81430079413FB02F31B12F7
:10D2500018FB02F800930893A44B4FEA28280DF11D
:10D26000180ACDF81880D446002019461A685CF8D0
:10D27000045B0130AD1A02EB6512032843F8042B5E
:10D28000F4D19B4D2A7852BBD1E90040896880FBDC
:10D290000003C4FB0403C1FB01034FF0FF318142D3
:10D2A00072EB0303B8BF0846FFF742FFA0F6D213A4
:10D2B000002BBCBFC0F51D6302334C2B03DD33884C
:10D2C000B3F5027F08D30C2288498A4801F0B6FEE4
:10D2D000894A01232B7013700DB0BDE8F08F854E85
:10D2E000BDF90AB0BDF90C90B268BDF90800D6E9E5
:10D2F00000350BEB8B0B09EB89094FEA0B1B4FEA4F
:10D3000009198BFB02CE89FB0521BCEB0202A2FBB3
:10D31000072C6EEB010112F1004289FB03E201923E
:10D3200000EB8000B2684FEA001007FB01C182FBEE
:10D33000002C41F10001BEEB0202DDF804E06EEBCF
:10D340000C0CA2FB07E21EF1004E07FB0C2242F17F
:10D350000002591AAA1A8BFB033E85FB005CEB1AEC
:10D360006CEB0E0EA3FB073513F1004307FB0E55C4
:10D37000B368316045F100055D1B009BB560A8EB0B
:10D380000108A41A5D1B7260CDF824800A940B95E5
:10D3900001F064FDB0F50F6F4FDBD6E90085B4688E
:10D3A00085FB0503C8FB0803C4FB0403002BC8BFAF
:10D3B0004FF0FF30FFF7BCFEB0F1000962DC4F4ACE
:10D3C0004C4D002410465AF8043B55F8046B116884
:10D3D0009B1B5B1A013401EB6311032C42F8041B05
:10D3E000F1D1D0E90043806883FB0321C4FB042111
:10D3F000C0FB002141F22975AA4271F10001404AA7
:10D400005ADA1178FF2901D0013111701278072AF8
:10D41000394A8CBF0121002111703A490A684DD95F
:10D42000531102D1131E18BF0123D21AB2F57A6F1D
:10D4300052DD4FF47A630B604EE7584601F00EFD63
:10D44000B0F50F6FA9DA484601F008FDB0F50F6F8F
:10D45000A3DA84FB0443C8FB0843C5FB0543B4F5CA
:10D46000803F73F1000398DA324609A8002311685F
:10D4700050F8044B013301EB6411032B42F8041BF9
:10D48000F5D18AE740F6D21B4FEAE9734A4688FB9A
:10D490000B01009301F080FF009B30604A4685FB42
:10D4A0000B0101F079FF009B70604A4684FB0B0181
:10D4B00001F072FFB06082E70021A6E7124D6E68AE
:10D4C00073432E6806FB0433AC6804FB00331B1364
:10D4D0007B4302EB2342A9E712F57A6F01DB0A6076
:10D4E000FAE60A4BA7E700BF042D0020282D0020F4
:10D4F000062D0020342D0020072D00201C2D00209B
:10D50000082D0020182D00200C2D002060F0FFFFBA
:10D51000034B18684FF47A7358430012704700BFEA
:10D52000182D0020054B1878054B1B78404201331D
:10D5300000F004001843C0B2704700BF062D002061
:10D54000072D00200378022B02BF024B01221A7024
:10D55000704700BF412D00207FB5144C144920684E
:10D5600000906846FDF79AFE0246E8B96068A16837
:10D5700001AB03C3217B1970104601A9FDF7D6FE4C
:10D5800090B90C4C2070FDF79BFF68B90A4EC82576
:10D5900046F00106237823B94FF44860B047013DB7
:10D5A000F8D1064B22781A7004B070BD86010200D3
:10D5B00045D50100412D002080010200402D0020B2
:10D5C00070B5134B1B780BB9002070BD114E0424AD
:10D5D000002510490020FDF707FF0028F4D1B6F917
:10D5E0000030002BC8BFED18013CF2D14FF4E153DD
:10D5F0005D43094B9D4208DB084B9D42CEBF4FF671
:10D60000FF7443F6FC7495FBF4F4A0B2DDE700BFB1
:10D61000402D0020422D002005C0FFFFFFFFFB3FF3
:10D62000013880B240F65E1398428CBF0020012082
:10D6300070470369C26893429CBF81685B18013BD5
:10D64000981A70472DE9F041D0E902840546A8EB0D
:10D6500004064068964220440F46144404D901F061
:10D66000EDFCEC60BDE8F0813246A4EB080401F06B
:10D67000E5FC68682246B919F1E72DE9F843C56869
:10D680000646894617464FF000083369B46870684B
:10D690009D4228BF1B19641BBC4203F1FF3328BF06
:10D6A0003C465B1B9C4228BF1C46494628442246F8
:10D6B00001F0C4FCB3682544AB4208BF00253F1B02
:10D6C000A044A144F560E0D14046BDE8F8830000E5
:10D6D000F8B5144B182700FB07751D4407FB0033F2
:10D6E0000E46DB6A012B14460AD0022B14D023B954
:10D6F0002846FFF79EFF844208D900242046F8BD43
:10D700002846FFF796FF844228BF0446224631464A
:10D710002846FFF797FFF1E72846BDE8F840FFF7F6
:10D72000ACBF00BF442D00206DDF704779DF70472C
:10D730007DDF704764DF70472DE9F04F85B000262C
:10D740000E9CBDF83CB0B4F800A00191074690468D
:10D750001D46B1463A884A4505DC002E37D10020E7
:10D7600005B0BDE8F08F7A6852F8290003900022D6
:10D770000DF10B0103A8FFF7DDFF0028F0D19DF8A4
:10D780000B20424520D1228886F0010002EB0801DF
:10D7900001EB4001594524DC3EB9013292B2019BB4
:10D7A0002280AB5422880132228022880DF10B01A5
:10D7B0002A4403A8FFF7BEFF0028D1D121889DF895
:10D7C0000B200A442280012609F10109C2E72388BF
:10D7D000013BA3EB0A039BB2FF2B02D805F80A30EA
:10D7E000BDE70C20BCE72DE9F341089FBDF824807C
:10D7F0001546CDE90078022204461E46FFF79CFF3D
:10D8000050B93346102229462046CDE9087802B0A7
:10D81000BDE8F041FFF790BF02B0BDE8F0812DE90F
:10D82000F04F0023B2F80080138090F82D3085B0BF
:10D8300007460D46144663B3B8F1080F40F2AB81BA
:10D8400002A8FFF771FF0646002840F0DD8023881C
:10D850000822EA54238801339BB21B222380EA5416
:10D860002088013080B2208006220DF10901284471
:10D8700001F0E4FB23889DF8082006339BB2012ABF
:10D8800088BF0122238094BFEE54EA5423880133D9
:10D890002380BB780BB323880433434500F27B819C
:10D8A00002A8FFF743FF0646002840F0AD8023881A
:10D8B0000322EA54238801339BB219222380EA54BD
:10D8C0002388BDF8082001339BB2E9182380EA546D
:10D8D000120A4A70238802332380FA78A2B123887F
:10D8E000D91C414500F257810221E95423880133B4
:10D8F0009BB201212380E95423880B449BB22380EF
:10D90000EA5423880B4423807B68B3B193F9002049
:10D910002388D91C414500F23E810221E954238825
:10D9200001339BB20A212380E954238801339BB23F
:10D930002380EA542388013323803B89002B57D16D
:10D940003B8A5BB1CDE900482B460722032107F152
:10D950001000FFF748FF0646002855D13B8B5BB10E
:10D96000CDE900482B461522142107F11800FFF7D6
:10D970003AFF0646002847D13A6A002A48D17E6A13
:10D9800066B3B3882188981C8A1C0244424500F281
:10D990000281FE2800F2FF8003336B542388013399
:10D9A0009BB2FF222380EA54238801339BB2238059
:10D9B0003288EA54E918120A4A702088023080B28C
:10D9C0002080B28852B1B168002900F0E680284476
:10D9D00001F034FB2388B2881344238097F82C305D
:10D9E000002B58D13B78002B40F0918000260BE0B3
:10D9F000CDE900482B460622022107F10800FFF777
:10DA0000F2FE064600289BD0304605B0BDE8F08FF8
:10DA10002688B31D434500F2BE801188052940F2D7
:10DA2000BC806FF4486C01EB0C039BB24FF27D3C61
:10DA3000634540F2B2805388052B40F2AE806FF40C
:10DA40004860181880B2604540F2A7804FF6FF701A
:10DA5000814202D0994200F2A0800523AB55238871
:10DA600001339BB212212380E954238801339BB2F6
:10DA700023801188E954E818090A41702388023389
:10DA80009BB223805288EA54E918120A4A7023880C
:10DA90000233238073E7BB6A002B7ED04FF000096E
:10DAA0004FF00C0A4FF0160B97F82C305FFA89F202
:10DAB000934297D9B96A0AFB02F28E18B388981C70
:10DAC000FE2868D8208803332B54238801339BB267
:10DAD000238005F803B0238801339BB223808A5A40
:10DAE000EA54E918120A4A702088023080B2208075
:10DAF000B2884AB1B16800294FD0284401F09EFA9B
:10DB00002388B2881344238009F10109CCE73A88BD
:10DB1000012A42D02288901C40453CD8012B04D1D8
:10DB20007B7802331344984535D3A8F10208A8EB5B
:10DB300002081FFA88F802A92844ADF80880FFF708
:10DB4000F7FD064600287FF45FAF3A78BDF808304D
:10DB5000022A1CD07978994201D3434519D9012A68
:10DB600002D1884528BF8846ADF808800821BDF855
:10DB70000830FE2B0FD822880133AB5422880132A3
:10DB800092B22280A9542288134423802EE7434571
:10DB9000EAD80921EBE70C2636E7072634E770B50B
:10DBA000C8B1F2B10024651C8D4206DA1688A6427F
:10DBB00012D8061976789E420ED1A14211D9005D85
:10DBC00048B1013880B230B10234A3B210FA84F403
:10DBD000A14206DB138070BD045D14FA85F5ACB27A
:10DBE000E1E70020F7E713B513460022ADF8062061
:10DBF0000DF106020446FFF7D2FF10B1BDF8060092
:10DC0000204402B010BD72DF704773DF704738B533
:10DC1000012204460D46B0F8D810D0F8D400FFF722
:10DC2000E2FF00B1057004F13C0204F1D40104F1FB
:10DC30005400BDE83840FFF7E6BF80F83010704769
:10DC4000F8B504460F46002968D0002866D091F840
:10DC50007A301BB191F89830002B61D1D7F8A03001
:10DC6000042B5DD0D7F89C30042B59D04FF0000C1A
:10DC700084F802C007F178060FCE251D0FC50FCE20
:10DC80000FC596E8070085E8070084F830C0D7F88C
:10DC9000A4306363D7F8A830A3634FF6FF7504F18F
:10DCA000D403C4F8E430A4F8E8500722614604F134
:10DCB000EA0001F071F923780BB984F85450224638
:10DCC00004F155011F25C4F8D410384622F8D85F56
:10DCD000FFF7A5FD08BB224604F19301C4F8DC1050
:10DCE00007F13C0022F8E05FFFF799FDA8B9A369AE
:10DCF000A4F848304FF480730125A4F850306369CC
:10DD00002064014684F83C50636404F13C0204F151
:10DD10005400FFF778FF00B92570F8BD0E20FCE72E
:10DD20000720FAE7F8B5077804460D46002F00F003
:10DD3000F58000F1EA06817007220021304601F0EB
:10DD40002BF9E38813B1A378012B04D0E3794BB10D
:10DD5000A378022B06D1636BA3B1012284F8F120D2
:10DD600008209847334604F1F00113F8012F12B947
:10DD70008B42FAD117466B1E032B4FD8DFE803F016
:10DD8000050B0F1284F8F130ECE7A3791BB194F87E
:10DD9000243003B94FB9E3790BB1002F40D1237A76
:10DDA000002B3FD1657AAD00EDB2636BA570002BFF
:10DDB0003AD0033D012D37D86279AAB394F8F22006
:10DDC00092BB84F8F420012284F8F32007209847BE
:10DDD00004F13C0518220021284601F0DDF8E36A31
:10DDE000591E0122022928BF134684F8513094F8A5
:10DDF000243084F83C2033B1A36A591E022928BF7D
:10DE0000134684F85230A278002384F85030042A54
:10DE10001BD8DFE802F06B0D223250000025C4E76A
:10DE20000225C2E70325C0E7002384F8F330CFE7DB
:10DE3000C4E91063C4F8E4300223012284F83C30C2
:10DE4000802384F83120A4F84830A378002B50D1E7
:10DE5000636B002B5ED100205BE0022384F831303D
:10DE6000032384F83C302369A4F848300023C4F825
:10DE7000E430E36826646364E7E763696364A36985
:10DE8000A4F8483063797BB194F8F23063B994F820
:10DE9000F4304BB1022384F8503004212046FFF7C0
:10DEA000B6FE0028D1D1052204F1D40384F8312034
:10DEB000C4F8E430C9E7E3696364236AA4F848302E
:10DEC0006379002BF0D094F8F230002BECD194F869
:10DED000F430002BE8D0022384F85030042120468F
:10DEE000FFF795FE0028B0D10622DDE784F8313037
:10DEF000ABE7D4F8E4102A4604F15400FFF783FEA0
:10DF000038B994F8301094F85400FFF77EFE0028DA
:10DF10009ED0F8BD94F8310098479CE70820F8E7B8
:10DF200010B50388112B0C460AD0262B1FD0102BBE
:10DF300005D1C27B8388012A01D1A1F8E83010BD48
:10DF4000002381F8F2308288B1F8E8309A42F6D1A5
:10DF50000B79002BF3D101212046FFF7E3FE0028C7
:10DF6000EDD0A36B002BEAD0BDE810401847037A30
:10DF7000013B012BE3D8897805230131B1FBF3F391
:10DF800003EB8303C91AC9B2E6E775DF704776DF92
:10DF900070477ADF70477BDF70470000034B1A88B9
:10DFA00082420CBF18460020704700BFE02D0020C1
:10DFB000024B9B6903B11847704700BFC42D002076
:10DFC00073B585B22846FFF7E9FF044668B1174EDE
:10DFD000027A337B9A4211D200F10A012846FFF7F8
:10DFE000D4FF20B9237A0133237202B070BD112807
:10DFF000FBD002B0BDE87040FFF7DABF0023037228
:10E00000337C43B13B212846FFF7C1FF30F00803C2
:10E0100001D0FFF7CDFF7369002BE6D000228DF809
:10E020000420ADF8065001A89847DEE7C42D002073
:10E0300013B50B46497A02460E4871B9D0E9014141
:10E04000187A002808BF21465868FBF76DFE78B1A2
:10E0500002B0BDE81040FFF7ABBF00211972436961
:10E0600033B101218DF80410ADF8062001A89847BE
:10E0700002B010BDC42D00204B8802889A4212D8ED
:10E0800042889A420FD380888B8840F2F3118842ED
:10E0900094BF021A421A9A4205D80844984234BFE3
:10E0A00000200120704700207047000070B50388F1
:10E0B000122B014659D004D8102B1ED0112B44D05E
:10E0C00070BD502BFCD12F4BC288DB899A42F7D10F
:10E0D000038A022BF4D186883046FFF75FFF05469E
:10E0E0000028EDD001F1120000F071F938BB68682A
:10E0F000FBF748FE0028E3D00AE0C37B8688012BAB
:10E10000DED14FF6FF70FFF749FF054620B9042026
:10E11000BDE87040FFF74CBF1B4A06800023037226
:10E120001368C0F80A305368C0F80E3010310A3056
:10E13000FFF7A2FF134B6872DB89002BC0D1294681
:10E140003046BDE87040FFF773BF8088FFF726FFB9
:10E1500004460028B4D04068FBF714FE08B1FFF76E
:10E1600027FF4FF6FF732380AAE786883046FFF724
:10E1700015FF05460028A3D008310A30FFF77CFFC1
:10E180006872DCE7C42D0020BC2D0020F8B50646DF
:10E1900048B305460FCD154F3C460FC495E8070020
:10E1A00084E807003068124C3C60B0B1FFF7F1FE24
:10E1B00090B9326813682360536863600D480E4A53
:10E1C0004FF6FF7303800D4B40F8043F0021FBF72F
:10E1D00099FD002818BF0320F8BD2046FFF7DBFE9D
:10E1E0000028EBD0F8E70E20F6E700BFC42D002092
:10E1F000BC2D0020E02D0020C1DF0100F82D002003
:10E200000AB1FCF7D7B8FCF7DEB873B50191019CF1
:10E2100006466CB100252C46294601A8FCF7DDF81E
:10E2200018B106EB440301349D800135142DF3D160
:10E230003046346002B070BD2DE9F0430388848815
:10E24000103B8DB00A2B1ED8DFE803F006361D1DEB
:10E250001D1D1D1D1D5B3D002E4FBB68DB43009344
:10E2600079686846FCF7E5F8009901A8FFF7CDFF4B
:10E270000DF106080026019B9E4207D3132C12D9EC
:10E280000420FBF765FC0DB0BDE8F08338F8029F71
:10E2900000250135494607EB8500FCF794F81E2D53
:10E2A000F7D10136E7E721461B48FCF783F81B4806
:10E2B0002146FCF77FF8E6E7174821460DB0BDE898
:10E2C000F043FCF780B8027A15483F2A4FEA12154E
:10E2D000214694BF00220122FFF792FF022D94BF36
:10E2E000002201220F482146FFF78AFF012D0E4828
:10E2F00094BF0022012221460DB0BDE8F043FFF794
:10E300007FBF037A002BBED1427A0548C2F3C00218
:10E310002146F1E7182E0020202E00201C2E002080
:10E32000302E00202C2E0020282E002013280146FD
:10E3300002D80248FCF751B8002070471C2E00207C
:10E3400010B50446FFF7F2FF002814BF2046142042
:10E3500010BD70B50546164608460AB90E2070BDB8
:10E3600000231360002DF9D02B68002BF6D0EB882A
:10E3700013F003040ED1FFF7E3FFC0B214280BD053
:10E380002B7983420AD9EA882B6800FB0233336079
:10E390002046E4E70720E2E70520E0E70420DEE787
:10E3A000AADF7047002301380B70042806D8DFE885
:10E3B00000F00306080A0C0011230B70704721239C
:10E3C000FBE73123F9E71223F7E72223F5E700887B
:10E3D00000F001007047F0B58B7891B0012B0C462E
:10E3E00038BF01238DF80E3005460B88ADF80C3090
:10E3F000002116466846032200F0CEFD607C694687
:10E40000FFF7D0FFA07C0DF10101FFF7CBFF227DCC
:10E41000237B013202F0030243EA4203E27B43EA38
:10E42000C203227C43EA02139DF8022003F01F037B
:10E4300022F01F02134300211C2209A88DF802308C
:10E4400000F0AAFD637B13F0300F15D002AF03225A
:10E450000021384600F0A0FDE07C0DF10901FFF736
:10E46000A1FF11238DF808309DF80A300E97012284
:10E4700062F342038DF80A30637B8DF82430142256
:10E48000A37B8DF82530002104A800F085FD03ABA7
:10E490000493A388ADF81C30A368CDF814D01BB149
:10E4A000E288ADF818200893A36973B301AF032283
:10E4B0000021384600F070FDA2691388ADF82C30B9
:10E4C0005388ADF82E3053680D97107B0A93394668
:10E4D000FFF768FF0DF10501507BFFF763FF937BAA
:10E4E000117A013303F0030341EA4301937A41EACD
:10E4F000C301D37A41EA03119DF8063001F01F01F0
:10E5000023F01F0319438DF80610E36903B10C9340
:10E51000334604AA09A92846FFF742FF11B0F0BD0F
:10E52000A5DF7047B5DF704758B14FF0F7130360B0
:10E53000FB230371F723C3801723C160836000208E
:10E5400070470E207047000013B5034680880C46C4
:10E5500090B91A883A2A65D010D8102A3AD0112AD0
:10E560005BD0A37A43B1E1880020FFF7D9FF0028F0
:10E5700070D14FF48073638102B010BD552AF0D181
:10E58000DB88C988A072172B38BF17238B4228BF9E
:10E590000B462381FFF7C6FF60B1FCF79DFA3649B1
:10E5A000364B5B1ADB081B040246354943F0010079
:10E5B000FBF79EF9E37A002BD3D1E368002BD0D090
:10E5C00040F6772200922289ADF804206946204661
:10E5D0009847C6E7DB7B012B04BF0B88CB80C9883B
:10E5E00023898B42BDD20020FFF79AFF10B9012387
:10E5F000E372B6E7112802D10123A372B1E7FCF759
:10E600006BFA1D491D4B5B1ADB081B0402461D49B2
:10E6100043F00100FBF76CF9A3E7F723CB80172346
:10E620008B609EE75B89CA88934228BF1346172BED
:10E63000CA6838BF17230B814AB1C97A39B140F68D
:10E6400077210091ADF804306946204690470023B9
:10E65000638186E711288FD0FCF73EFA0649074B05
:10E660005B1ADB081B040749024643F0010002B0B5
:10E67000BDE81040FBF73CB9C003020028040200CB
:10E680008FFC01005EFC0100B0DF704766DF704761
:10E6900010B5002104464088FFF7F8FF034608B98B
:10E6A000237210BD112801D10123F9E76368BDE889
:10E6B0001040184760B159B10378DE2B0AD00B68BF
:10E6C0004360DE2303704FF6FF73438000207047E2
:10E6D0000E2070470820704728B10378DE2B04D144
:10E6E0004180002070470E20704708207047F0B529
:10E6F000054685B00C46002942D0002840D00B7852
:10E70000DE2B3DD182884B889A4204D10B7A13B11B
:10E710000846FFF7BDFF2B88112B33D0512B0FD0AC
:10E72000012B2DD12B7AAA88012B29D16188914206
:10E7300026D12046237205B0BDE8F040FFF7A8BF00
:10E74000AB8866889E421BD1AF79022F18D1AD7B72
:10E750002B1F022B14D800211022684600F01CFC4D
:10E76000052D14BF4FF4C0730023694630468DF861
:10E770000070ADF80430FFF787FF08B16368984771
:10E7800005B0F0BD6388AA889A4204BF4FF6FF73B4
:10E790006380F5E7A8DF7047ADDF7047AEDF7047F5
:10E7A00062DF704770B505468AB00C46002962D01A
:10E7B000002860D00388502B37D0572B70D0102BF7
:10E7C00059D181886069002601AA0196FFF7C1FD31
:10E7D000082231460DEB020000F0DEFB0223218906
:10E7E000A888CDF80CD002AA0293FFF7D5FF002825
:10E7F00041D1A369002B3ED00398FFF7E8FD002824
:10E8000039D0019B0BB101221A701822002104A8F3
:10E8100000F0C2FB02238DF81030AB88ADF8183041
:10E82000019B05940793A36923E08188606902AA8C
:10E83000FFF78FFD1822002104A800F0ADFBAB8884
:10E840002189ADF81830EB88029A05949942079215
:10E8500016D12E8A022E13D16AB105F11200FFF7EC
:10E86000B6FD029B48B101221A70A3698DF81060B1
:10E870000BB104A898470AB070BD18700326F4E7DE
:10E88000A2899A42F7D1A369002BF4D000228DF817
:10E89000102005F1120208922A8AADF82420E8E738
:10E8A0008188606902AAFFF754FD01460028E2D181
:10E8B000029B1B78002BDED0A369002BDBD0182233
:10E8C00004A800F069FB01238DF81030AB88ADF887
:10E8D00018300594029BA5E7F0B53A4B8FB002AD16
:10E8E00004460A4603F1100C2F46186859682E4654
:10E8F00003C6083363453546F7D1002C5FD0002AA4
:10E900005DD01368A36121463846FFF749FF002810
:10E9100053D12246012512F8023B8DF8063001A999
:10E920002846ADF80450FFF735FF002845D10146D1
:10E93000202206A800F030FB22460223ADF8183052
:10E9400012F80C3B8DF81A30BDF824301E4E60884A
:10E95000079623F44F6323F00F0343F440632B43E4
:10E9600006A9ADF824308DF829508DF82A50FFF70C
:10E9700032FD10BB0146202206A800F00DFB224606
:10E980000323ADF8183012F8043B8DF81A30BDF8A7
:10E9900024306088079623F4875323F01F0343F441
:10E9A00080532B43ADF8243006A940F201138DF8B3
:10E9B0002950ADF82A30FFF70EFD0FB0F0BD0E2044
:10E9C000FBE700BF93010200F4000100F0B50F4621
:10E9D00087B016461C46054618B3406901AA194679
:10E9E000FFF7B7FCD8B94FF6FF739C421BD0019BD1
:10E9F000CBB11B78CBB13388F42B18D80146102249
:10EA000002A800F0C9FAAB88ADF8083002A90123CA
:10EA10002046CDE904678DF80A30FFF7BFFE07B046
:10EA2000F0BD0E20FBE70520F9E70820F7E70720F7
:10EA3000F5E710DF7047000013B504460949684642
:10EA4000FBF7F5FF019808B902B010BDD0E900311D
:10EA50002046984718B16846FBF7F2FFF2E711200D
:10EA6000F2E700BFBC01020013B50446074968463F
:10EA7000FBF7DDFF019B0BB902B010BD2046D3E9C7
:10EA8000002190476846FBF7DBFFF3E7B001020087
:10EA90000B4991F81623EC2352091341DB0706D5E5
:10EAA000084B9A683AB94FF480030B60704742F202
:10EAB0000200FBF74DB81A6842F480021A607047F2
:10EAC00000E100E030290020F7B5194F3C7864BB25
:10EAD000184E012520463570FFF7AEFF112821D0D2
