:020000021000EC
:1090000000600020F99201004D9301004F93010090
:10901000519301005393010055930100000000009B
:109020000000000000000000000000005793010055
:1090300059930100000000005B9301005D93010063
:10904000D5AF01005F93010015C0010065B50100B7
:109050005F93010000000000C9BE010041B10100A2
:109060005F9301005F9301005F9301005F93010034
:109070005F9301005F9301005F9301005F93010024
:1090800025B0010091A201005F9301005F930100F0
:109090005F9301005F930100EDFA01005F9301000F
:1090A0005F9301005F9301000000000000000000DA
:1090B0005F9301005F9301000000000000000000CA
:1090C00000000000000000000000000000000000A0
:1090D0000000000000000000000000000000000090
:1090E0000000000000000000000000000000000080
:1090F0000000000000000000000000000000000070
:10910000000000000000000000000000000000005F
:10911000000000000000000000000000000000004F
:10912000000000000000000000000000000000003F
:10913000000000000000000000000000000000002F
:10914000000000000000000000000000000000001F
:10915000000000000000000000000000000000000F
:1091600000000000000000000000000000000000FF
:1091700000000000000000000000000000000000EF
:1091800000000000000000000000000000000000DF
:1091900000000000000000000000000000000000CF
:1091A00000000000000000000000000000000000BF
:1091B00000000000000000000000000000000000AF
:1091C000000000000000000000000000000000009F
:1091D000000000000000000000000000000000008F
:1091E000000000000000000000000000000000007F
:1091F000000000000000000000000000000000006F
:109200000348044B834202D0034B03B11847704715
:109210005823002058230020000000000548064B7A
:109220001B1AD90F01EBA301491002D0034B03B164
:1092300018477047582300205823002000000000E2
:1092400010B5064C237843B9FFF7DAFF044B13B18E
:109250000448AFF300800123237010BD5823002081
:10926000000000004817020008B5044B1BB1044978
:109270000448AFF30080BDE80840CFE700000000DD
:109280005C23002048170200A3F5803A704700BF16
:10929000154B002B08BF114B9D46FFF7F5FF002132
:1092A0008B460F461148124A121A06F095FE0C4BD7
:1092B000002B00D098470B4B002B00D09847002084
:1092C000002104000D000B4806F084FF06F0E2FDCB
:1092D0002000290003F0A4FA06F06AFF000008004D
:1092E0000000000000000000006000205823002063
:1092F0009C3200203D0202000E4800680E490968B9
:109300000A280AD1002908D10C4802686FF07003BE
:109310001A404FF040031A4302600949094A0A4BB8
:109320009B1A03DD043BC858D050FBDC01F01CFC49
:10933000FFF7AEFF3001001034010010E40E0040D2
:10934000D0180200C822002058230020FEE7FEE7C4
:10935000FEE7FEE7FEE7FEE7FEE7FEE7FEE7FEE7E5
:109360007047000007B5044B0093044A402300F007
:1093700030F803B05DF804FB8193010074230020F2
:109380002DE9F84388461446B2B10F4B0F4E032522
:10939000002743F00109224608EB0701002004F0F2
:1093A0003FFF0744241A48B933782BB14FF47A4071
:1093B000C847013D02D13570BDE8F8830123337001
:1093C000002CE8D1F8E700BF80070200B42300209A
:1093D0007047F0B595B01D46164608460C4601F09C
:1093E00000FB1A9B0D93CDE9086500252B4608224A
:1093F00005A920460A958DF82C500C9501F00DFB1F
:10940000079B0293069B03939DF814308DF811502F
:1094100003F00302012A1DD1BDF81420059DC3F3FA
:10942000C203C2F383168DF81030B20008230EA9D0
:10943000204601F0F2FAC5F3952508AB00933246B9
:1094400002AB0EA9284600F0C1FA204601F0CDFA81
:1094500015B0F0BD022AF8D1BDF81650C3F3C2030F
:10946000C5F389158DF810300827082D2E4628BF22
:1094700008263B4632460EA9204601F0CEFAAD1B27
:1094800008AB02AA31460EA8374400F003FB002DBA
:10949000EBD1DAE7037813F0040215D003F00303ED
:1094A000012B03D0022B09D0012070470B680288E2
:1094B0000233C2F3831213440B60F5E70B68428852
:1094C000023303EB9213F7E7104670472DE9F04F94
:1094D000434C87B0884600230546871C0DF10700E2
:1094E00016468DF8073000F057FD6268C8F8002076
:1094F000A36803F580739B1A04F21C4804F5836A81
:1095000004F21449BB4218D30021002E64D005F0A8
:109510000F05AD0145F0050565F30F0163689DF882
:109520000700DAB203323B4444F82210636000F0D3
:1095300057FD012007B0BDE8F08F0121404600F043
:1095400084FF504600F099FF484600F096FFA0685F
:109550000290C0B2033004EB800002A9FFF79AFF2B
:1095600020BB029BDAB204EB8202D16803919A1C01
:109570000133DBB204EB83030292D3F80CB001F0A9
:109580000303012B20D0022B13D08346484600F062
:1095900077FF08B1029BA3605946404600F055FF93
:1095A000A368626803F580739B1AABE79DF8080017
:1095B000D0E7BDF80E30C3F3891303334FEA1B4BDA
:1095C00002EB93030293E1E7BDF80C30C3F383137E
:1095D0004FEA1B4B1344F5E7AD0545F006019DE747
:1095E000B823002030B50A4C71B10A4A0A49121B4F
:1095F000D20800239A4201D1002030BD31F8235017
:10960000854202D00133F5E7034654F83300F4E70E
:1096100020180200B818020058230020094B013915
:1096200003EBC000032909D8DFE801F0020A0406B1
:1096300002207047007970474079704700207047DA
:10964000042070472018020070470000034BD3E944
:109650000130C31A58425841704700BFB823002058
:109660002DE9F04387B0FFF7F1FF002874D1744C67
:10967000C4F81804BFF34F8FA0680290C0B2033043
:1096800004EB800002A9FFF705FF029B18B1D4F894
:109690001824002A5CD0DAB29F1C013304EB82024A
:1096A000DBB204EB8303D268DB68049302F00303AC
:1096B000022B0392029758D1BDF80E306148C3F3D4
:1096C00089184646502E28BF502666F38F1306F1A0
:1096D0000801ADF80E3001F058F90546002800F0F9
:1096E000998001F07EF9002303A90822284601F0A1
:1096F0008AF9FB43DBB20133F9B20331B6EB830FD6
:109700004FEA830904EB81012CD908234A46A6EBD2
:109710000906284601F077F9F6B24B4909F108032A
:10972000324608F10308284607EB980701F06BF969
:109730000297D4F81834D4F81064002B55D028467A
:1097400001F053F9FFF782FF80F00100C0B204E09E
:1097500062689A4204D8A260002007B0BDE8F08396
:10976000D8B28CE708233246DBE7012B52D1BDF893
:109770000C303448C3F38311062928BF062161F356
:109780008913023101F00F018900ADF80C3001F0AE
:10979000FCF8054600283DD001F023F900230822FB
:1097A00003A9284601F02FF90026BDF80C20C2F3CA
:1097B0008312B300B24203F10803BAD902994A1CDA
:1097C000C9B20331029204EB81010422284601F060
:1097D0001AF90136E9E7F3685B7923B13368294662
:1097E0001B6830469847F3681E68002EF3D1284660
:1097F00001F0FBF80DF107008DF8076000F0CCFBDD
:10980000D4F818340BB9029BA3609DF8070000F050
:10981000E7FB97E7D4F8104454B90C4B0C480D49BA
:10982000C01AC008000440F0020000F05DF889E7AB
:10983000236820469B689847E3681C68ECE700BFF4
:10984000B82300200C180200C423002020180200B6
:1098500060180200A40702002DE9F34704460E46F3
:10986000924601A9012218469946FFF72FFE1C4F88
:1098700010B3019D4FF00008AA1CC84508EB020177
:1098800025D11848002100F0B1FD80F3100000043C
:1098900040EA1440E4006B1C04F03804DBB2EDB283
:1098A00044F0010407EB8303033544EA881444EAD7
:1098B0008624D86047F825403B781BB1FFF7D0FEDF
:1098C0000028FBD1FFF7C0FE02B0BDE8F087C9B2A7
:1098D00007EB81015AF82830CB6008F10108CCE78A
:1098E000B8230020D427002000231A46FFF7B4BF76
:1098F00007B50123019201AAFFF7AEFF03B05DF89F
:1099000004FB07B5CDE9002302236A46FFF7A4FF55
:1099100003B05DF804FB000010B5037A052B0C467C
:109920000FD0437A23B1084A0849204600F0F6FDDB
:109930000749204600F0F2FD2046BDE8104000F047
:10994000E2BD002AF8D0F3E7B9070200BE07020023
:10995000DE07020073B5C38804460D4633B1144ACE
:1099600000921449144A284600F0D8FD217A0529AE
:109970001CD0637A4BB1A088FFF750FE0F4B104903
:1099800053F82020284600F0C9FD227A0D4BA0880C
:1099900053F822600021FFF725FE0B4903463246AB
:1099A000284602B0BDE8704000F0B8BD02B070BDFE
:1099B000B9070200C9070200C1070200B81302007C
:1099C000BE070200DC130200E10702002DE9F043AC
:1099D00085B01F460C9D002395F80C902B7306460E
:1099E0000C46904629463846FFF7B4FFB8F1060FFB
:1099F00009D8DFE808F00412181F28334000314668
:109A0000284600F08BFD002229463846FFF784FFE8
:109A100085F80C9005B0BDE8F083226831462846F1
:109A200000F07CFDEFE7D4E900233146284600F042
:109A300075FDE8E7A3680093D4E900233146284682
:109A400000F06CFDDFE7E3680193A3680093D4E9BD
:109A500000233146284600F061FDD4E723690293D4
:109A6000E3680193A3680093D4E9002331462846B4
:109A700000F054FDC7E76369039323690293E36829
:109A80000193A3680093D4E900233146284600F0EF
:109A900045FDB8E708292DE9F84F80460E461746E0
:109AA0001C463BD8002593F80C901D7319461046B0
:109AB000FFF750FFDFF880A0DFF880B0AE422FD96B
:109AC00018F805205946204600F028FD0135082DDC
:109AD000F4D11B491B4DDFF870B0204600F01EFD8D
:109AE0004FF0000A564522D918F80A207E2A1CD8C1
:109AF0001BF8021011F0970F08BF2E2213492046C1
:109B000000F00CFD0AF1010ABAF1080FEAD10122B6
:109B100021463846FFF700FF84F80C90BDE8F88F27
:109B20005146204600F0FAFCD0E72E22E6E729460F
:109B3000204600F0F3FCE5E7F1070200EB07020026
:109B4000F5070200F307020045160200F7070200BE
:109B50001FB50021039001AA44F20100CDE90111D3
:109B600002F03AFE05B05DF804FB10B5D0E9024200
:109B7000D1E90203A04293412CBF0120002010BD77
:109B800008B50A4800F06DFB094AD2E90031C01857
:109B9000084BD3E9002341F10001904271EB03032C
:109BA00003D210F1807041F1000108BDD0220020E5
:109BB000202900201829002073B5294B1E7804465F
:109BC0001EB90026304602B070BD0028F9D0FFF75C
:109BD000D7FFD4E902239042994139D300230DF1F4
:109BE00007008DF8073000F0D7F923692BB94FF043
:109BF000FF324FF0FF33C4E902239DF8070000F065
:109C0000EFF9D4E90530984700250DF107008DF8EC
:109C1000075000F0C1F92369C3B1D4E90212B2F1CF
:109C2000FF3F08BFB1F1FF3F05D05B1842F10002D2
:109C3000C4E9023235469DF8070000F0D1F9002D45
:109C4000BFD00848214600F007FFBBE71D46F2E7FA
:109C5000B3F1FF3F08BFB2F1FF3FB2D0F1E700BF61
:109C600028290020F013020037B505460C460A48A3
:109C700001A900F02AFB68B10570446001A90648FB
:109C800000F04DFB10B9002003B030BD034800F0D8
:109C9000EDFAF8E70420F7E7AC280020D0220020F6
:109CA00013B5114B11491868019008231048582228
:109CB00000F0F8FA044698B90E4A0F4801A900F0DE
:109CC000B1F9044660B90C48012100F0ABFA012358
:109CD0000A4A0948194600F007FA094B01221A708E
:109CE000204602B010BD00BFFC130200BC280020BB
:109CF000AC280020E19D0100D0220020FFFF7F0062
:109D00002829002030B56AB103684FF0FF344FF0C6
:109D1000FF355A614A1E5142C3E90245514119615A
:109D2000002030BD0720FCE7F7B5044600250DF103
:109D3000070017460E468DF8075000F02DF9D4E9BC
:109D40000223B3F1FF3F08BFB2F1FF3F07D1FFF796
:109D500017FF301841F10001C4E9020101259DF807
:109D6000070000F03DF955B12369A76103B12661F1
:109D70002146002003B0BDE8F040FFF775BF28463C
:109D800003B0F0BD37B5054600240DF107008DF88E
:109D9000074000F001F9D5E90223B3F1FF3F08BF06
:109DA000B2F1FF3F06D04FF0FF324FF0FF33C5E96D
:109DB000022301249DF8070000F012F934B129466E
:109DC000012003B0BDE83040FFF74EBF204603B08E
:109DD00030BD0000014800F044BA00BFD02200208E
:109DE0002DE9F743064600F026FA40B1624AD2E96F
:109DF000003113F1807341F10001C2E9003100210B
:109E0000304600F028FA38B15C4C236823B1206852
:109E1000FFF7D2FE002323600121304600F01BFA39
:109E200020B1FFF7ADFE564BC3E900015548534F33
:109E300001A900F084FA4FF0FF344FF0FF35A0B9CC
:109E4000DFF844814D4D404600F01CFE002800F034
:109E50008980D0E90223B3F1FF3F08BFB2F1FF3F91
:109E600036D1404600F008FEEDE70378012B21D003
:109E7000022B09D1DFF81081404600F0FDFD20BB28
:109E8000424B01221A700CE05BB94168D1E9022310
:109E9000B3F1FF3F08BFB2F1FF3F02D03A4800F0F4
:109EA000DBFD01A9374800F075FA01A9354800F03B
:109EB00046FAC4E741683B68994202D100233B60FF
:109EC000EFE7314800F0E1FDEBE7C0E90245D3E7F9
:109ED000296891B12968D1E9020182428B412FD2D0
:109EE0002B68D3E90223B3F1FF3F08BFB2F1FF3F74
:109EF00003D02968404600F0AFFD404600F0BCFDAD
:109F0000D0E902490746FFF73BFE201A69EB010939
:109F1000012879F1000918DBB0F5350F13D3FFF7ED
:109F200059FF1B4A02441B484FF49603002100F0DE
:109F3000FFF890B92B6813B9304600F0CDF82F60C8
:109F400003B0BDE8F0832246EDE71248002100F09F
:109F500077F93846FFF730FE01E00D28F9D00023ED
:109F60002B6070E7054B1B68002BE9D1304603B02E
:109F7000BDE8F04300F0B4B8202900202C290020CF
:109F800018290020AC280020F01302002829002006
:109F9000FFFFB400D022002070B5EFF3108672B638
:109FA0000C4A9468012384B993600B4B0B4DD3F892
:109FB000801029401160C3F88050D3F8841051609C
:109FC0004FF0FF32C3F884202346037006B962B60F
:109FD00070BD00BF3029002000E100E0FC06FFBD9D
:109FE00010B5084B9A685AB150B9EFF3108172B6A8
:109FF000054A1C6814605C685460986001B962B6D8
:10A0000010BD00BF3029002000E100E003464058A9
:10A0100082B028B100225A505B580193019B012065
:10A0200002B0704770B5244B4579244E43F8252083
:10A030000446234B234806EBC505C01AC308180481
:10A040002B7933B140F002001F49FFF74DFC082087
:10A0500070BD23680A88C3F8082594F904308A780B
:10A06000002B4FEA4212ADBF03F1604303F00F0330
:10A07000164903F56143B9BFD2B2CA54D2B283F8CC
:10A08000002394F90430002B08DB0122590903F066
:10A090001F0302FA03F30E4A42F82130637906EBFC
:10A0A000C3020121117140F003000A4946F8334010
:10A0B000FFF71AFC0020CBE7442900203C290020B0
:10A0C00020180200701802006008020014ED00E081
:10A0D00000E100E082080200036801221A60704774
:10A0E000036801225A607047F7B504684FF4803561
:10A0F0008D40C4F808530468C4F8485301F1500473
:10A10000A4000668A4B20027375134590194019C79
:10A11000046801F5A87122F07F4244F8212002680A
:10A12000C2F8445313B10368C3F8045303B0F0BD3D
:10A130002DE9F34799464FF48038036808FA01F88F
:10A14000C3F848830368C3F8088322F07F45026898
:10A150000E46D2F8041502EB860206F15007D2F83B
:10A160004035C2F84015BF000268BFB24FF0000A88
:10A1700042F807A05B1AD259009223F07F43012BCB
:10A18000009A04460BD1264B4FF4806043F0010344
:10A190009847236843F807A0DB590193019B236884
:10A1A000D3F80475C3F84483EB1B23F07F43012BE2
:10A1B00006F5A876236819D1013543F82650184BC7
:10A1C0004FF4806043F0010398472368D3F80435C7
:10A1D0009F4209D12368C3F8448323680020C3F851
:10A1E000048302B0BDE8F0870D20FAE743F826505B
:10A1F0002068D0F804156A1A013AC9F1FF1322F059
:10A200007F4203F57F439342EED3002AE2D101352A
:10A2100040F826502368D3F804359942D9E700BFA7
:10A220000014020002680223C2F8443311B102682C
:10A23000C2F80433704700684FF48271FFF7E6BE3E
:10A240004FF4803303FA01F10368C3F8481303683D
:10A25000C3F80813704750318900006889B2FFF7CE
:10A26000D5BE0368D3F804057047000090F90430A8
:10A27000002B09DB5A09012103F01F03994002F169
:10A280004003024A42F82310704700BF00E100E09B
:10A29000024B034A1B681068184700BF442900207E
:10A2A0003C29002010B561B1B2FBF3F403FB142488
:10A2B000A4B244B9C0E9001484608281C3812046FD
:10A2C00010BD0E20FCE70920FAE737B550E8013F42
:10A2D0009DB2C48925448489A54228BF2D1B0489C9
:10A2E000A54202BFBFF32F8F002207E0C5EA030596
:10A2F00040E80154002CE9D14FF001028DF8032011
:10A300000193019A0A609DF8031001F0FF0321B147
:10A31000006810FA82F003B030BD1846FBE70A88E7
:10A320004B889A4209D150E8012FC2EA024240E824
:10A330000123002BF7D1012070470020704737B56B
:10A3400050E8023F1FFAA3F5C488A54202BFBFF33D
:10A350002F8F00220DE0C48925448489A54228BF9F
:10A360002D1BC3EA054540E80254002CE8D14FF00C
:10A3700001028DF803200193019A0A609DF80310F1
:10A3800001F0FF0321B1006800EB124003B030BDC3
:10A390001846FBE70A884B889A4209D150E8022FF9
:10A3A000C2EA224240E80223002BF7D10120704785
:10A3B0000020704701F01F024B090121914000EB82
:10A3C000830000F01EB801F01F0301229A404B09E0
:10A3D00000EB8300D14300F02CB84B0901F01F01C2
:10A3E00050F82300C84000F00100704710B5034644
:10A3F00053E8000F0A4643E8002494F0000FF7D119
:10A4000010BD10B5034653E8002F42EA010043E8AF
:10A41000000494F0000FF6D110BD10B5034653E8C8
:10A42000000F00EA010243E8002494F0000FF6D187
:10A4300010BD10B5034653E8002F02EA010043E8BF
:10A44000000494F0000FF6D110BD10B5034653E898
:10A45000002F02EB010043E8000494F0000FF6D156
:10A4600010BD10B5034653E8002FA2EB010043E8EE
:10A47000000494F0000FF6D110BD0121FFF7C1BF19
:10A480000021FFF7CABF37B5044600250DF10700CC
:10A490008DF80750FFF780FD2268616813688B42D2
:10A4A00010D9591E116013F8013C228AE56802FB9D
:10A4B00003552268A36811685B1A1179DBB29942CF
:10A4C00038BF13719DF80700FFF78AFD284603B0D7
:10A4D00030BD37B5054600230DF107000C468DF859
:10A4E0000730FFF759FD2A681368591C1160EA68A4
:10A4F000A41A2A8AB4FBF2F41C709DF80700FFF737
:10A500006FFD03B030BD10B5826804462AB14369BF
:10A510000168006998470023A36010BD0EB403B51D
:10A52000039921B104AB01AA019300F077F802B0BE
:10A530005DF804EB03B070470A2938B504460D46B0
:10A5400002D10D21FFF7F8FFA3682268591CA16012
:10A55000D554D4E901329A4204D32046BDE83840AC
:10A56000FFF7D1BF38BD00002DE9F84F9946DDE96E
:10A570000A431546824688460A460127AA420FD258
:10A580004F4538BF4F4613F0010B01D164B9002489
:10A590000126B9F1010F1CD909F1FF396E43F8E723
:10A5A0000137B2FBF5F2E9E79B0710D5B9F1000FCF
:10A5B0000CBF30262026BC42EAD9013C3146504629
:10A5C000FFF7BAFF002CE2D0BC42F6D1E0E720262C
:10A5D000F1E7B8FBF6F39D42E0D9DFF83C90B8FB19
:10A5E000F6F3504619F8031006FB1388FFF7A4FF93
:10A5F0003346AB42B6FBF5F6F1D2BBF1000F00D00B
:10A6000034B9BDE8F88F20215046013CFFF794FF94
:10A61000BC42F8D8F5E700BF061402002DE9F74F59
:10A62000064690460F46002900F0528117F8011B9C
:10A6300049B9337B002B00F04B81304603B0BDE8B5
:10A64000F04FFFF760BF252940F0BC8000253A4657
:10A6500012F8013B2D2B25D0302B27D02B2B28D0C7
:10A6600000242A2B07F1010226D1D8F80030191D49
:10A67000C8F800101B6817461C443B782E2B27D1C6
:10A6800001374FF0000A0A20394611F8012BA2F1D8
:10A69000300CBCF1090F1DD800FB0A22A2F1300AD0
:10A6A0000F46F1E745F001051746D0E745F00205F2
:10A6B000FAE745F00405F7E712F8013CA3F1300191
:10A6C0000929DAD80A2101FB0434303C1746C8E7CF
:10A6D0004FF0000A3A4612F8011B01F0FB0068280F
:10A6E0001746F8D0782909D86F290BD8632963D089
:10A6F00020D8252966D0582900F094803B78002B7B
:10A7000094D196E770390829F8D801A252F821F0BF
:10A71000A7A80100FDA60100FDA6010039A80100BF
:10A72000FDA601000FA80100FDA60100FDA6010085
:10A7300025A80100642901D06929DFD1D8F80020BB
:10A74000111DC8F80010D2F800B08BEAEB72A2EB32
:10A75000EB724FF001090A21092A37DCD14538BFD5
:10A76000D1462CB1BBF1000F01DB6A0700D5013CDB
:10A77000AB0702D5BAF1000F03D0E80701D454BBF0
:10A780000024BBF1000F32DACBF1000B2D21304653
:10A79000FFF7D2FE05F00302022A04D1BAF1000F3E
:10A7A00001D144BB0024CDE9004553460A22594655
:10A7B0003046FFF7D9FEA1E7D8F800301A1DC8F8D7
:10A7C000002019783046FFF7B7FE97E709F1010935
:10A7D000B2FBF1F2C0E7A145D3D2013C20213046C3
:10A7E000FFF7AAFE002CCBD0A145F6D1C9E7690737
:10A7F000D0D52B21CBE7A145D5D2013C3021304625
:10A80000FFF79AFE002CCDD0A145F6D1CBE7D8F8C2
:10A8100000100A1DC8F80020CDE9004553460A2261
:10A820000968C5E7D8F800100A1DC8F8002053468B
:10A83000CDE900451022F3E7D8F800301A1DC8F81A
:10A84000002015F00105D3F8009024D1B9F1000FD4
:10A8500003D0484605F054FB0546AC421DD809F12B
:10A86000FF3919F8011F00293FF448AF3046FFF7C0
:10A8700063FEF6E730460135FFF75EFE19F8051076
:10A880000029F7D1A542BFF439AF20213046013C61
:10A89000FFF752FEF6E70025F0E720213046013CA5
:10A8A000FFF74AFED9E7D8F800301A1DC8F8002093
:10A8B000302130461C68FFF73FFE78213046FFF715
:10A8C0003BFE00220823CDE90032214610226FE72B
:10A8D00003B0BDE8F08F00BF2DE9F84FB0F806A037
:10A8E0004579D2F800B09DF828900AFB05F5043DA3
:10A8F00088460BEB0301A94203F1040488BFA5EBD2
:10A90000030BB4FBFAF607460AFB1644C2F800B084
:10A910004EB9AAEB04055D4528BF5D46BBF1000FAB
:10A9200004D1BDE8F88F3F68013EF1E7043408EB3D
:10A9300006003C442A46B9F1000F0DD02146ABEB8E
:10A94000050B05F09BFBDA452E443F6855464FF05A
:10A95000000428BF5D46E1E701462046EFE7F8B571
:10A9600046790146721E0546002393422D6803D3A3
:10A970000024A64202D8F8BD0133F6E70F68284646
:10A98000FFF7A7FD01343946F3E72DE9F041CD1C6F
:10A99000078A0646FFF777FD043F3D440446B5FBB2
:10A9A000F7F5D0B14FF48073EDB2C7808380013DDD
:10A9B000066080460027AF4210D23046FFF763FDA5
:10A9C00040B16379013363710137C8F80000066054
:10A9D0008046F0E72046FFF7C2FF00242046BDE88E
:10A9E000F08101210430FFF730BD10B5012104468C
:10A9F0000430FFF736FDC0B220B92046BDE8104054
:10AA0000FFF7ADBF10BD1FB503920022009203AA4D
:10AA1000FFF762FF05B05DF804FB1FB5039201224A
:10AA2000009203AAFFF758FF05B05DF804FB016030
:10AA30000B6843604A68934208BF00234360704735
:10AA4000436843B1026891680B4443605268934283
:10AA500004BF00234360704770B5446806460D4646
:10AA6000206818B1B3682946984718B923682B6045
:10AA7000256070BD2468F3E74368186808B1026870
:10AA80001A6070474368186870474368186800B9CF
:10AA90007047884203D102681A600120704703465C
:10AAA0000068F4E710B50B4AA2F594739A4201D8F6
:10AAB00000200CE0D11A091103EBC10453F8311046
:10AAC000814205D802D204F10803EFE7606810BDA7
:10AAD0002246EBE74015020008B5FFF7E3FF024B03
:10AAE000002808BF184608BD40150200BFF34F8F6D
:10AAF0000549064BCA6802F4E0621343CB60BFF31A
:10AB00004F8F00BFFDE700BF00ED00E00400FA0535
:10AB10004FF0704393F8E02F062A08D1D3F8E80FDE
:10AB200000F0F000A0F13003584258417047002077
:10AB300070474FF08053D3F83001421C04BF4FF0F0
:10AB4000704393F8E00F062804D0A0F10A0358429E
:10AB50005841704701207047024AD2F80034002B58
:10AB6000FBD0704700E0014010B54FF08053D3F8A0
:10AB700030315C1C04BF4FF0704393F8E03F062B6C
:10AB800008D14FF080539C4AD3F82433C3F30423F5
:10AB9000C2F84035FFF7BCFF10B1984B984A5A678E
:10ABA000FFF7C7FF48B14FF080534FF08042D3F812
:10ABB0004432C3F34233C2F83C35FFF7A9FF30B14A
:10ABC000904AD2F8FC3023F08073C2F8FC30FFF7D3
:10ABD000B0FF40B14FF080430022C3F80C21C3F80E
:10ABE0001021C3F83825FFF793FF20B14FF08043C1
:10ABF0000322C3F8A025FFF78BFF60B1824B05222B
:10AC0000C3F810260122C3F888260022C3F81826AC
:10AC10003F22C3F814264FF08053D3F83021501C44
:10AC200009BF4FF07043D3F8343193F8E02FD3F8D5
:10AC3000E83F08BFC3F30313062A7DD1033B012B72
:10AC40007CD84FF08053D3F83031591C04BF4FF0FB
:10AC5000704393F8E03F062B09D14FF080534FF03B
:10AC60008042D3F8583203F04F03C2F8E43EFFF7B6
:10AC700060FF48B14FF08043D3F80024D20744BFAF
:10AC80006FF00102C3F800244FF08053D3F8302155
:10AC9000062A0BD1D3F83431033B022B81BF5B4A28
:10ACA000D2F83C3743F48063C2F83C374FF080530E
:10ACB000D3F830210A2A0AD1D3F834313BB14FF00E
:10ACC0008042D2F8E43E43F00F03C2F8E43E4FF076
:10ACD0008053D3F83021062A0CD1D3F83431033B0A
:10ACE000032B81BF4FF01023D3F808224FF080438D
:10ACF000C3F858254FF01021D1F80032002B03DBA8
:10AD0000D1F80432002B61DA414901234FF01020C1
:10AD1000C1F804351524FFF71FFFC0F80042FFF704
:10AD20001BFFC0F80442FFF717FF0023C1F80435EA
:10AD3000FFF712FFFFF7DAFE0A2A82D14FF08052A6
:10AD4000344BD2F80414C3F82015D2F80814C3F811
:10AD50002415D2F80C14C3F82815D2F81014C3F82F
:10AD60002C15D2F81414C3F83015D2F81814C3F8FF
:10AD70003415D2F81C14C3F84015D2F82014C3F8C7
:10AD80004415D2F82414C3F84815D2F82814C3F88F
:10AD90004C15D2F82C14C3F85015D2F83014C3F85F
:10ADA0005415D2F83414C3F86015D2F83814C3F827
:10ADB0006415D2F83C14C3F86815D2F84014C3F8EF
:10ADC0006C15D2F84424C3F870253AE7D1F80C3258
:10ADD000DB070DD50E480123C0F804350024FFF72A
:10ADE000BBFEC1F80C42FFF7B7FEC0F804459FE771
:10ADF000094B0A4A1A6010BD0030014000C00740EC
:10AE00000DF0ADBA00ED00E0005000400010004031
:10AE100000E0014000C00040D82200200090D00394
:10AE200038B5074C051EA4F1080308BF1C4623686B
:10AE30002BB11A6822605B6828469847F7E738BD4F
:10AE40005829002020B9054B01225A70FFF7E8BFAE
:10AE5000012802D1014A9070F8E770474829002084
:10AE600020B9034B01225A70FFF7DABF704700BFC9
:10AE70004829002038B50E4C2378B3B90D486360DB
:10AE8000A3602361E36000F075F8054604F014FE4A
:10AE900008B900F07BF801232370074BD3F8003486
:10AEA0000BB10123A370284638BD8525F5E700BF07
:10AEB0004829002045AE01000000014037B50D4C87
:10AEC00000230DF107008DF80730FFF765F8E36800
:10AED000013BE360E36833B9074BD3F8005415B97D
:10AEE00000F066F8A5709DF80700FFF779F803B049
:10AEF00030BD00BF4829002000000140012813B5E3
:10AF00000CD0032820D038B9134B0122C3F880207D
:10AF1000BFF34F8FBFF36F8F02B010BD0F4C0023F4
:10AF20000DF107008DF80730FFF736F823780BB9DD
:10AF3000FFF7A0FFE3689DF807000133E3600123FA
:10AF4000A370FFF74DF8E7E700F020F802B0BDE886
:10AF50001040FFF7B3BF00BF00E100E04829002028
:10AF600000F18040002382B0036003680193019BDD
:10AF700002B07047044B0246187918B91A600122D2
:10AF80009A807047852070475C290020074B1A681B
:10AF9000D20704D4C02283F8002301221A604FF0A4
:10AFA00080430122C3F81825704700BF00E100E08C
:10AFB0004FF0804208B50223C2F808334FF4827084
:10AFC000FFF7CEFF0123D360D2F81834DB03FBD4A4
:10AFD00008BD000010B54FF08041D1F8003163B1D9
:10AFE0004FF48070FFF7BCFF01220D4BC1F808231E
:10AFF000587910B95A711B6898474FF08042D2F8BF
:10B00000043163B14FF48270FFF7AAFF0223C2F844
:10B010000833034BBDE810401B680120184710BDE2
:10B020005C29002013B5084CD4F800314BB1074B14
:10B030001B6898470023C4F80031D4F8003101930D
:10B04000019B02B010BD00BF000001406429002038
:10B0500070B5114B1960114B1C780546D4B9104ED0
:10B0600001221A700378C6F80C3541684FF47A72E1
:10B070000023C803490C05F0FFF9C6F804052B7A34
:10B08000084A5B01DBB282F810334FF4803313605F
:10B09000204670BD0820FCE76429002069290020B3
:10B0A0000000014000E100E0044B0122C3F804234A
:10B0B0001A60034B02221A70704700BF0000014063
:10B0C0006929002037B5054600240DF107008DF8E9
:10B0D0000740FEF761FF0C4B1A78072A11D8511C64
:10B0E00019700A492A70D1F80805012393400343D7
:10B0F000C1F808359DF80700FEF772FF204603B03F
:10B1000030BD0424F6E700BF68290020000001409C
:10B11000034B044A00F5C07043F82020704700BF7D
:10B12000000001403546526E00F1804000F5E040DD
:10B13000002382B0036003680193019B02B0704753
:10B14000F0B5544B544CD3F8043194F82E2085B00C
:10B15000002B3BD04FF48270FFF7E6FF2AB394F840
:10B160002F3013BB4B4AD2F80031002B32D04FF4B2
:10B170008070FFF7D9FF638B94F82D00834250D97C
:10B1800021891B1A9BB289B26383CB1A616801EBD8
:10B190004301C2F82C16C2F830064FF48270FFF754
:10B1A000C3FF3C4B01225A6014E063680293238979
:10B1B000ADF80C30E36800218DF8041033BB237424
:10B1C000236801A89847002384F82F3094F82E3084
:10B1D000002BC7D12F4BD3F810315BB14FF48870DF
:10B1E000FFF7A2FF0023237402238DF8043001A887
:10B1F00023689847274BD3F814310BB34FF48A7068
:10B20000FFF792FF0023237405B0F0BD208B60830D
:10B2100063602081E160002AD2D11E4B01221A60B6
:10B22000CEE7BAD1E168012084F82F0031B10020C7
:10B230006083C2F82C16C2F83036AEE76183ACE703
:10B2400066694FF000470125002EDDD0B6FA86F280
:10B2500027FA02F34632920026EA030602F18043FF
:10B2600003F5E0431B68002BEED01046A2F58C726C
:10B27000FFF75AFFD30882F00402C2F380028DF870
:10B2800008308DF8045023688DF8092001A89847EC
:10B29000DAE700BF007000406C29002038B5204A72
:10B2A00092F82C300446002B37D111601D490078EC
:10B2B000C1F8F0056078C1F8F405E078137482F8FD
:10B2C0002D30536182F82F3001256FF0004382F852
:10B2D0002E0082F82C504FF48270C1F80833FFF72B
:10B2E00023FF4FF48070FFF71FFF4FF48A70FFF7C2
:10B2F0001BFFA3780C485B01DBB280F80733802387
:10B3000003600223C1F8043392F82E300BB1C1F868
:10B310000453C1F80055002038BD0820FCE700BFE9
:10B320006C2900200070004000E100E010B52C4BBB
:10B330001A7C02F0FF04002A4FD10A79012A9CBF2F
:10B34000284AC2F8004500F10C0403EB44021279CC
:10B3500022B993F82D20013283F82D2003EB44030A
:10B36000CA791A710A7A5A714B788A781B011202CB
:10B3700002F4E06203F0300313430A7802F00302A0
:10B380001343CA78120302F4805213430A79120459
:10B3900002F4E02213434A79120502F480121343A7
:10B3A0008A79120602F0807213430E4A02EB0014EF
:10B3B000000100F18040C4F8183500F5E040CB7979
:10B3C0000C7AC0F81445C0F810350B79012B9CBFDE
:10B3D0000123C2F80035002010BD1120FCE700BF9A
:10B3E0006C2900200070004070B5334A147C04F0D2
:10B3F000FF03002C5ED1314C012503261574C4F8DF
:10B400000863C4F82C16C4F8305692F82D10A942DF
:10B410000CD91C46190101F1804101F5E0410133CD
:10B42000082BC1F81445C1F81045F3D100F10C0305
:10B43000000102EB430300F1804000F5E040197980
:10B440005B79C0F81435C0F810151C4901230B6056
:10B450004B6042F21073D1F8040108B9013BFAD1F4
:10B460004FF48070FFF760FE4FF48270FFF75CFED0
:10B4700092F82D30012B11D90F4800210B0103F157
:10B48000804303F5E0430131047F457FC3F8145541
:10B490000829C3F8104500F10200EFD192F82E10F0
:10B4A000064B29B103210020C3F80413107470BDAA
:10B4B0000221F8E71120FAE76C2900200070004013
:10B4C00008B50A4B197C01F0FF0269B902214FF45B
:10B4D00088701974FFF728FE054B1021C3F8041378
:10B4E0000121D960104608BD1120FCE76C2900201D
:10B4F000007000400023435082B043580193019BE9
:10B5000002B070470A7B0346032A29D8DFE802F01D
:10B51000212519028A68500304D5D3F84C250869FF
:10B52000904207D18A6852031AD4D3F84C2549694E
:10B53000914215D000200622C3F80005C3F800256B
:10B540007047D3F84C2508699042F3D1D3F83C25D5
:10B55000EDE7D3F84C250969EAE7D3F83C25FAE78B
:10B5600001207047F0B5584D584CD5F8243187B0BC
:10B57000FBB14FF492712846FFF7BCFFD5F80431B8
:10B58000BBB9A368C5F808330223A360A368C5F854
:10B590000433D5F860311BB1D5F800329F0503D4D0
:10B5A000494B01221A625A61012384F82E3007B0F8
:10B5B000F0BDD5F80431002B56D043484FF48271CA
:10B5C000FFF798FF256A6E0609D494F82E3033B938
:10B5D0003E49FFF797FF80F0010084F82E006D07C9
:10B5E00020D43B4E0FCE01AD0FC5336836482B60DB
:10B5F0004FF4B071FFF77EFF4FF4AE71FFF77AFFA3
:10B6000094F8303013B194F82E305BB12E4B0022F9
:10B61000C3F80022A2602F4AC3F808232E4B082249
:10B62000C3F88021284AD2F8C434C2F8C434980739
:10B6300044D4590744D4DA0744D494F82E309B00FC
:10B64000DBB28DF8003094F830300BB984F82F302D
:10B65000236A5B0703D594F82E30002BA7D0D4E9DA
:10B66000003168469847A2E717484FF4A471FFF7E6
:10B6700041FF237B83B9164F0FCF01AE0FC63B6846
:10B68000336094F83030002BCCD1C5F80032A36081
:10B69000104BC5F80833C1E74FF40073C5F800320A
:10B6A00040F20223A36003F1CE73C5F80833A36808
:10B6B000C5F804330123AB602B6278E70123C0E7B0
:10B6C0000223BEE70323BCE7003000409C29002092
:10B6D000A829002002029C0100E100E02DE9F84FBA
:10B6E0000779364E4FF0340A0AFB07FA06EB0A08D0
:10B6F0009B4698F82D3005460C469146002B58D1B4
:10B700002F49006800F08CFC002854D146F80A90BC
:10B71000C8F80800C8F804B088F82F0088F830008E
:10B72000637B88F8323023684FF0A04203F5E07362
:10B7300040F20C6142F82310636803F5E07342F8AD
:10B740002310D4E900212B68C3F80825C3F80C1591
:10B75000A268C3F82425B9F1000F22D02B68227B00
:10B7600043F30733002BAEBF03F1604303F00F0335
:10B7700014494FEA4212A8BF03F56143D2B2B4BFE5
:10B78000CA5483F800232B6843F30733002B08DBEC
:10B790000122590903F01F0302FA03F30A4A42F88F
:10B7A0002130342303FB0766012386F82D30BDE8E2
:10B7B000F88F0820FBE71120F9E700BF9C29002043
:10B7C00065B5010014ED00E000E100E003680279D6
:10B7D0000621C3F80015044B342101FB0233022279
:10B7E00083F82D20704700BF9C29002001790B4B66
:10B7F0000268342000FB0133094900209860C2F838
:10B800000813D2F8001221F4BC51C2F80012C2F899
:10B810000005012283F82D20704700BF9C290020DD
:10B8200002029C0170B506791E4D34237343044611
:10B83000EB5893B1036843F30733002B0DDB5A0930
:10B84000012103F01F03994002F12003164A42F838
:10B850002310BFF34F8FBFF36F8F2046FFF7C6FF54
:10B86000206800F0FDFB342303FB065393F83230CD
:10B8700083B92368D3F808354FF0A04203F5E0738D
:10B88000022142F823102368D3F80C3503F5E07346
:10B8900042F82310342303FB0655002385F82D308E
:10B8A00070BD00BF9C29002000E100E02DE9F843B5
:10B8B000DFF8C08290F804900468342707FB0987FA
:10B8C000002387F82E30CB6803F06043B3F1005FAC
:10B8D0000D46164603D010273846BDE8F883A64B20
:10B8E000C4F8083397F82F3023B1BB68C4F8043389
:10B8F0001127F1E712F0140F0CBF0123002387F882
:10B900002F308E46BEE80F0007F10C0CACE80F009C
:10B91000DEF80030CCF80030C6F3001387F8303082
:10B920003E626B78C4F8883520464FF48271FFF789
:10B93000E1FD4FF49271FFF7DDFD4FF4B071FFF7B9
:10B94000D9FD4FF4A471FFF7D5FD16F0010318BF20
:10B950000123C4F8503516F0020318BF0123C4F8C0
:10B9600040352B78032B00F2B580DFE803F087A089
:10B9700069022B6903F06043B3F1005FABD14FF470
:10B980008073C4F800326B68EA68C4F844254FF449
:10B99000A871C4F84835FFF7ADFD01232362A36009
:10B9A000D4F85031002BFBD04FF4A8712046FFF79C
:10B9B000A1FDAB682A69C4F84425C4F8483534238E
:10B9C00003FB09834FF480229A6008230027320783
:10B9D00004D42A78032A1CBF0122E250342303FB3B
:10B9E00009F308EB030258F80330002B75D1012549
:10B9F000D4F84821D4F80431002B40F08680003A76
:10BA000018BF0122D4F82431002B00F085804FF4B8
:10BA100092712046FFF76EFDD4F86011D4F8003221
:10BA200009B1980504D4256265610029E0D000229F
:10BA3000D90571D54FF4A4712046FFF75BFDD7E718
:10BA40006B68EA68C4F84425C4F848352B6903F0EC
:10BA50006042B2F1005F7FF43EAFAA68C4F83435AB
:10BA60004FF48453C4F83825C4F80032342303FB60
:10BA7000098302229A6001232362A6E76B68EA68C1
:10BA8000C4F8442516F0200FC4F848354FF03403AD
:10BA900008D04FF48072C4F8002203FB09834FF4EE
:10BAA0008022E7E74FF40072C4F80022DFE76B68FA
:10BAB000EA68C4F83425C4F838354FF48053C4F824
:10BAC0000032342303FB098302229A60012323629C
:10BAD00000237BE70823072779E7730744BF002388
:10BAE0009360750606D4342303FB09839A6842F0F9
:10BAF00002029A60342303FB09839A6842F40072BD
:10BB00009A609B68C4F80433E6E64FF482712046DD
:10BB1000FFF7F0FC012275E7002A3FF469AF3421FA
:10BB2000D4F8C434C4F8C43401FB0982002082F87C
:10BB30002F0093B113F0010F14BF4FF402470327F6
:10BB400048F2012213F0020F18BF174613F0040F3A
:10BB500048F2022318BF1F46BEE673063FF5BCAE8F
:10BB600009FB01812046FFF7CDFC002808BF032711
:10BB7000B2E600BF9C29002002029C0110B586B0ED
:10BB80000024CDE904249DF820208DF805105201F1
:10BB900001A9CDE902348DF80440FFF787FE06B015
:10BBA00010BD10B586B0012402930023CDE9033205
:10BBB0008DF805101A4601A98DF804400593FFF78A
:10BBC00075FE06B010BD00F1804000F5C0400023B6
:10BBD00082B0036003680193019B02B0704780004C
:10BBE00000F1A040D0F8003723F44033C0F800370C
:10BBF000D0F8003743EA0143C0F80037704700002F
:10BC0000054B4FF0FF32072843F8202084BF1B1854
:10BC100083F84820704700BFD029002010B5194C88
:10BC200094F858305BBB4FF0FF3204F1300122FA38
:10BC300003F0C00748BFCA540133202BF7D10021BD
:10BC4000C8B20131FFF7DCFF0C29F9D10422002131
:10BC50000D4804F0C1F90D4BC02283F806234022A1
:10BC60001A604FF4BE70FFF7AEFF094B4FF0004271
:10BC7000C3F80423012384F85830002010BD0820A5
:10BC8000FCE700BFD0290020242A002000E100E0CA
:10BC900000600040F0B53B4E331893F93030002B74
:10BCA0006DDA8F78C7F34007002F0BBF08230023FE
:10BCB0004FF00C0C4FF0080C634501D10420F0BD8F
:10BCC00056F8235001354FEA830442D106EB000CAD
:10BCD0005DB246F823208CF8305017B9334483F80E
:10BCE00048008B785F0716D4DA0734D5830003F158
:10BCF000A043D3F8002722F00202C3F80027224F06
:10BD0000C20800F0070C012303FA0CF317F802C075
:10BD100043EA0C03BB548B780A789B0724D504F1C3
:10BD2000804303F5C0430002D3F8101521F44731D6
:10BD300021F44071C3F810151204D3F8101500F463
:10BD4000F85002F4403210430843C3F810050020B5
:10BD5000B5E70133B0E74A7800F5E0734FF0A0474C
:10BD6000920047F82320CAE7A5F1080346FA83F3B7
:10BD700093F8501041EA821283F85020E7E7082038
:10BD80009DE700BFD0290020242A002038B51E4C92
:10BD9000251895F93020072A16DD144494F8483008
:10BDA0009B09032B0BD14FF0A043D3F81015C140D2
:10BDB00001F001010231BDE83840FFF710BF012B4F
:10BDC0000CBF02210321F6E7D3B2072B1BD8930047
:10BDD00003F1804303F5C043D3F8100540F00100A0
:10BDE000C3F8100502F14000800080B2FFF7EBFEBF
:10BDF00049B195F9303054F8233023B101239340F1
:10BE0000024AC2F8043338BDD02900200060004047
:10BE10000E4B034493F93020072A02DD0021FFF77F
:10BE2000DEBED3B2072B0FD8930003F1804303F596
:10BE3000C043D3F8101521F00101C3F810150123F8
:10BE40009340034AC2F80833704700BFD02900204E
:10BE500000600040F8B50446FFF7DAFF17490A19F9
:10BE600092F9303092F83020072A9FBF144A03F528
:10BE7000A273002042F8230004F00702012393403C
:10BE80001048E208855C1D420AD004F5E0754FF0C9
:10BE9000A046022746F82570855C25EA03038354F3
:10BEA0000B1993F93000002802DBC0B2FFF7A8FE9F
:10BEB0002144FF2381F83030F8BD00BFD029002095
:10BEC00000600040242A00202DE9F34700244E4D55
:10BED00001944FF48072012102F1804303F5C043C5
:10BEE0001B68012B07D1D5F804330B4203D090B265
:10BEF000FFF769FE0C430432B2F5907F4FEA41012F
:10BF0000EAD1414BD3F87C31012B0CD14FF4BE70F8
:10BF1000FFF759FE4FF0A04344F00044D3F820252A
:10BF20000192C3F82025E3B2D3B1384F0025012692
:10BF3000344210D0AB0003F1804303F5C043D3F883
:10BF40001005D3F8101557F8253023B1C1F301417E
:10BF5000C0F3042098470135082D4FEA4606E7D183
:10BF6000002C48DA294C4FF0A047294D4FF000082B
:10BF7000012615F9013F5A1C31D0C3F3C201083123
:10BF80006944DAB211F8041C03F03F0903F0070317
:10BF900006FA03F3194222D009F5E073484657F830
:10BFA0002330C3F3014ABAF1020F14BF0221032167
:10BFB000FFF715FE06FA09F3C7F8203504EB09036D
:10BFC00093F9303054F823304BB19109032904D050
:10BFD000BAF1020F12D1012901D14846984708F160
:10BFE0000108B8F1040FC4D1D7F820350193C7F880
:10BFF0002035002BB9D102B0BDE8F087BAF1030FAC
:10C00000EDD10229E8E700BF00600040D029002000
:10C010001F2A0020014B1B68184700BF2C2A002054
:10C020000D4B984237B50C4611D100230DF1070096
:10C030008DF80730FDF7B0FF084B1D7915B90122C7
:10C040001C601A719DF80700FDF7CAFF15B90020A2
:10C0500003B030BD1120FBE7002000402C2A002057
:10C06000034B984201BF034B00221A601A717047BC
:10C07000002000402C2A0020032811D8012A0AD1D0
:10C0800001290FD100F10E02D2B20D4B00EB40009E
:10C090001A54002070470129F7D0022904D049B171
:10C0A000072070470022F8E7054B00EB40000344EF
:10C0B0005A70EEE7024B00EB400003449A70E8E749
:10C0C000342A002008B5012202210020FFF7D4FF06
:10C0D00008B1072810D1072202210120FFF7CCFF69
:10C0E00008B1072808D100210A220846FFF7C4FF3B
:10C0F00010B1072808BF002008BD000010B5038854
:10C10000102B02D0112B22D010BD194C2168D1B9AF
:10C1100001220846FFF7B0FF08B107280FD1072218
:10C1200002210120FFF7A8FF08B1072807D1042248
:10C1300002210020FFF7A0FF28B1072803D00D4BF4
:10C140001B6803B19847236801332360DCE7084A82
:10C150001368013B1360002BD6D1FFF7B3FF002813
:10C16000D2D0044B1B68002BCED0BDE8104018473E
:10C17000402A0020442A002041DF704776DF7047C4
:10C180007ADF70477CDF70478FDF7047B1DF704721
:10C1900070470000034B1B7813B9034B01221A7040
:10C1A000704700BF722A0020552A002037B5294D5C
:10C1B0002B788342044622D0274A2870138F82F8B6
:10C1C00037004FF6FF718B421CBF0133138701F01C
:10C1D00085FC224A00231370214A1370002C36D1AB
:10C1E000204B214901221A64D3F840251F4B1A60C5
:10C1F000002002F027FA1E49002002F05DF81D4BD6
:10C2000018884FF6FF74A0421FD02B78002B0CBF6C
:10C2100006237823ADF800302B78002B0CBF0C23BD
:10C220007823ADF802302B789B00ADF804306946D6
:10C230004FF4C873ADF8063002F07EFF28B1064A0D
:10C24000538FA3421CBF0133538703B030BD0A494B
:10C25000CEE700BF702A0020E82C00205C2A0020D6
:10C26000712A002000900040AF0C02006C2A0020D0
:10C27000C50C020028230020910C020007B503889A
:10C280003B2B0DD008D8112B22D0212B2AD0102BDC
:10C290000DD003B05DF804FB522B2BD0562BF8D1F8
:10C2A0008088132103B05DF804EBFFF767BF164BDE
:10C2B0008188164A198000231360154A15481370A7
:10C2C000154B01221A7003B05DF804EB03F0BEB900
:10C2D0000D4B4FF6FF7200201A8003B05DF804EB9F
:10C2E000FFF764BF002301A98088ADF80430FFF791
:10C2F0004BFFCEE70448002300881A46194603B0D6
:10C300005DF804EBFFF742BF28230020502A0020ED
:10C31000942A0020C42C0020542A00202DE9F04F3C
:10C320008C4C85B001258046256401A8D4F8406571
:10C33000894601F059FA002800F0C0802564D4F83D
:10C340004035854C8549628D9B1B9BB292B29A42C7
:10C3500038BF6385824B1F887A1C1A8001A80C2283
:10C3600003F03EFF0C220646B0FA80F501A97B4897
:10C370006D0903F083FE56B97A4A13884FF6FF71B0
:10C380009BB28B421FBF138801339BB2138063683B
:10C390002B44636016B1236801332360DFF8C8B112
:10C3A00072499BF8002041F27B4340F27625002A37
:10C3B00018BF1D466E4BD3F804A59BF8002041F62C
:10C3C0009A1340F2AE70002A18BF1846694A1378D3
:10C3D00083B10B68AAEB030323F07F43984209D291
:10C3E00063690133636101F07FFB634B5F49614A1D
:10C3F000002018700123C1F800A01370B9F1000FDC
:10C400005FD094F83630002B5BD09BF80030002BC7
:10C4100057D1DFF86491DFF864A199F80030FBB1DF
:10C42000DAF80050A8EB0505ADB2284601F094FA01
:10C43000A5F57A6248F6A0439A420AD96369B5F530
:10C440007A6F03F1010349F64045636138BF4FF449
:10C450007A6528044A4A0023002104F00DF885B2C9
:10C460000123CAF8008089F8003016B994F83630F4
:10C47000B3B1384E4FF00108C6F84080294601A8F4
:10C48000D6F8409501F036FBC6F84080D6F8403526
:10C49000A28DA3EB09039BB292B29A4238BFA38547
:10C4A000384D2B785FFA83F8013303F00F06364BD3
:10C4B0001B78B3422CD1A3680133A36005B0BDE85B
:10C4C000F08F9BF80030002BCFD02B4A2F481378E9
:10C4D000CBB10168AAEB010121F07F41A1F21F5508
:10C4E00040F63D239D420CD963690133636140F2FC
:10C4F0001E5C40F65C7540F21F5361458CBF2946B7
:10C50000194649008DB20123C0F800A01370ACE7B2
:10C510001F4C08EBC8000C2201A904EB400003F0FB
:10C52000ADFD122303FB0844A78101F04FFDE0811C
:10C5300001F05EFD174B1B7840EAC3002074BFF387
:10C540005F8F044B2E7001221A64D3F84025124BE2
:10C550001A60B3E700900040E82C0020982A0020E1
:10C56000A42A0020962A0020702A0020682A002091
:10C5700000100140642A00205C2A0020602A00206C
:10C5800040420F00A72A0020A62A0020582A002097
:10C59000A82A00208D2A00206C2A002010B5114BFB
:10C5A0001B785BB1104A13884FF6FF719BB28B4228
:10C5B00003D0138801339BB2138010BD0B4A0C4982
:10C5C00013780978D8B2013303F003039942F4D009
:10C5D000084901240C64D1F84045074941F820403E
:10C5E0001370EAE7722A0020742A0020772A0020BC
:10C5F000762A002000900040782A002008B50378B1
:10C60000002B30D1818A01292DD903691A78202A7B
:10C6100029D15A78103A072A25D8DFE802F0040811
:10C620001F2424272F25164B01221A701BE00229F4
:10C6300019D09B78012B134B197814BF01220222C9
:10C64000914210D01A701A780F49002001F0FAFFB9
:10C65000BDE808400D49002001F02EBE0C4A1378B9
:10C660000133DBB2137008BD0A4AF8E70229FAD099
:10C670009B785A1E53425341014AF3E7064BD3E7D6
:10C680002623002020230020CA0C0200C50C020033
:10C69000912A0020902A00208B2A002008B501F062
:10C6A000FDFC28B10C4A108001F032FD0B4B1870D4
:10C6B0000B4B1A884FF6FF739A420A4A02D00023A6
:10C6C000136008BD13680133B3F5967F136022BF72
:10C6D000054B01221A70F4E78E2A00208D2A0020D3
:10C6E00028230020502A00204C2A002008B501F001
:10C6F00007F92649264A0B78834218D10023137084
:10C70000244B1B78002B34D0234B1A884FF6FF7331
:10C710009A422ED0214B93F83630DBB9204A137859
:10C72000FF2B1FBF13780133DBB2137021E01378A6
:10C730000133DBB2022B1370E2D9002308701370AF
:10C740000028DDD0174A1378FF2BD9D01378013396
:10C75000DBB2D4E7144B1B7863B1144B144AD3F803
:10C76000043512689B1A23F07F4341F27E429342C4
:10C77000D4D808BD0F4B01221A640F4AD3F84035B4
:10C7800012689B1A9BB247F23052F0E7892A0020C8
:10C79000882A0020C82B002028230020E82C002015
:10C7A000712A00208A2A0020702A002000100140EF
:10C7B000682A0020009000406C2A002038B5054D02
:10C7C000044645F001054FF47A40A847013CFAD1F0
:10C7D00038BD00BF6015020008B50B4644F20101E8
:10C7E000884205BF13680B490B49926818BF02467F
:10C7F000002001F027FF0949002001F05DFD2822FB
:10C800001146032001F054F84FF47A70FFF7D6FF79
:10C81000F5E700BFD70C0200F10C0200C50C0200C6
:10C820002DE9F04F4FF0A04403234B4EC4F870376E
:10C83000B5B0002001F030F896E807000C23C4F8EA
:10C8400064370023C4F8243706AB83E8070042F6B8
:10C85000E062424907921846FEF7FAFB08B1FDF77D
:10C8600077F93F48FEF72EFC08B1FDF771F9FEF7A6
:10C870001BFC3C493C4F3D4D002001F0E3FE3C4990
:10C88000002001F019FD01F057F850222821012065
:10C8900001F00EF84FF42F70FFF790FF00F022FC2C
:10C8A000002400F011FE224603463870294600207D
:10C8B00001F0C8FE2E49002001F0FEFC3B7893B148
:10C8C00001F0C6F83B784BB1FFF7A8F9044628B948
:10C8D000012000F0BFFE002840F07A8125490020A9
:10C8E00001F0B0FE78E032200134FFF767FF052C3D
:10C8F000D7D13C78002CE3D11F49204601F0A2FE9D
:10C900001B49204601F0D8FCDAE74FF001081B4B29
:10C91000039AA3F800B01A4BADF81420029A9B7842
:10C920008DF8163012F8013B8DF81430154BDFF8F6
:10C9300058A053F8249002920125144A8AF8005016
:10C9400005A94846FFF7A6F910B38AF800B0002001
:10C9500000F080FEC2E700BF7015020091C1010027
:10C960008C2A0020050D0200C82B00201A0D0200A1
:10C97000C50C0200670D02002E0D0200742A002073
:10C980007C15020054150200722A00209DC501008A
:10C9900029464846FFF7FAF90A250A20FFF70EFF55
:10C9A000013D09A800F020FF15F0FF05F5D18F4BE0
:10C9B0008AF800501B889BB2042B40F2F8808C4A06
:10C9C0008C4908EB4404013482F836402846009331
:10C9D0004A46434601F036FE8749002001F06CFCD0
:10C9E0003B782BB3824B93F836300BB3834AB6F8BF
:10C9F0000F30ADF8243009A99378814A8DF826309C
:10CA00000920FFF747F9002840F0EE8009200121B6
:10CA1000FFF7BCF9012000F041FE002800F0DF80A4
:10CA20007849002001F00EFE7349002001F044FC1B
:10CA300001F000FB01F032FB044628B1724B188074
:10CA400001F066FB714B187022467149002001F01D
:10CA5000F9FD6949002001F02FFC50222821022015
:10CA600000F026FF4FF42F70FFF7A8FEFDF718F92E
:10CA700008B1FDF76DF802F0E1FF08B1FDF768F8C5
:10CA8000002309A90120099303F06AF808B1FDF712
:10CA90005FF809A803F030F908B1FDF759F85D4ACD
:10CAA000D6F81200516809AB03C309A8FFF768FB69
:10CAB00008B1FDF74DF8584803F022FA564982B202
:10CAC0000020FFF75FFB08B1FDF742F85348002153
:10CAD00002F0E4FC08B1FDF73BF800235048059351
:10CAE00005A902F0A1FD08B1FDF732F84D4B4E4803
:10CAF000099309A902F0AAFE08B1FDF729F8AC22B2
:10CB0000002109A803F068FA484B09930123484A19
:10CB1000ADF870308DF8A03046481D92402309A929
:10CB20002B9302F029F808B1FDF712F841480121D2
:10CB300002F01FF81C22002109A803F04DFA4FF45F
:10CB4000A033CDE90A3309A803238DF8303002F071
:10CB5000B9FA08B1FCF7FCFF3749002001F072FD7B
:10CB60002549002001F0A8FB50222821032000F0D5
:10CB70009FFE4FF42F70FFF721FE03212D4802F096
:10CB80006DF82E4904460246002001F05BFD1A496B
:10CB9000002001F091FB002C5AD0282211460320DE
:10CBA00000F086FE4FF47A70FFF708FEF5E748467E
:10CBB000FFF72EF94846FFF74DF9B8F1000F3FF4A3
:10CBC000A4AE54B944461E4B02934FF000089EE6B3
:10CBD0001C4B1B880393A346F5E72846B8E60920BB
:10CBE000FFF716F918491CE718491AE7742A0020BC
:10CBF000E82C0020400D0200C50C02007F15020049
:10CC000095C101007E0D02008E2A00208D2A002091
:10CC1000E60D0200821502002C0E0200D02C00202E
:10CC2000C42C0020FDC501002C23002002000006BA
:10CC300022230020CC2B0020F30D0200080E02005E
:10CC40005C1502007C1502009D0D0200C00D020063
:10CC50009449204601F0F6FC9349204601F02CFB54
:10CC600050222821042000F023FE4FF42F70FFF7FC
:10CC7000A5FD8E4A8E480121FDF744F808B1FCF766
:10CC800067FF8C4800229321FDF74EF808B1FCF7AE
:10CC90005FFF894A89480121FDF734F808B1FCF7A4
:10CCA00057FF874800224FF48041FDF73DF808B157
:10CCB000FCF74EFF834C844994F8363000930922E8
:10CCC0004FF49673002001F0BDFC77497F4D0020A2
:10CCD00001F0F2FA00267E4BDFF8F8811878FEF7B3
:10CCE00017FA7D4B1B7813B1012388F800307B497C
:10CCF0000B781BB32B884FF6FF7293421ED00A7835
:10CD0000774F7848013AD2B20A70774A09920122E5
:10CD10008DF828203A788DF829200622ADF81220C7
:10CD200009A90DF1120202F00BFE70493A780020B9
:10CD300001F088FC5C49002001F0BEFA6C4A1378CF
:10CD400043B329884FF6FF73994223D01378013BF0
:10CD5000DBB21370674B1F88BFB217B901F09EF9A1
:10CD6000074640F22243ADF824300423ADF81230D8
:10CD70000DF112022B885B48ADF8267009A902F06C
:10CD8000DFFD5D493A46002001F05CFC4649002089
:10CD900001F092FA98F800303BB14648FCF7F2FFF8
:10CDA0004748FCF7EFFF00F0B5FD002709A88DF814
:10CDB0002470FDF7F1F8514A1378022B04D9137847
:10CDC000033BDBB2137001279DF82400FDF708F93F
:10CDD0003FB13C221146022000F06AFD484B002280
:10CDE0001A60484A13785BB1002309A813708DF8C4
:10CDF000243000F0E7FC18B19DF82400FFF7D6F9C5
:10CE0000414A13785BB1002309A813708DF82430D0
:10CE100000F0D8FC18B19DF82400FFF7C7F9DFF83F
:10CE2000EC803B4FDFF8EC9098F800203B789A427A
:10CE300021D1394A13789BB11378013BDBB21370CF
:10CE4000364B1B7863B12A884FF6FF739A4207D09E
:10CE5000334B01221A64D3F840050021FFF75EFA34
:10CE6000304FDFF8C4A03A789AF800309A425DD18A
:10CE7000FFF782F92FE73B78DBB259F823003B78C4
:10CE8000013303F003033B70244B1B78002BCBD002
:10CE90002A884FF6FF739A42C6D00121FFF73EFA67
:10CEA000C2E700BF190E0200C50C0200EDC601006A
:10CEB0006C150200002300209DC6010068150200C9
:10CEC000E0220020E82C0020390E02002823002058
:10CED0008C2A00204C2A00208B2A0020912A002036
:10CEE000202300202C230020220300045D0E0200DA
:10CEF000902A00208E2A0020720E02008A2A00202A
:10CF0000502A0020542A0020552A0020772A002089
:10CF1000762A0020782A0020712A0020C82B0020C1
:10CF200000900040A62A0020A72A00205B4A3B78F8
:10CF300010785B49DFF86CC1DBB268B1122000FBEE
:10CF40000310BCF800E0808970451FBFA0EB0E0EF7
:10CF5000E06810FA8EF0E06053484FF0120808FBCA
:10CF600003F808EB00098844B9F80400B8F80CE0AD
:10CF70000EF1010EACF800E04FF0010C82F800C099
:10CF8000B5F800C04FF6FF72944553D0474A127867
:10CF9000002A4FD0464A127803EBC303022A01EB62
:10CFA000430171D14FF49173ADF826000C220AA809
:10CFB000ADF8243003F062F8B9F80630ADF834303B
:10CFC00098F810308DF8363013222B884FF6FF7109
:10CFD0008B422FD0DFF8DC80ADF812204FF0010932
:10CFE000C8F840900DF1120209A93348D8F840B5AD
:10CFF00002F0A6FCC8F84090D8F84035E18DA3EBCC
:10D000000B039BB289B29942024638BFE38588B1CF
:10D01000236901332361294BD3F80080B8F1000F55
:10D0200008D127491860404601F00CFB25494046CD
:10D0300001F042F93B78013303F00F033B70224BC0
:10D040001B780136002B0CBF68230C23B6B2B34209
:10D050003FF609AF00F0BAFF064600F0C1FF1B4AD9
:10D0600094F83710128892B20346CDE900210020CF
:10D070003246174901F0E6FA1249002001F01CF986
:10D08000002600F07FFCEEE622230C220DF12600A4
:10D09000ADF8243002F0F2FF0E2296E7942A002029
:10D0A000A82A0020922A0020B02A0020262300204F
:10D0B00020230020009000402C230020482A00203C
:10D0C000830E0200C50C0200702A0020962A002060
:10D0D000B20E0200024B802043F00103184700BF4C
:10D0E0009015020010B54FF0A04440F20D63C4F853
:10D0F0001437C4F818372023C4F80835FFF7EAFFBF
:10D100004023C4F80835BDE81040FFF7E3BF70B511
:10D110004FF0A0442023C4F808354026FFF7DAFF7B
:10D12000C4F80865FFF7D6FF0925C4F80C65FFF7BA
:10D13000D1FFC4F80865FFF7CDFF013DF5D12025EB
:10D14000C4F80C55FFF7C6FFC4F80855BDE8704099
:10D15000FFF7C0BF70B54FF0A04420264025C4F8AB
:10D160000865FFF7B7FFC4F80855FFF7B3FFC4F829
:10D170000C65FFF7AFFFC4F80C55BDE87040FFF732
:10D18000A9BFFFF7E7BF38B54FF0A0442025C4F88A
:10D190000C55FFF79FFF4023C4F80835FFF79AFFAF
:10D1A000C4F80855BDE83840FFF794BF2DE9F041B9
:10D1B000074607264FF0A0444FF02008402527FAE5
:10D1C00006F3DB074CBFC4F80885C4F80C85FFF7ED
:10D1D00081FFC4F80855FFF77DFFC4F80C55FFF731
:10D1E00079FF013EEBD22023C4F80835FFF772FF28
:10D1F000C4F80855FFF76EFFD4F81065C4F80C5555
:10D20000FFF768FF6FEA561000F00100BDE8F081FB
:10D210002DE9F0414FF0A0452023C5F80835074619
:10D22000FFF758FF082600244FF04008C5F808858E
:10D23000FFF750FFD5F81035C5F80C856400C3F32F
:10D240004013E4B21C43FFF745FF013EEED120231B
:10D25000B7B1C5F80C354FF0A0454026FFF73AFFAF
:10D26000C5F80865FFF736FFC5F80C65FFF732FF14
:10D270002023C5F80835FFF72DFF2046BDE8F081D3
:10D28000C5F80835E7E738B505460C46FFF762FFF5
:10D29000D420FFF78BFF20B9FFF775FF002420464D
:10D2A00038BD2846FFF782FF0028F5D02046FFF75B
:10D2B0007DFF04460028EFD0FFF765FFEFE72DE97B
:10D2C000F04104460F461646FFF744FFD420FFF70F
:10D2D0006DFF28B9FFF757FF00242046BDE8F08115
:10D2E0002046FFF763FF0028F4D0FFF74AFFD52060
:10D2F000FFF75CFF04460028ECD006F1FF3800255C
:10D300005FFA88F8E8B2804594BF00200120FFF75B
:10D310007FFF78550135AE42F4D1FFF734FFDCE7EB
:10D320007FB5124B1B7813B1002004B070BD104DB7
:10D330002E78C6B90F4B0FCB6C4684E80F0006223F
:10D340000523CDE900234FF0C86302930A48334612
:10D3500032462146FEF7C2F90028E5D10648FEF71D
:10D3600035FA01232B700120DFE700BFE52C0020F8
:10D37000E62C0020B0150200A81502002DE9FF419F
:10D3800005460E46FFF7CCFF044678B30023009312
:10D390001C488DF80C50022303AA6A218DF80D60F9
:10D3A000FEF7ECFB184F40B3DFF860801548D8F863
:10D3B0001C305A1C1CBF0133C8F81C30FEF732FA6F
:10D3C000134B00241C703B780133DBB2022B3B7003
:10D3D0000CD9104B104901221A702046D8F81C2095
:10D3E00001F030F90D49204600F066FF314628462D
:10D3F00004B0BDE8F041FFF746BF3870204604B0E6
:10D40000BDE8F081A8150200E42C0020E82C0020E3
:10D41000E62C0020E52C0020D50E0200C50C0200F1
:10D42000F0B585B00D468DF80F00FFF779FF044683
:10D43000002833D0002300931C481D4E01230DF11A
:10D440000F026A21FEF79AFB50B9184801232A46B9
:10D450006A21FEF7A6FB18B93070204605B0F0BD72
:10D46000144F1248FB695A1C1CBF0133FB61FEF7C5
:10D47000D9F9114B00241C7033780133DBB2022B35
:10D4800033700BD90D4B0E4901221A702046FA69F0
:10D4900001F0D8F80B49204600F00EFF9DF80F0070
:10D4A00001222946FFF70BFF0446D6E7A815020024
:10D4B000E42C0020E82C0020E62C0020E52C0020A5
:10D4C000D50E0200C50C02002DE9F0435C4D85B07D
:10D4D00000238DF80C30032445F00105FFF717FEFB
:10D4E000012203A90F20FFF7EAFE20B19DF80C30BE
:10D4F0006A2B00F0838000238DF80C300A264FF44D
:10D500007A40A847013EFAD1013C14F0FF04E5D16E
:10D510000027384605B0BDE8F0834FF4C850C04737
:10D520009DF80C6016F0010672D10C211220FFF755
:10D53000AAFE314600284FF00A0008BF0024FFF77A
:10D54000A2FE442100284FF0100008BF0024FFF77E
:10D550009AFE4C2100284FF0110008BF0024FFF76D
:10D5600092FE012200280DF10D014FF0100008BFBE
:10D5700000248DF80D608DF80E608DF80F60FFF7B8
:10D580009EFE012200280DF10E014FF0110008BF90
:10D590000024FFF794FE012200280DF10F014FF047
:10D5A000120008BF0024FFF78AFE9DF80D509DF879
:10D5B0000E809DF80F902349CDF800900028434637
:10D5C0002A46304608BF002401F03CF81E49304688
:10D5D00000F072FE3CB1442D05D1B8F14C0F02D1E0
:10D5E000B9F10C0F95D01949CDE900892B46224697
:10D5F000002001F027F8144900201DE0012112202D
:10D60000FFF741FE0E4B044640F2F51543F00108CA
:10D61000012203A91220FFF752FE074600283FF41B
:10D6200077AF013DADB2002D7FF477AF08492846B2
:10D6300001F008F80449284600F03EFE68E700BF04
:10D64000A01502000B0F0200C50C02002D0F0200F6
:10D65000F40E020037B5044601460E20FFF713FE14
:10D66000A8B1002501220DF107010E208DF8075009
:10D67000FFF725FE58B19DF80720944208D00549D0
:10D68000284600F0DFFF0449284600F015FE002080
:10D6900003B030BD610F0200C50C02002DE9F0435C
:10D6A000054687B0002800F0818004254FF001086E
:10D6B0004FF0E109802749465820FFF75FFE4146B9
:10D6C00004465B20FFF75AFE294600284FF05C0015
:10D6D00008BF0024FFF752FE394600284FF05E00D5
:10D6E00008BF0024FFF74AFE0026B04205A94FF00C
:10D6F000580008BF34468DF814608DF815608DF819
:10D7000016608DF81760FFF78BFE0DF11501B04222
:10D710004FF05B0008BF3446FFF782FE0DF11601A3
:10D72000B0424FF05C0008BF3446FFF779FE0DF1C0
:10D730001701B0424FF05E0008BF3446FFF770FE9D
:10D740009DF8173001939DF816309DF814201A4962
:10D750000093B0429DF81530304608BF344600F0C3
:10D7600071FF1649304600F0A7FD9DF815209DF881
:10D7700014309DF817009DF816103CB14B4505D1AB
:10D78000424503D1A94201D1B84213D0CDE90110DD
:10D7900000920B492246002000F054FF0749002068
:10D7A00000F08AFD002007B0BDE8F0838046814686
:10D7B000074680E70120F6E77F0F0200C50C020054
:10D7C000AC0F020013B5002304460DF107011B2026
:10D7D0008DF80730FFF724FE20B19DF80730C3F322
:10D7E0000013237002B010BDF0B585B00546FFF7F9
:10D7F00097FD0446002832D022238DF80F300023F5
:10D8000000931E481E4E01230DF10F026A21FEF700
:10D81000B5F930B919480C232A466A21FEF7C1F937
:10D8200038B3184F1548FB695A1C1CBF0133FB6104
:10D83000FDF7F8FF144B00241C7033780133DBB282
:10D84000022B33700BD9114B114901221A7020465B
:10D85000FA6900F0F7FE0F49204600F02DFDFFF7B2
:10D8600056FC0C222946222005B0BDE8F040FFF707
:10D8700026BD3070204605B0F0BD00BFA8150200DF
:10D88000E42C0020E82C0020E62C0020E52C0020D1
:10D89000D50E0200C50C02004FF0A0434FF080529D
:10D8A00010B1C3F80C257047C3F808257047000075
:10D8B0002DE9F843114E80460C461546002746F0E8
:10D8C0000106B84501D1BDE8F8830120FFF7E4FF68
:10D8D000A1462CB14FF47A40B047B9F10109F9D112
:10D8E0000020FFF7D9FFA9462DB14FF47A40B04789
:10D8F000B9F10109F9D10137E3E700BFC015020012
:10D900004FF0A043D3F810056FEA506000F001001B
:10D910007047000008B50020FFF7BEFF4FF0A0439E
:10D92000044AC3F864274FF080430122C3F800255E
:10D93000FEE700BF0C000300064B0022C3F80425DD
:10D94000C3F808250422C3F810250122DA601A6002
:10D95000704700BF0090004088B1094B9A8C0AB113
:10D96000824200D99884DA8C82421A8D38BFD884DA
:10D970000AB918857047801A02EB60121A85704741
:10D98000E82C002030B5234C234D236A234989B06D
:10D9900000200793E3690693A369059363690493E1
:10D9A00023690393E3680293A36801936368009378
:10D9B000236894F8362000F045FE2946002000F048
:10D9C0007BFCE38D0693A38E0593638E0493238ED5
:10D9D0000393A38D0293638D0193E38C0093238DB6
:10D9E000A28C0F49002000F02DFE2946002000F0F7
:10D9F00063FC638F0093238F94F83720094900203C
:10DA000000F020FE2946002009B0BDE8304000F0BB
:10DA100053BC00BFE82C0020DE070200E80F020024
:10DA20003B1002007E10020002464FF080439342FA
:10DA300002D8002013B970479B08F8E7C11891423B
:10DA40004FEA50009CBFC018521A9B08F2E7000032
:10DA500010B50C2200211548154C02F0BDFA0C221D
:10DA60000021144802F0B8FA0C220021124802F0FA
:10DA7000B3FA0C220021204602F0AEFA4FF4805394
:10DA800023600E4B0E4800241C600E4B1C700E4B86
:10DA90001C700E4B1C700E4B0C2221461C7002F0A9
:10DAA0009BFA0C4B1C800C4B1C7010BD602D002091
:10DAB000382D0020542D0020482D0020442D00201A
:10DAC000282D0020372D0020362D0020352D002058
:10DAD000342D0020262D0020242D0020014B18700D
:10DAE000704700BF242D0020014B00221A607047B0
:10DAF000442D00202DE9F04F95B0044602220E4639
:10DB0000014607A802F0BAFA0222A1180DF11E0080
:10DB100002F0B4FA211D022208A802F0AFFAA11DFA
:10DB2000022209A802F0AAFA394D04F108010222E2
:10DB30000DF1260002F0A2FA04F10A0102220AA85D
:10DB400002F09CFA2B88BDF82480BDF82670BDF841
:10DB500028004FF6FF7293421CBF01332B804FF415
:10DB60009D7318FB03F817FB03F710FB03F0294B19
:10DB70000BAA4FEA28283F120012CDF82C800C97F0
:10DB80000D9002929646002419461A685EF804CB5E
:10DB90000134ACEB020C02EB6C12032C43F8042BA7
:10DBA000F3D11D4C2278002A3ED1D1E9006089686A
:10DBB00080FB0003C6FB0603C1FB01034FF0FF31EE
:10DBC000814272EB0303B8BF0846FFF72DFFA0F6B2
:10DBD000D213002BBCBFC0F51D6302334C2B03DDF9
:10DBE0002B88B3F5027F10D30A490C480C2202F0AF
:10DBF00045FA2B880A49B3F5027F34BF002301237D
:10DC00000B70084B012222701A7015B0BDE8F08F1E
:10DC1000262D0020542D0020352D0020602D0020C1
:10DC2000342D0020362D0020C649BDF91C500A684D
:10DC3000BDF91E40BDF9203005EB85052D010E957F
:10DC400004EB8404AD1A4A6824010F9403EB8303A8
:10DC5000A41A8A681B0110939B1A0193BA4B0122E4
:10DC60001A64D3F840350493B84B1B780393002B08
:10DC700042D1DFF8DCC2019ADCF80030DCE9011B9C
:10DC800084FB0B9A82FB012EB9EB02026AEB0E0EAB
:10DC9000A2FB062912F1004206FB0E9949F1000988
:10DCA000A3EB0902CCF80020019A82FB039A8BFBBC
:10DCB000052EB9EB02026AEB0E0EA2FB062912F149
:10DCC000004206FB0E9949F10009A1EB090284FB11
:10DCD000033ECCF8042081FB0512CB1A62EB0E0E3A
:10DCE000A3FB063206FB0E2213F1004342F10002B1
:10DCF000ABEB0202CCF80820DFF854B2DBF80030BE
:10DD0000A8EB0308DBF80430CDF84480FF1ADBF8F9
:10DD100008301297A0EB0309039BCDF84C90002B21
:10DD200040F0A18087FB0773C8FB0873C9FB097328
:10DD3000B7F5803F73F10003C0F2AA80DFF810A2AC
:10DD400011AB50460022016853F8047B013201EB0D
:10DD5000E721032A40F8041BF5D1DBE90018DBF8C2
:10DD60000870039188FB0803C1FB0103C7FB07038D
:10DD7000002BC8BF4FF0FF30FFF756FE021E03997D
:10DD800000F39480704A734F01201064D2F840353C
:10DD900004995B1A398E9BB289B29942C0F0A48073
:10DDA0001064D2F840856C4A00209346DDF808C024
:10DDB00011685CF8043BCDF808C05AF804CBA3EB1B
:10DDC0000C035B1A013001EB6311032842F8041BBA
:10DDD000ECD1DBE90003DBF8081083FB0332C0FB66
:10DDE0000032C1FB013241F229718B4272F1000114
:10DDF0005A497BDA0878FF2801D001300870097889
:10DE0000DFF85CA1072994BF002001208AF80000F8
:10DE10004E4890F80090B9F1000F69D04A4A0120AD
:10DE20001064D2F84035798EA3EB08039BB289B217
:10DE30009942C0F0998010644A4D9AF80030D2F8A7
:10DE400040452A68002B00F09180531102D1131E27
:10DE500018BF0123D21AB2F57A6F40F39E804FF4B7
:10DE60007A632B609DE0284601F0B2FF44F2073A46
:10DE700050453FF763AF204601F0AAFF50453FF7FA
:10DE80005DAF019801F0A4FF50457FF74BAF55E718
:10DE90002F4A11A80023116850F8047B013301EBCD
:10DEA0006711032B42F8041BF5D147E740F6D2195E
:10DEB000D31781FB09010592039302F08DFADFF875
:10DEC00090B0059A039BCBF8000088FB090102F093
:10DED00083FA059ACBF80400039B87FB090102F043
:10DEE0007BFACBF808004DE73B8659E7002085E731
:10DEF000072993D941F229718B4272F100028DDA20
:10DF0000284601F065FF41F25765A84286DC2046AD
:10DF100001F05EFFA84281DC019801F059FFA842A0
:10DF20003FF77CAF074A0EA8136850F8041B09F1AD
:10DF30000109C91A03EBA113B9F1030F42F8043B1D
:10DF4000F2D16BE7282D002000900040242D002006
:10DF5000602D0020E82C0020482D0020372D0020C7
:10DF6000362D0020442D00207B8664E71448DBF822
:10DF7000003041680193DBF80430DDF804C04B4306
:10DF80000168806801FB0C33DBF8081000FB0133EB
:10DF90001B13734302EB23425DE712F57A6F0DDB2F
:10DFA0002A60084B01221A64D3F84035BA8E1B1B35
:10DFB0009BB292B29A4238BFBB8626E6024B50E72C
:10DFC000382D00200090004060F0FFFF034B1868E0
:10DFD0004FF47A7358430012704700BF442D00205D
:10DFE000024B187880F00100704700BF362D0020EA
:10DFF000084B1878084B1B7840425B4203F004033F
:10E0000000F010001843054B1B7801331843C0B2D1
:10E01000704700BF342D0020352D0020362D002004
:10E020000378022B02BF024B01221A70704700BF17
:10E030006D2D00207FB5144C14492068009068466F
:10E04000FDF72CF90246E8B96068A16801AB03C38B
:10E05000217B1970104601A9FDF768F990B90C4CA5
:10E060002070FDF72DFA68B90A4EC82546F0010662
:10E07000237823B94FF44860B047013DF8D1064BEF
:10E0800022781A7004B070BDD615020021E001009C
:10E090006D2D0020D01502006C2D0020F8B5194B15
:10E0A0001B780BB90020F8BD0024174F0426254625
:10E0B00015490020FDF798F9A0B10134013EF7D1D0
:10E0C000B4B9002DEED0A4EB04344FF4616304F531
:10E0D0007F5403FB05F03C3490FBF4F080F3100018
:10E0E00080B2E0E7B7F90030002BC8BFED18E5E7D4
:10E0F000064A136A591C1CBF1B191362042CE0D179
:10E10000D0E700BF6C2D00206E2D0020E82C0020F1
:10E11000013880B240F65E1398428CBF0020012087
:10E1200070470369C26893429CBF81685B18013BDA
:10E13000981A70472DE9F041D0E902840546A8EB12
:10E1400004064068964220440F46144404D901F066
:10E1500095FFEC60BDE8F0813246A4EB080401F0C5
:10E160008DFF68682246B919F1E72DE9F843C568C3
:10E170000646894617464FF000083369B468706850
:10E180009D4228BF1B19641BBC4203F1FF3328BF0B
:10E190003C465B1B9C4228BF1C46494628442246FD
:10E1A00001F06CFFB3682544AB4208BF00253F1B5C
:10E1B000A044A144F560E0D14046BDE8F8830000EA
:10E1C00010B5114C114AA2610223C4E90433104B6B
:10E1D000E361A2644FF400730E4A0F492362E264C4
:10E1E00000231022E01DA3626362E362A3656365FE
:10E1F000E365226501F0F0FD0849204601F0ECFDE1
:10E200002023A37110BD00BF802F00209E100200AC
:10E21000802D0020702D0020A7100200AB100200FE
:10E22000F8B5144B182700FB07751D4407FB003396
:10E230000E46DB6A012B14460AD0022B14D023B9F8
:10E240002846FFF76EFF844208D900242046F8BD17
:10E250002846FFF766FF844228BF0446224631461F
:10E260002846FFF767FFF1E72846BDE8F840FFF7CB
:10E270007CBF00BF802F002073B50E4B1B78044677
:10E280000D4616460BB9FFF79BFF00230DF1070063
:10E290008DF80730FBF780FE324629462046FFF70F
:10E2A000BFFF04469DF80700FBF79AFE204602B028
:10E2B00070BD00BF802F002038B5054608460C46CB
:10E2C00001F01EFE214602462846BDE83840FFF711
:10E2D000D3BF10B5826804464068531C834205D8FA
:10E2E00020688154A360E3680133E360D4E901321C
:10E2F0009A420BD121682069FFF7BEFFA3689842BC
:10E3000015BF4FF0FF330023E360A36010BD000092
:10E310002DE9F84F9946DDE90A4316460546884639
:10E320000A464FF0010AB24212D2CA4538BFCA4665
:10E3300013F0010B01D184B90024EB68002B3DDB05
:10E340000127B9F1010F1FD909F1FF397743F8E728
:10E350000AF1010AB2FBF6F2E5E79B0712D5B9F123
:10E36000000F0CBF30272027A245E6D239462846A9
:10E37000FFF7AFFFEB68002B04F1FF34DDDB002C6F
:10E38000F2D1D9E72027EFE7B8FBF7F39E42DDD9BA
:10E39000DFF84890B8FBF7F3284619F8031007FB9D
:10E3A0001388FFF796FFEB68002B03DBB7FBF6F350
:10E3B000B74205D2BBF1000F00D064B9BDE8F88FB9
:10E3C0001F46E7E720212846FFF783FFEB68002B75
:10E3D00004F1FF34F2DB5445F4D8EFE7E315020013
:10E3E0002DE9F04F00239BB00E464021CDE90613E6
:10E3F000CDE908300DF1280A03901546CDF814A098
:10E4000016F8011B39B9089D002D00F310810898FA
:10E410001BB0BDE8F08F252940F0BA804FF0000B0B
:10E42000314611F8013B2D2B18D012D8232B1CD0CC
:10E430002B2B17D00024314611F8013BA3F13000FB
:10E44000092815D80A2202FB0433A3F130040E4632
:10E45000F1E7302BEED14BF0020B01E04BF0010B5A
:10E460000E46DDE74BF0040BFAE74BF0080BF7E73D
:10E470002E2B11D10E464FF000090A27304610F816
:10E48000011BA1F1300CBCF1090F07D807FB0911E2
:10E49000A1F130090646F1E74FF00009304610F8C7
:10E4A000011B01F0FB07682F0646F8D0782909D830
:10E4B0006F290BD8632967D020D8252968D058291F
:10E4C00000F09580089B002B9ADA9CE770390829A8
:10E4D000F8D801A050F821F01FE60100C5E40100C2
:10E4E000C5E40100FFE50100C5E40100DDE5010030
:10E4F000C5E40100C5E40100EFE501006429E1D1B4
:10E500002968081D28600F6887EAE771A1EBE771A9
:10E510004FF001080A2009293EDCC84538BFC8462B
:10E520002CB1002F02DB1BF0040F00D0013C1BF0CC
:10E53000020F02D0B9F1000F04D01BF0010F01D17E
:10E540007CBB002408990029BCDB002F35DA7F4210
:10E550002D2105A8FFF7BDFE08990029B2DB0BF0BD
:10E560000301022904D1B9F1000F01D154BB0024E9
:10E5700008990029A6DBCDE9004B4B460A22394613
:10E5800005A8FFF7C5FE9DE72B681A1D2A601978BC
:10E5900005A8FFF79EFE95E708F10108B1FBF0F131
:10E5A000B9E7A045CED2202105A8FFF792FE089931
:10E5B000002904F1FF34C3DAC4E71BF0040FCED006
:10E5C0002B21C6E7A045D3D2302105A8FFF781FE55
:10E5D0000899002904F1FF34C8DAC9E72968081D41
:10E5E0002860CDE9004B4B460A220968C8E7296834
:10E5F000081D2860CDE9004B4B461022F5E72B683B
:10E600001A1D2A601C6814F8011B00293FF45AAF38
:10E6100005A8FFF75EFE089B002BF4DA52E7296895
:10E620000B1D2B6000220823CDE90032E5E7079C93
:10E6300024B1039822465146FFF71EFE2C4408944D
:10E64000E5E600BF0EB403B503AB01AA53F8041B03
:10E650000193FFF7C5FE02B05DF804EB03B070470D
:10E660006DDF704779DF70477DDF704764DF70478B
:10E670002DE9F04F85B000260E9CBDF83CB0B4F8F3
:10E6800000A00191074690461D46B1463A884A458A
:10E6900005DC002E37D1002005B0BDE8F08F7A6888
:10E6A00052F82900039000220DF10B0103A8FFF797
:10E6B000DDFF0028F0D19DF80B20424520D12288B3
:10E6C00086F0010002EB080101EB4001594524DC12
:10E6D0003EB9013292B2019B2280AB5422880132B2
:10E6E000228022880DF10B012A4403A8FFF7BEFF08
:10E6F0000028D1D121889DF80B200A4422800126D0
:10E7000009F10109C2E72388013BA3EB0A039BB28D
:10E71000FF2B02D805F80A30BDE70C20BCE72DE935
:10E72000F341089FBDF824801546CDE90078022208
:10E7300004461E46FFF79CFF50B933461022294677
:10E740002046CDE9087802B0BDE8F041FFF790BF60
:10E7500002B0BDE8F0812DE9F04F0023B2F800804F
:10E76000138090F82D3085B007460D46144663B3EC
:10E77000B8F1080F40F2AB8102A8FFF771FF06461F
:10E78000002840F0DD8023880822EA5423880133E2
:10E790009BB21B222380EA542088013080B2208063
:10E7A00006220DF10901284401F068FC23889DF838
:10E7B000082006339BB2012A88BF0122238094BF20
:10E7C000EE54EA54238801332380BB780BB32388AB
:10E7D0000433434500F27B8102A8FFF743FF06465E
:10E7E000002840F0AD8023880322EA5423880133B7
:10E7F0009BB219222380EA542388BDF808200133F4
:10E800009BB2E9182380EA54120A4A702388023323
:10E810002380FA78A2B12388D91C414500F25781A0
:10E820000221E954238801339BB201212380E9545A
:10E8300023880B449BB22380EA5423880B44238013
:10E840007B68B3B193F900202388D91C414500F2BD
:10E850003E810221E954238801339BB20A2123809F
:10E86000E954238801339BB22380EA54238801337F
:10E8700023803B89002B57D13B8A5BB1CDE900480F
:10E880002B460722032107F11000FFF748FF064639
:10E89000002855D13B8B5BB1CDE900482B461522B2
:10E8A000142107F11800FFF73AFF0646002847D168
:10E8B0003A6A002A48D17E6A66B3B3882188981CD8
:10E8C0008A1C0244424500F20281FE2800F2FF80C9
:10E8D00003336B54238801339BB2FF222380EA5415
:10E8E000238801339BB223803288EA54E918120A44
:10E8F0004A702088023080B22080B28852B1B1685C
:10E90000002900F0E680284401F0B8FB2388B28893
:10E910001344238097F82C30002B58D13B78002BE0
:10E9200040F0918000260BE0CDE900482B460622FE
:10E93000022107F10800FFF7F2FE064600289BD0EF
:10E94000304605B0BDE8F08F2688B31D434500F280
:10E95000BE801188052940F2BC806FF4486C01EB41
:10E960000C039BB24FF27D3C634540F2B28053886A
:10E97000052B40F2AE806FF44860181880B26045F5
:10E9800040F2A7804FF6FF70814202D0994200F218
:10E99000A0800523AB55238801339BB2122123802D
:10E9A000E954238801339BB223801188E954E81885
:10E9B000090A4170238802339BB223805288EA54AB
:10E9C000E918120A4A7023880233238073E7BB6A6E
:10E9D000002B7ED04FF000094FF00C0A4FF0160BC1
:10E9E00097F82C305FFA89F2934297D9B96A0AFBFB
:10E9F00002F28E18B388981CFE2868D8208803334A
:10EA00002B54238801339BB2238005F803B023885D
:10EA100001339BB223808A5AEA54E918120A4A70D9
:10EA20002088023080B22080B2884AB1B1680029C3
:10EA30004FD0284401F022FB2388B288134423805E
:10EA400009F10109CCE73A88012A42D02288901CBA
:10EA500040453CD8012B04D17B78023313449845C0
:10EA600035D3A8F10208A8EB02081FFA88F802A91A
:10EA70002844ADF80880FFF7F7FD064600287FF42C
:10EA80005FAF3A78BDF80830022A1CD079789942F5
:10EA900001D3434519D9012A02D1884528BF8846A8
:10EAA000ADF808800821BDF80830FE2B0FD8228869
:10EAB0000133AB542288013292B22280A9542288B9
:10EAC000134423802EE74345EAD80921EBE70C26BF
:10EAD00036E7072634E770B5C8B1F2B10024651CEB
